{"abi":[{"type":"constructor","inputs":[{"name":"_manager","type":"address","internalType":"contract IPoolManager"}],"stateMutability":"nonpayable"},{"type":"function","name":"manager","inputs":[],"outputs":[{"name":"","type":"address","internalType":"contract IPoolManager"}],"stateMutability":"view"},{"type":"function","name":"take","inputs":[{"name":"key","type":"tuple","internalType":"struct PoolKey","components":[{"name":"currency0","type":"address","internalType":"Currency"},{"name":"currency1","type":"address","internalType":"Currency"},{"name":"fee","type":"uint24","internalType":"uint24"},{"name":"tickSpacing","type":"int24","internalType":"int24"},{"name":"hooks","type":"address","internalType":"contract IHooks"}]},{"name":"amount0","type":"uint256","internalType":"uint256"},{"name":"amount1","type":"uint256","internalType":"uint256"}],"outputs":[],"stateMutability":"payable"},{"type":"function","name":"unlockCallback","inputs":[{"name":"rawData","type":"bytes","internalType":"bytes"}],"outputs":[{"name":"","type":"bytes","internalType":"bytes"}],"stateMutability":"nonpayable"}],"bytecode":{"object":"0x60a060405234801561000f575f80fd5b50604051610eff380380610eff83398101604081905261002e9161003f565b6001600160a01b031660805261006c565b5f6020828403121561004f575f80fd5b81516001600160a01b0381168114610065575f80fd5b9392505050565b608051610e526100ad5f395f8181605d01528181610149015281816101f601528181610310015281816104f50152818161054e01526105810152610e525ff3fe608060405260043610610033575f3560e01c8063055419b614610037578063481c6a751461004c57806391dd73461461009c575b5f80fd5b61004a610045366004610b81565b6100c8565b005b348015610057575f80fd5b5061007f7f000000000000000000000000000000000000000000000000000000000000000081565b6040516001600160a01b0390911681526020015b60405180910390f35b3480156100a7575f80fd5b506100bb6100b6366004610bb2565b6101e9565b6040516100939190610c40565b60408051608080820183523380835260208084018881528486018881526060958601888152875180850195909552915180516001600160a01b03908116868a0152938101518416858801529687015162ffffff16848601529486015160020b60a08401529490920151821660c0820152915160e083015291516101008201527f0000000000000000000000000000000000000000000000000000000000000000909116906348c8949190610120016040516020818303038152906040526040518263ffffffff1660e01b81526004016101a19190610c40565b5f604051808303815f875af11580156101bc573d5f803e3d5ffd5b505050506040513d5f823e601f3d908101601f191682016040526101e39190810190610c72565b50505050565b6060336001600160a01b037f0000000000000000000000000000000000000000000000000000000000000000161461021f575f80fd5b5f61022c83850185610d1a565b6040810151909150156102515760208101515181516040830151610251929190610299565b60608101511561027557610275816020015160200151825f01518360600151610299565b604080515f6020820152016040516020818303038152906040529150505b92915050565b5f805f6102a7868630610527565b925092509250805f146103015760405162461bcd60e51b815260206004820152601d60248201527f64656c74614265666f7265206973206e6f7420657175616c20746f203000000060448201526064015b60405180910390fd5b6103376001600160a01b0387167f000000000000000000000000000000000000000000000000000000000000000087875f6105b3565b5f805f610345898930610527565b925092509250610354876106af565b61035d90610d9f565b600f0b81146103c45760405162461bcd60e51b815260206004820152602d60248201527f64656c74614166746572206973206e6f7420657175616c20746f202d616d6f7560448201526c6e742e746f496e74313238282960981b60648201526084016102f8565b866103cf8785610dcc565b146104575760405162461bcd60e51b815260206004820152604c60248201527f74686520646966666572656e6365206265747765656e207573657242616c416660448201527f74657220616e64207573657242616c4265666f7265206973206e6f742065717560648201526b185b081d1bc8185b5bdd5b9d60a21b608482015260a4016102f8565b866104628387610dcc565b146104e65760405162461bcd60e51b815260206004820152604860248201527f74686520646966666572656e6365206265747765656e20706d42616c4265666f60448201527f726520616e6420706d42616c4166746572206973206e6f7420657175616c20746064820152671bc8185b5bdd5b9d60c21b608482015260a4016102f8565b61051c6001600160a01b038a167f00000000000000000000000000000000000000000000000000000000000000008a8a5f6106c7565b505050505050505050565b5f808061053d6001600160a01b03871686610989565b92506105726001600160a01b0387167f0000000000000000000000000000000000000000000000000000000000000000610989565b91506105a86001600160a01b037f0000000000000000000000000000000000000000000000000000000000000000168588610a18565b905093509350939050565b8061062357604051630b0d9c0960e01b81526001600160a01b038681166004830152848116602483015260448201849052851690630b0d9c09906064015b5f604051808303815f87803b158015610608575f80fd5b505af115801561061a573d5f803e3d5ffd5b505050506106a8565b836001600160a01b031663156e29f68461064c886001600160a01b03166001600160a01b031690565b6040516001600160e01b031960e085901b1681526001600160a01b0390921660048301526024820152604481018590526064015f604051808303815f87803b158015610696575f80fd5b505af115801561051c573d5f803e3d5ffd5b5050505050565b5f6001607f1b82106106c3576106c3610a95565b5090565b801561072e57836001600160a01b031663f5298aca846106f6886001600160a01b03166001600160a01b031690565b6040516001600160e01b031960e085901b1681526001600160a01b0390921660048301526024820152604481018590526064016105f1565b6001600160a01b0385166107ae57604051636a256b2960e01b81526001600160a01b038681166004830152851690636a256b2990849060240160206040518083038185885af1158015610783573d5f803e3d5ffd5b50505050506040513d601f19601f820116820180604052508101906107a89190610ddf565b506106a8565b604051632961046560e21b81526001600160a01b03868116600483015285169063a5841194906024016020604051808303815f875af11580156107f3573d5f803e3d5ffd5b505050506040513d601f19601f820116820180604052508101906108179190610ddf565b506001600160a01b03831630146108a6576040516323b872dd60e01b81526001600160a01b0384811660048301528581166024830152604482018490528616906323b872dd906064016020604051808303815f875af115801561087c573d5f803e3d5ffd5b505050506040513d601f19601f820116820180604052508101906108a09190610df6565b50610918565b60405163a9059cbb60e01b81526001600160a01b0385811660048301526024820184905286169063a9059cbb906044016020604051808303815f875af11580156108f2573d5f803e3d5ffd5b505050506040513d601f19601f820116820180604052508101906109169190610df6565b505b604051636a256b2960e01b81526001600160a01b038681166004830152851690636a256b29906024016020604051808303815f875af115801561095d573d5f803e3d5ffd5b505050506040513d601f19601f820116820180604052508101906109819190610ddf565b505050505050565b5f6001600160a01b0383166109a957506001600160a01b03811631610293565b6040516370a0823160e01b81526001600160a01b0383811660048301528416906370a0823190602401602060405180830381865afa1580156109ed573d5f803e3d5ffd5b505050506040513d601f19601f82011682018060405250810190610a119190610ddf565b9050610293565b5f82815260208290526040808220905163789add5560e11b8152600481018290526001600160a01b0386169063f135baaa90602401602060405180830381865afa158015610a68573d5f803e3d5ffd5b505050506040513d601f19601f82011682018060405250810190610a8c9190610ddf565b95945050505050565b6393dafdf15f526004601cfd5b634e487b7160e01b5f52604160045260245ffd5b6001600160a01b0381168114610aca575f80fd5b50565b8035610ad881610ab6565b919050565b5f60a08284031215610aed575f80fd5b60405160a0810181811067ffffffffffffffff82111715610b1057610b10610aa2565b6040529050808235610b2181610ab6565b81526020830135610b3181610ab6565b6020820152604083013562ffffff81168114610b4b575f80fd5b60408201526060830135600281900b8114610b64575f80fd5b6060820152610b7560808401610acd565b60808201525092915050565b5f805f60e08486031215610b93575f80fd5b610b9d8585610add565b9560a0850135955060c0909401359392505050565b5f8060208385031215610bc3575f80fd5b823567ffffffffffffffff80821115610bda575f80fd5b818501915085601f830112610bed575f80fd5b813581811115610bfb575f80fd5b866020828501011115610c0c575f80fd5b60209290920196919550909350505050565b5f5b83811015610c38578181015183820152602001610c20565b50505f910152565b602081525f8251806020840152610c5e816040850160208701610c1e565b601f01601f19169190910160400192915050565b5f60208284031215610c82575f80fd5b815167ffffffffffffffff80821115610c99575f80fd5b818401915084601f830112610cac575f80fd5b815181811115610cbe57610cbe610aa2565b604051601f8201601f19908116603f01168101908382118183101715610ce657610ce6610aa2565b81604052828152876020848701011115610cfe575f80fd5b610d0f836020830160208801610c1e565b979650505050505050565b5f6101008284031215610d2b575f80fd5b6040516080810181811067ffffffffffffffff82111715610d4e57610d4e610aa2565b6040528235610d5c81610ab6565b8152610d6b8460208501610add565b602082015260c0830135604082015260e090920135606083015250919050565b634e487b7160e01b5f52601160045260245ffd5b5f81600f0b6f7fffffffffffffffffffffffffffffff198103610dc457610dc4610d8b565b5f0392915050565b8181038181111561029357610293610d8b565b5f60208284031215610def575f80fd5b5051919050565b5f60208284031215610e06575f80fd5b81518015158114610e15575f80fd5b939250505056fea264697066735822122095e0e491b3767c44ec71916a83eda642a07bdc3bed6c8e7f87020a5854feb37964736f6c63430008180033","linkReferences":{}},"methodIdentifiers":{"manager()":"481c6a75","take((address,address,uint24,int24,address),uint256,uint256)":"055419b6","unlockCallback(bytes)":"91dd7346"},"id":68}