{"abi":[{"type":"constructor","inputs":[{"name":"_manager","type":"address","internalType":"contract IPoolManager"}],"stateMutability":"nonpayable"},{"type":"function","name":"donate","inputs":[{"name":"key","type":"tuple","internalType":"struct PoolKey","components":[{"name":"currency0","type":"address","internalType":"Currency"},{"name":"currency1","type":"address","internalType":"Currency"},{"name":"fee","type":"uint24","internalType":"uint24"},{"name":"tickSpacing","type":"int24","internalType":"int24"},{"name":"hooks","type":"address","internalType":"contract IHooks"}]},{"name":"amount0","type":"uint256","internalType":"uint256"},{"name":"amount1","type":"uint256","internalType":"uint256"},{"name":"hookData","type":"bytes","internalType":"bytes"}],"outputs":[{"name":"delta","type":"int256","internalType":"BalanceDelta"}],"stateMutability":"payable"},{"type":"function","name":"manager","inputs":[],"outputs":[{"name":"","type":"address","internalType":"contract IPoolManager"}],"stateMutability":"view"},{"type":"function","name":"unlockCallback","inputs":[{"name":"rawData","type":"bytes","internalType":"bytes"}],"outputs":[{"name":"","type":"bytes","internalType":"bytes"}],"stateMutability":"nonpayable"},{"type":"error","name":"ERC20TransferFailed","inputs":[]},{"type":"error","name":"NativeTransferFailed","inputs":[]}],"bytecode":{"object":"0x60a060405234801561000f575f80fd5b506040516111f43803806111f483398101604081905261002e9161003f565b6001600160a01b031660805261006c565b5f6020828403121561004f575f80fd5b81516001600160a01b0381168114610065575f80fd5b9392505050565b6080516111336100c15f395f8181606e0152818160d7015281816101ee015281816102f0015281816104c30152818161051401528181610579015281816105c4015281816106d4015261070701526111335ff3fe608060405260043610610033575f3560e01c8063234266d714610037578063481c6a751461005d57806391dd7346146100a8575b5f80fd5b61004a610045366004610d8c565b6100d4565b6040519081526020015b60405180910390f35b348015610068575f80fd5b506100907f000000000000000000000000000000000000000000000000000000000000000081565b6040516001600160a01b039091168152602001610054565b3480156100b3575f80fd5b506100c76100c2366004610deb565b6101e1565b6040516100549190610ea4565b5f7f00000000000000000000000000000000000000000000000000000000000000006001600160a01b03166348c894916040518060a00160405280336001600160a01b03168152602001888152602001878152602001868152602001858152506040516020016101449190610f00565b6040516020818303038152906040526040518263ffffffff1660e01b815260040161016f9190610ea4565b5f604051808303815f875af115801561018a573d5f803e3d5ffd5b505050506040513d5f823e601f3d908101601f191682016040526101b19190810190610f5e565b8060200190518101906101c49190610fc7565b90504780156101d8576101d85f3383610615565b50949350505050565b6060336001600160a01b037f00000000000000000000000000000000000000000000000000000000000000001614610217575f80fd5b5f61022483850185610fde565b90505f61023c82602001515f0151835f0151306106ad565b925050505f610257836020015160200151845f0151306106ad565b92505050815f146102a75760405162461bcd60e51b8152602060048201526015602482015274064656c74614265666f726530206973206e6f74203605c1b60448201526064015b60405180910390fd5b80156102ed5760405162461bcd60e51b8152602060048201526015602482015274064656c74614265666f726531206973206e6f74203605c1b604482015260640161029e565b5f7f00000000000000000000000000000000000000000000000000000000000000006001600160a01b031663234266d785602001518660400151876060015188608001516040518563ffffffff1660e01b81526004016103509493929190611081565b6020604051808303815f875af115801561036c573d5f803e3d5ffd5b505050506040513d601f19601f820116820180604052508101906103909190610fc7565b90505f6103a885602001515f0151865f0151306106ad565b925050505f6103c3866020015160200151875f0151306106ad565b9250505085604001516103d5906110b8565b821461043d5760405162461bcd60e51b815260206004820152603160248201527f64656c7461416674657230206973206e6f7420657175616c20746f202d696e7460448201527032353628646174612e616d6f756e74302960781b606482015260840161029e565b856060015161044b906110b8565b81146104b35760405162461bcd60e51b815260206004820152603160248201527f64656c7461416674657231206973206e6f7420657175616c20746f202d696e7460448201527032353628646174612e616d6f756e74312960781b606482015260840161029e565b5f821215610504578551610504907f0000000000000000000000000000000000000000000000000000000000000000906104ec856110b8565b60208a0151516001600160a01b03169291905f610739565b5f811215610557578551610557907f00000000000000000000000000000000000000000000000000000000000000009061053d846110b8565b6020808b015101516001600160a01b03169291905f610739565b5f8213156105a05785516020870151516105a0916001600160a01b03909116907f000000000000000000000000000000000000000000000000000000000000000090855f610a2a565b5f8113156105eb57855160208088015101516105eb916001600160a01b03909116907f000000000000000000000000000000000000000000000000000000000000000090845f610a2a565b60408051602081018590520160405160208183030381529060405296505050505050505b92915050565b5f6001600160a01b038416610651575f805f8085875af190508061064c57604051633d2cec6f60e21b815260040160405180910390fd5b6106a7565b60405163a9059cbb60e01b5f52836004528260245260205f60445f80895af13d15601f3d1160015f511416171691505f6060528060405250806106a757604051633c9fd93960e21b815260040160405180910390fd5b50505050565b5f80806106c36001600160a01b03871686610afc565b92506106f86001600160a01b0387167f0000000000000000000000000000000000000000000000000000000000000000610afc565b915061072e6001600160a01b037f0000000000000000000000000000000000000000000000000000000000000000168588610b8b565b905093509350939050565b80156107ce57836001600160a01b031663f5298aca84610768886001600160a01b03166001600160a01b031690565b6040516001600160e01b031960e085901b1681526001600160a01b0390921660048301526024820152604481018590526064015b5f604051808303815f87803b1580156107b3575f80fd5b505af11580156107c5573d5f803e3d5ffd5b50505050610a23565b6001600160a01b03851661084e57604051636a256b2960e01b81526001600160a01b038681166004830152851690636a256b2990849060240160206040518083038185885af1158015610823573d5f803e3d5ffd5b50505050506040513d601f19601f820116820180604052508101906108489190610fc7565b50610a23565b604051632961046560e21b81526001600160a01b03868116600483015285169063a5841194906024016020604051808303815f875af1158015610893573d5f803e3d5ffd5b505050506040513d601f19601f820116820180604052508101906108b79190610fc7565b506001600160a01b0383163014610946576040516323b872dd60e01b81526001600160a01b0384811660048301528581166024830152604482018490528616906323b872dd906064016020604051808303815f875af115801561091c573d5f803e3d5ffd5b505050506040513d601f19601f8201168201806040525081019061094091906110de565b506109b8565b60405163a9059cbb60e01b81526001600160a01b0385811660048301526024820184905286169063a9059cbb906044016020604051808303815f875af1158015610992573d5f803e3d5ffd5b505050506040513d601f19601f820116820180604052508101906109b691906110de565b505b604051636a256b2960e01b81526001600160a01b038681166004830152851690636a256b29906024016020604051808303815f875af11580156109fd573d5f803e3d5ffd5b505050506040513d601f19601f82011682018060405250810190610a219190610fc7565b505b5050505050565b80610a6c57604051630b0d9c0960e01b81526001600160a01b038681166004830152848116602483015260448201849052851690630b0d9c099060640161079c565b836001600160a01b031663156e29f684610a95886001600160a01b03166001600160a01b031690565b6040516001600160e01b031960e085901b1681526001600160a01b0390921660048301526024820152604481018590526064015f604051808303815f87803b158015610adf575f80fd5b505af1158015610af1573d5f803e3d5ffd5b505050505050505050565b5f6001600160a01b038316610b1c57506001600160a01b0381163161060f565b6040516370a0823160e01b81526001600160a01b0383811660048301528416906370a0823190602401602060405180830381865afa158015610b60573d5f803e3d5ffd5b505050506040513d601f19601f82011682018060405250810190610b849190610fc7565b905061060f565b5f82815260208290526040808220905163789add5560e11b8152600481018290526001600160a01b0386169063f135baaa90602401602060405180830381865afa158015610bdb573d5f803e3d5ffd5b505050506040513d601f19601f82011682018060405250810190610bff9190610fc7565b95945050505050565b634e487b7160e01b5f52604160045260245ffd5b60405160a0810167ffffffffffffffff81118282101715610c3f57610c3f610c08565b60405290565b604051601f8201601f1916810167ffffffffffffffff81118282101715610c6e57610c6e610c08565b604052919050565b6001600160a01b0381168114610c8a575f80fd5b50565b5f60a08284031215610c9d575f80fd5b610ca5610c1c565b90508135610cb281610c76565b81526020820135610cc281610c76565b6020820152604082013562ffffff81168114610cdc575f80fd5b60408201526060820135600281900b8114610cf5575f80fd5b60608201526080820135610d0881610c76565b608082015292915050565b5f67ffffffffffffffff821115610d2c57610d2c610c08565b50601f01601f191660200190565b5f82601f830112610d49575f80fd5b8135610d5c610d5782610d13565b610c45565b818152846020838601011115610d70575f80fd5b816020850160208301375f918101602001919091529392505050565b5f805f806101008587031215610da0575f80fd5b610daa8686610c8d565b935060a0850135925060c0850135915060e085013567ffffffffffffffff811115610dd3575f80fd5b610ddf87828801610d3a565b91505092959194509250565b5f8060208385031215610dfc575f80fd5b823567ffffffffffffffff80821115610e13575f80fd5b818501915085601f830112610e26575f80fd5b813581811115610e34575f80fd5b866020828501011115610e45575f80fd5b60209290920196919550909350505050565b5f5b83811015610e71578181015183820152602001610e59565b50505f910152565b5f8151808452610e90816020860160208601610e57565b601f01601f19169290920160200192915050565b602081525f610eb66020830184610e79565b9392505050565b80516001600160a01b03908116835260208083015182169084015260408083015162ffffff169084015260608083015160020b9084015260809182015116910152565b602080825282516001600160a01b0316828201528201515f90610f266040840182610ebd565b50604083015160e08301526060830151610100830152608083015161012080840152610f56610140840182610e79565b949350505050565b5f60208284031215610f6e575f80fd5b815167ffffffffffffffff811115610f84575f80fd5b8201601f81018413610f94575f80fd5b8051610fa2610d5782610d13565b818152856020838501011115610fb6575f80fd5b610bff826020830160208601610e57565b5f60208284031215610fd7575f80fd5b5051919050565b5f60208284031215610fee575f80fd5b813567ffffffffffffffff80821115611005575f80fd5b908301906101208286031215611019575f80fd5b611021610c1c565b823561102c81610c76565b815261103b8660208501610c8d565b602082015260c0830135604082015260e0830135606082015261010083013582811115611066575f80fd5b61107287828601610d3a565b60808301525095945050505050565b5f61010061108f8388610ebd565b8560a08401528460c08401528060e08401526110ad81840185610e79565b979650505050505050565b5f600160ff1b82016110d857634e487b7160e01b5f52601160045260245ffd5b505f0390565b5f602082840312156110ee575f80fd5b81518015158114610eb6575f80fdfea26469706673582212203406a97e5f6b6f3b383fdb9d50b886be3ce2967e447cad76b5eaa221fb1fd3c964736f6c63430008180033","linkReferences":{}},"methodIdentifiers":{"donate((address,address,uint24,int24,address),uint256,uint256,bytes)":"234266d7","manager()":"481c6a75","unlockCallback(bytes)":"91dd7346"},"id":62}