{"abi":[{"type":"constructor","inputs":[{"name":"_manager","type":"address","internalType":"contract IPoolManager"}],"stateMutability":"nonpayable"},{"type":"function","name":"deposit","inputs":[{"name":"currency","type":"address","internalType":"Currency"},{"name":"user","type":"address","internalType":"address"},{"name":"amount","type":"uint256","internalType":"uint256"}],"outputs":[],"stateMutability":"payable"},{"type":"function","name":"manager","inputs":[],"outputs":[{"name":"","type":"address","internalType":"contract IPoolManager"}],"stateMutability":"view"},{"type":"function","name":"unlockCallback","inputs":[{"name":"rawData","type":"bytes","internalType":"bytes"}],"outputs":[{"name":"","type":"bytes","internalType":"bytes"}],"stateMutability":"nonpayable"},{"type":"function","name":"withdraw","inputs":[{"name":"currency","type":"address","internalType":"Currency"},{"name":"user","type":"address","internalType":"address"},{"name":"amount","type":"uint256","internalType":"uint256"}],"outputs":[],"stateMutability":"payable"}],"bytecode":{"object":"0x60a060405234801561000f575f80fd5b50604051610ba8380380610ba883398101604081905261002e9161003f565b6001600160a01b031660805261006c565b5f6020828403121561004f575f80fd5b81516001600160a01b0381168114610065575f80fd5b9392505050565b608051610af56100b35f395f818160530152818160e8015281816101ea0152818161023101528181610280015281816102d30152818161032201526103900152610af55ff3fe60806040526004361061003e575f3560e01c8063481c6a75146100425780638340f5491461009257806391dd7346146100a7578063d9caed12146100d3575b5f80fd5b34801561004d575f80fd5b506100757f000000000000000000000000000000000000000000000000000000000000000081565b6040516001600160a01b0390911681526020015b60405180910390f35b6100a56100a03660046107eb565b6100e6565b005b3480156100b2575f80fd5b506100c66100c1366004610829565b6101dd565b60405161008991906108b7565b6100a56100e13660046107eb565b61038e565b7f00000000000000000000000000000000000000000000000000000000000000006001600160a01b03166348c894916040518060a00160405280336001600160a01b03168152602001856001600160a01b03168152602001866001600160a01b031681526020018481526020016001151581525060405160200161016a91906108e9565b6040516020818303038152906040526040518263ffffffff1660e01b815260040161019591906108b7565b5f604051808303815f875af11580156101b0573d5f803e3d5ffd5b505050506040513d5f823e601f3d908101601f191682016040526101d79190810190610944565b50505050565b6060336001600160a01b037f00000000000000000000000000000000000000000000000000000000000000001614610213575f80fd5b5f610220838501856109f9565b90508060800151156102ce5761027b7f000000000000000000000000000000000000000000000000000000000000000082602001518360600151600185604001516001600160a01b031661041190949392919063ffffffff16565b6102c97f0000000000000000000000000000000000000000000000000000000000000000826020015183606001515f85604001516001600160a01b031661051290949392919063ffffffff16565b61036b565b61031d7f000000000000000000000000000000000000000000000000000000000000000082602001518360600151600185604001516001600160a01b031661051290949392919063ffffffff16565b61036b7f0000000000000000000000000000000000000000000000000000000000000000826020015183606001515f85604001516001600160a01b031661041190949392919063ffffffff16565b604080515f60208201520160405160208183030381529060405291505092915050565b7f00000000000000000000000000000000000000000000000000000000000000006001600160a01b03166348c894916040518060a00160405280336001600160a01b03168152602001856001600160a01b03168152602001866001600160a01b031681526020018481526020015f151581525060405160200161016a91906108e9565b8061048157604051630b0d9c0960e01b81526001600160a01b038681166004830152848116602483015260448201849052851690630b0d9c09906064015b5f604051808303815f87803b158015610466575f80fd5b505af1158015610478573d5f803e3d5ffd5b5050505061050b565b836001600160a01b031663156e29f6846104aa886001600160a01b03166001600160a01b031690565b6040516001600160e01b031960e085901b1681526001600160a01b0390921660048301526024820152604481018590526064015f604051808303815f87803b1580156104f4575f80fd5b505af1158015610506573d5f803e3d5ffd5b505050505b5050505050565b801561057957836001600160a01b031663f5298aca84610541886001600160a01b03166001600160a01b031690565b6040516001600160e01b031960e085901b1681526001600160a01b03909216600483015260248201526044810185905260640161044f565b6001600160a01b0385166105f957604051636a256b2960e01b81526001600160a01b038681166004830152851690636a256b2990849060240160206040518083038185885af11580156105ce573d5f803e3d5ffd5b50505050506040513d601f19601f820116820180604052508101906105f39190610a86565b5061050b565b604051632961046560e21b81526001600160a01b03868116600483015285169063a5841194906024016020604051808303815f875af115801561063e573d5f803e3d5ffd5b505050506040513d601f19601f820116820180604052508101906106629190610a86565b506001600160a01b03831630146106f1576040516323b872dd60e01b81526001600160a01b0384811660048301528581166024830152604482018490528616906323b872dd906064016020604051808303815f875af11580156106c7573d5f803e3d5ffd5b505050506040513d601f19601f820116820180604052508101906106eb9190610a9d565b50610763565b60405163a9059cbb60e01b81526001600160a01b0385811660048301526024820184905286169063a9059cbb906044016020604051808303815f875af115801561073d573d5f803e3d5ffd5b505050506040513d601f19601f820116820180604052508101906107619190610a9d565b505b604051636a256b2960e01b81526001600160a01b038681166004830152851690636a256b29906024016020604051808303815f875af11580156107a8573d5f803e3d5ffd5b505050506040513d601f19601f820116820180604052508101906107cc9190610a86565b505050505050565b6001600160a01b03811681146107e8575f80fd5b50565b5f805f606084860312156107fd575f80fd5b8335610808816107d4565b92506020840135610818816107d4565b929592945050506040919091013590565b5f806020838503121561083a575f80fd5b823567ffffffffffffffff80821115610851575f80fd5b818501915085601f830112610864575f80fd5b813581811115610872575f80fd5b866020828501011115610883575f80fd5b60209290920196919550909350505050565b5f5b838110156108af578181015183820152602001610897565b50505f910152565b602081525f82518060208401526108d5816040850160208701610895565b601f01601f19169190910160400192915050565b81516001600160a01b039081168252602080840151821690830152604080840151909116908201526060808301519082015260809182015115159181019190915260a00190565b634e487b7160e01b5f52604160045260245ffd5b5f60208284031215610954575f80fd5b815167ffffffffffffffff8082111561096b575f80fd5b818401915084601f83011261097e575f80fd5b81518181111561099057610990610930565b604051601f8201601f19908116603f011681019083821181831017156109b8576109b8610930565b816040528281528760208487010111156109d0575f80fd5b6109e1836020830160208801610895565b979650505050505050565b80151581146107e8575f80fd5b5f60a08284031215610a09575f80fd5b60405160a0810181811067ffffffffffffffff82111715610a2c57610a2c610930565b6040528235610a3a816107d4565b81526020830135610a4a816107d4565b60208201526040830135610a5d816107d4565b6040820152606083810135908201526080830135610a7a816109ec565b60808201529392505050565b5f60208284031215610a96575f80fd5b5051919050565b5f60208284031215610aad575f80fd5b8151610ab8816109ec565b939250505056fea2646970667358221220db263cc5a72884d7a6bc1e984f29e117ed809d35cc3b75b30f2cf782aaaf94c364736f6c63430008180033","linkReferences":{}},"methodIdentifiers":{"deposit(address,address,uint256)":"8340f549","manager()":"481c6a75","unlockCallback(bytes)":"91dd7346","withdraw(address,address,uint256)":"d9caed12"},"id":61}