{"abi":[{"type":"constructor","inputs":[{"name":"controllerGasLimit","type":"uint256","internalType":"uint256"}],"stateMutability":"nonpayable"},{"type":"function","name":"MAX_TICK_SPACING","inputs":[],"outputs":[{"name":"","type":"int24","internalType":"int24"}],"stateMutability":"view"},{"type":"function","name":"MIN_TICK_SPACING","inputs":[],"outputs":[{"name":"","type":"int24","internalType":"int24"}],"stateMutability":"view"},{"type":"function","name":"allowance","inputs":[{"name":"","type":"address","internalType":"address"},{"name":"","type":"address","internalType":"address"},{"name":"","type":"uint256","internalType":"uint256"}],"outputs":[{"name":"","type":"uint256","internalType":"uint256"}],"stateMutability":"view"},{"type":"function","name":"approve","inputs":[{"name":"spender","type":"address","internalType":"address"},{"name":"id","type":"uint256","internalType":"uint256"},{"name":"amount","type":"uint256","internalType":"uint256"}],"outputs":[{"name":"","type":"bool","internalType":"bool"}],"stateMutability":"nonpayable"},{"type":"function","name":"balanceOf","inputs":[{"name":"","type":"address","internalType":"address"},{"name":"","type":"uint256","internalType":"uint256"}],"outputs":[{"name":"","type":"uint256","internalType":"uint256"}],"stateMutability":"view"},{"type":"function","name":"burn","inputs":[{"name":"from","type":"address","internalType":"address"},{"name":"id","type":"uint256","internalType":"uint256"},{"name":"amount","type":"uint256","internalType":"uint256"}],"outputs":[],"stateMutability":"nonpayable"},{"type":"function","name":"collectProtocolFees","inputs":[{"name":"recipient","type":"address","internalType":"address"},{"name":"currency","type":"address","internalType":"Currency"},{"name":"amount","type":"uint256","internalType":"uint256"}],"outputs":[{"name":"amountCollected","type":"uint256","internalType":"uint256"}],"stateMutability":"nonpayable"},{"type":"function","name":"donate","inputs":[{"name":"key","type":"tuple","internalType":"struct PoolKey","components":[{"name":"currency0","type":"address","internalType":"Currency"},{"name":"currency1","type":"address","internalType":"Currency"},{"name":"fee","type":"uint24","internalType":"uint24"},{"name":"tickSpacing","type":"int24","internalType":"int24"},{"name":"hooks","type":"address","internalType":"contract IHooks"}]},{"name":"amount0","type":"uint256","internalType":"uint256"},{"name":"amount1","type":"uint256","internalType":"uint256"},{"name":"hookData","type":"bytes","internalType":"bytes"}],"outputs":[{"name":"delta","type":"int256","internalType":"BalanceDelta"}],"stateMutability":"nonpayable"},{"type":"function","name":"extsload","inputs":[{"name":"slot","type":"bytes32","internalType":"bytes32"}],"outputs":[{"name":"value","type":"bytes32","internalType":"bytes32"}],"stateMutability":"view"},{"type":"function","name":"extsload","inputs":[{"name":"startSlot","type":"bytes32","internalType":"bytes32"},{"name":"nSlots","type":"uint256","internalType":"uint256"}],"outputs":[{"name":"","type":"bytes","internalType":"bytes"}],"stateMutability":"view"},{"type":"function","name":"extsload","inputs":[{"name":"slots","type":"bytes32[]","internalType":"bytes32[]"}],"outputs":[{"name":"","type":"bytes32[]","internalType":"bytes32[]"}],"stateMutability":"view"},{"type":"function","name":"exttload","inputs":[{"name":"slots","type":"bytes32[]","internalType":"bytes32[]"}],"outputs":[{"name":"","type":"bytes32[]","internalType":"bytes32[]"}],"stateMutability":"view"},{"type":"function","name":"exttload","inputs":[{"name":"slot","type":"bytes32","internalType":"bytes32"}],"outputs":[{"name":"value","type":"bytes32","internalType":"bytes32"}],"stateMutability":"view"},{"type":"function","name":"initialize","inputs":[{"name":"key","type":"tuple","internalType":"struct PoolKey","components":[{"name":"currency0","type":"address","internalType":"Currency"},{"name":"currency1","type":"address","internalType":"Currency"},{"name":"fee","type":"uint24","internalType":"uint24"},{"name":"tickSpacing","type":"int24","internalType":"int24"},{"name":"hooks","type":"address","internalType":"contract IHooks"}]},{"name":"sqrtPriceX96","type":"uint160","internalType":"uint160"},{"name":"hookData","type":"bytes","internalType":"bytes"}],"outputs":[{"name":"tick","type":"int24","internalType":"int24"}],"stateMutability":"nonpayable"},{"type":"function","name":"isOperator","inputs":[{"name":"","type":"address","internalType":"address"},{"name":"","type":"address","internalType":"address"}],"outputs":[{"name":"","type":"bool","internalType":"bool"}],"stateMutability":"view"},{"type":"function","name":"mint","inputs":[{"name":"to","type":"address","internalType":"address"},{"name":"id","type":"uint256","internalType":"uint256"},{"name":"amount","type":"uint256","internalType":"uint256"}],"outputs":[],"stateMutability":"nonpayable"},{"type":"function","name":"modifyLiquidity","inputs":[{"name":"key","type":"tuple","internalType":"struct PoolKey","components":[{"name":"currency0","type":"address","internalType":"Currency"},{"name":"currency1","type":"address","internalType":"Currency"},{"name":"fee","type":"uint24","internalType":"uint24"},{"name":"tickSpacing","type":"int24","internalType":"int24"},{"name":"hooks","type":"address","internalType":"contract IHooks"}]},{"name":"params","type":"tuple","internalType":"struct IPoolManager.ModifyLiquidityParams","components":[{"name":"tickLower","type":"int24","internalType":"int24"},{"name":"tickUpper","type":"int24","internalType":"int24"},{"name":"liquidityDelta","type":"int256","internalType":"int256"},{"name":"salt","type":"bytes32","internalType":"bytes32"}]},{"name":"hookData","type":"bytes","internalType":"bytes"}],"outputs":[{"name":"callerDelta","type":"int256","internalType":"BalanceDelta"},{"name":"feesAccrued","type":"int256","internalType":"BalanceDelta"}],"stateMutability":"nonpayable"},{"type":"function","name":"owner","inputs":[],"outputs":[{"name":"","type":"address","internalType":"address"}],"stateMutability":"view"},{"type":"function","name":"protocolFeeController","inputs":[],"outputs":[{"name":"","type":"address","internalType":"contract IProtocolFeeController"}],"stateMutability":"view"},{"type":"function","name":"protocolFeesAccrued","inputs":[{"name":"currency","type":"address","internalType":"Currency"}],"outputs":[{"name":"","type":"uint256","internalType":"uint256"}],"stateMutability":"view"},{"type":"function","name":"setOperator","inputs":[{"name":"operator","type":"address","internalType":"address"},{"name":"approved","type":"bool","internalType":"bool"}],"outputs":[{"name":"","type":"bool","internalType":"bool"}],"stateMutability":"nonpayable"},{"type":"function","name":"setProtocolFee","inputs":[{"name":"key","type":"tuple","internalType":"struct PoolKey","components":[{"name":"currency0","type":"address","internalType":"Currency"},{"name":"currency1","type":"address","internalType":"Currency"},{"name":"fee","type":"uint24","internalType":"uint24"},{"name":"tickSpacing","type":"int24","internalType":"int24"},{"name":"hooks","type":"address","internalType":"contract IHooks"}]},{"name":"newProtocolFee","type":"uint24","internalType":"uint24"}],"outputs":[],"stateMutability":"nonpayable"},{"type":"function","name":"setProtocolFeeController","inputs":[{"name":"controller","type":"address","internalType":"contract IProtocolFeeController"}],"outputs":[],"stateMutability":"nonpayable"},{"type":"function","name":"settle","inputs":[{"name":"currency","type":"address","internalType":"Currency"}],"outputs":[{"name":"paid","type":"uint256","internalType":"uint256"}],"stateMutability":"payable"},{"type":"function","name":"supportsInterface","inputs":[{"name":"interfaceId","type":"bytes4","internalType":"bytes4"}],"outputs":[{"name":"","type":"bool","internalType":"bool"}],"stateMutability":"view"},{"type":"function","name":"swap","inputs":[{"name":"key","type":"tuple","internalType":"struct PoolKey","components":[{"name":"currency0","type":"address","internalType":"Currency"},{"name":"currency1","type":"address","internalType":"Currency"},{"name":"fee","type":"uint24","internalType":"uint24"},{"name":"tickSpacing","type":"int24","internalType":"int24"},{"name":"hooks","type":"address","internalType":"contract IHooks"}]},{"name":"params","type":"tuple","internalType":"struct IPoolManager.SwapParams","components":[{"name":"zeroForOne","type":"bool","internalType":"bool"},{"name":"amountSpecified","type":"int256","internalType":"int256"},{"name":"sqrtPriceLimitX96","type":"uint160","internalType":"uint160"}]},{"name":"hookData","type":"bytes","internalType":"bytes"}],"outputs":[{"name":"swapDelta","type":"int256","internalType":"BalanceDelta"}],"stateMutability":"nonpayable"},{"type":"function","name":"sync","inputs":[{"name":"currency","type":"address","internalType":"Currency"}],"outputs":[{"name":"balance","type":"uint256","internalType":"uint256"}],"stateMutability":"nonpayable"},{"type":"function","name":"take","inputs":[{"name":"currency","type":"address","internalType":"Currency"},{"name":"to","type":"address","internalType":"address"},{"name":"amount","type":"uint256","internalType":"uint256"}],"outputs":[],"stateMutability":"nonpayable"},{"type":"function","name":"transfer","inputs":[{"name":"receiver","type":"address","internalType":"address"},{"name":"id","type":"uint256","internalType":"uint256"},{"name":"amount","type":"uint256","internalType":"uint256"}],"outputs":[{"name":"","type":"bool","internalType":"bool"}],"stateMutability":"nonpayable"},{"type":"function","name":"transferFrom","inputs":[{"name":"sender","type":"address","internalType":"address"},{"name":"receiver","type":"address","internalType":"address"},{"name":"id","type":"uint256","internalType":"uint256"},{"name":"amount","type":"uint256","internalType":"uint256"}],"outputs":[{"name":"","type":"bool","internalType":"bool"}],"stateMutability":"nonpayable"},{"type":"function","name":"transferOwnership","inputs":[{"name":"newOwner","type":"address","internalType":"address"}],"outputs":[],"stateMutability":"nonpayable"},{"type":"function","name":"unlock","inputs":[{"name":"data","type":"bytes","internalType":"bytes"}],"outputs":[{"name":"result","type":"bytes","internalType":"bytes"}],"stateMutability":"nonpayable"},{"type":"function","name":"updateDynamicLPFee","inputs":[{"name":"key","type":"tuple","internalType":"struct PoolKey","components":[{"name":"currency0","type":"address","internalType":"Currency"},{"name":"currency1","type":"address","internalType":"Currency"},{"name":"fee","type":"uint24","internalType":"uint24"},{"name":"tickSpacing","type":"int24","internalType":"int24"},{"name":"hooks","type":"address","internalType":"contract IHooks"}]},{"name":"newDynamicLPFee","type":"uint24","internalType":"uint24"}],"outputs":[],"stateMutability":"nonpayable"},{"type":"event","name":"Approval","inputs":[{"name":"owner","type":"address","indexed":true,"internalType":"address"},{"name":"spender","type":"address","indexed":true,"internalType":"address"},{"name":"id","type":"uint256","indexed":true,"internalType":"uint256"},{"name":"amount","type":"uint256","indexed":false,"internalType":"uint256"}],"anonymous":false},{"type":"event","name":"Initialize","inputs":[{"name":"id","type":"bytes32","indexed":false,"internalType":"PoolId"},{"name":"currency0","type":"address","indexed":true,"internalType":"Currency"},{"name":"currency1","type":"address","indexed":true,"internalType":"Currency"},{"name":"fee","type":"uint24","indexed":false,"internalType":"uint24"},{"name":"tickSpacing","type":"int24","indexed":false,"internalType":"int24"},{"name":"hooks","type":"address","indexed":false,"internalType":"contract IHooks"}],"anonymous":false},{"type":"event","name":"ModifyLiquidity","inputs":[{"name":"id","type":"bytes32","indexed":true,"internalType":"PoolId"},{"name":"sender","type":"address","indexed":true,"internalType":"address"},{"name":"tickLower","type":"int24","indexed":false,"internalType":"int24"},{"name":"tickUpper","type":"int24","indexed":false,"internalType":"int24"},{"name":"liquidityDelta","type":"int256","indexed":false,"internalType":"int256"}],"anonymous":false},{"type":"event","name":"OperatorSet","inputs":[{"name":"owner","type":"address","indexed":true,"internalType":"address"},{"name":"operator","type":"address","indexed":true,"internalType":"address"},{"name":"approved","type":"bool","indexed":false,"internalType":"bool"}],"anonymous":false},{"type":"event","name":"OwnershipTransferred","inputs":[{"name":"user","type":"address","indexed":true,"internalType":"address"},{"name":"newOwner","type":"address","indexed":true,"internalType":"address"}],"anonymous":false},{"type":"event","name":"ProtocolFeeControllerUpdated","inputs":[{"name":"protocolFeeController","type":"address","indexed":false,"internalType":"address"}],"anonymous":false},{"type":"event","name":"ProtocolFeeUpdated","inputs":[{"name":"id","type":"bytes32","indexed":true,"internalType":"PoolId"},{"name":"protocolFee","type":"uint24","indexed":false,"internalType":"uint24"}],"anonymous":false},{"type":"event","name":"Swap","inputs":[{"name":"id","type":"bytes32","indexed":true,"internalType":"PoolId"},{"name":"sender","type":"address","indexed":false,"internalType":"address"},{"name":"amount0","type":"int128","indexed":false,"internalType":"int128"},{"name":"amount1","type":"int128","indexed":false,"internalType":"int128"},{"name":"sqrtPriceX96","type":"uint160","indexed":false,"internalType":"uint160"},{"name":"liquidity","type":"uint128","indexed":false,"internalType":"uint128"},{"name":"tick","type":"int24","indexed":false,"internalType":"int24"},{"name":"fee","type":"uint24","indexed":false,"internalType":"uint24"}],"anonymous":false},{"type":"event","name":"Transfer","inputs":[{"name":"caller","type":"address","indexed":false,"internalType":"address"},{"name":"from","type":"address","indexed":true,"internalType":"address"},{"name":"to","type":"address","indexed":true,"internalType":"address"},{"name":"id","type":"uint256","indexed":true,"internalType":"uint256"},{"name":"amount","type":"uint256","indexed":false,"internalType":"uint256"}],"anonymous":false},{"type":"error","name":"AlreadyUnlocked","inputs":[]},{"type":"error","name":"CannotUpdateEmptyPosition","inputs":[]},{"type":"error","name":"CurrenciesOutOfOrderOrEqual","inputs":[]},{"type":"error","name":"CurrencyNotSettled","inputs":[]},{"type":"error","name":"DelegateCallNotAllowed","inputs":[]},{"type":"error","name":"ERC20TransferFailed","inputs":[]},{"type":"error","name":"FailedHookCall","inputs":[]},{"type":"error","name":"FeeTooLarge","inputs":[]},{"type":"error","name":"HookAddressNotValid","inputs":[{"name":"hooks","type":"address","internalType":"address"}]},{"type":"error","name":"HookDeltaExceedsSwapAmount","inputs":[]},{"type":"error","name":"InvalidCaller","inputs":[]},{"type":"error","name":"InvalidFeeForExactOut","inputs":[]},{"type":"error","name":"InvalidHookResponse","inputs":[]},{"type":"error","name":"InvalidPrice","inputs":[]},{"type":"error","name":"InvalidPriceOrLiquidity","inputs":[]},{"type":"error","name":"InvalidProtocolFee","inputs":[]},{"type":"error","name":"ManagerLocked","inputs":[]},{"type":"error","name":"NativeTransferFailed","inputs":[]},{"type":"error","name":"NoLiquidityToReceiveFees","inputs":[]},{"type":"error","name":"NonZeroNativeValue","inputs":[]},{"type":"error","name":"NotEnoughLiquidity","inputs":[]},{"type":"error","name":"PoolAlreadyInitialized","inputs":[]},{"type":"error","name":"PoolNotInitialized","inputs":[]},{"type":"error","name":"PoolNotInitialized","inputs":[]},{"type":"error","name":"PriceLimitAlreadyExceeded","inputs":[{"name":"sqrtPriceCurrentX96","type":"uint160","internalType":"uint160"},{"name":"sqrtPriceLimitX96","type":"uint160","internalType":"uint160"}]},{"type":"error","name":"PriceLimitOutOfBounds","inputs":[{"name":"sqrtPriceLimitX96","type":"uint160","internalType":"uint160"}]},{"type":"error","name":"PriceOverflow","inputs":[]},{"type":"error","name":"ProtocolFeeCannotBeFetched","inputs":[]},{"type":"error","name":"ReservesMustBeSynced","inputs":[]},{"type":"error","name":"SwapAmountCannotBeZero","inputs":[]},{"type":"error","name":"TickLiquidityOverflow","inputs":[{"name":"tick","type":"int24","internalType":"int24"}]},{"type":"error","name":"TickLowerOutOfBounds","inputs":[{"name":"tickLower","type":"int24","internalType":"int24"}]},{"type":"error","name":"TickSpacingTooLarge","inputs":[]},{"type":"error","name":"TickSpacingTooSmall","inputs":[]},{"type":"error","name":"TickUpperOutOfBounds","inputs":[{"name":"tickUpper","type":"int24","internalType":"int24"}]},{"type":"error","name":"TicksMisordered","inputs":[{"name":"tickLower","type":"int24","internalType":"int24"},{"name":"tickUpper","type":"int24","internalType":"int24"}]},{"type":"error","name":"UnauthorizedDynamicLPFeeUpdate","inputs":[]}],"bytecode":{"object":"0x60c060405234801562000010575f80fd5b506040516200505838038062005058833981016040819052620000339162000081565b5f80546001600160a01b031916339081178255604051839282917f8be0079c531659141344cd1fd0a4f28419497f9722a3daafe3b4186f6b6457e0908290a350608052503060a05262000099565b5f6020828403121562000092575f80fd5b5051919050565b60805160a051614f96620000c25f395f61191401525f81816120d901526121300152614f965ff3fe6080604052600436106101e5575f3560e01c806360460f0611610108578063a58411941161009d578063f135baaa1161006d578063f135baaa14610603578063f2fde38b14610621578063f3cd914c14610640578063f5298aca1461065f578063fe99049a1461067e575f80fd5b8063a58411941461056d578063b6363cf21461058c578063dbd035ff146105c5578063f02de3b2146105e4575f80fd5b80638161b874116100d85780638161b874146104c15780638da5cb5b146104e057806397e8cd4e146105165780639bf6645f14610541575f80fd5b806360460f061461045b578063695c5bf5146104705780636a256b291461048f5780637e87ce7d146104a2575f80fd5b80632d7713891161017e578063527596511161014e57806352759651146103ad578063558a7297146103cc578063598af9e7146103eb5780635a6bcfda14610427575f80fd5b80632d7713891461032457806335fd631a14610343578063426a84931461036f57806348c894911461038e575f80fd5b80630b0d9c09116101b95780630b0d9c09146102a7578063156e29f6146102c85780631e2eaeaf146102e7578063234266d714610305575f80fd5b8062fdd58e146101e957806301ffc9a71461023257806307eff0dd14610261578063095bcdb614610288575b5f80fd5b3480156101f4575f80fd5b5061021f6102033660046143ef565b600460209081525f928352604080842090915290825290205481565b6040519081526020015b60405180910390f35b34801561023d575f80fd5b5061025161024c366004614419565b61069d565b6040519015158152602001610229565b34801561026c575f80fd5b50610275600181565b60405160029190910b8152602001610229565b348015610293575f80fd5b506102516102a2366004614440565b6106d3565b3480156102b2575f80fd5b506102c66102c1366004614472565b61077a565b005b3480156102d3575f80fd5b506102c66102e2366004614440565b6107d4565b3480156102f2575f80fd5b5061021f6103013660046144b0565b5490565b348015610310575f80fd5b5061021f61031f3660046145ff565b610818565b34801561032f575f80fd5b506102c661033e366004614663565b6108b9565b34801561034e575f80fd5b5061036261035d36600461467e565b61095a565b60405161022991906146c0565b34801561037a575f80fd5b50610251610389366004614440565b6109d7565b348015610399575f80fd5b506103626103a83660046146f2565b610a3b565b3480156103b8575f80fd5b506102c66103c7366004614730565b610b2b565b3480156103d7575f80fd5b506102516103e6366004614771565b610b9e565b3480156103f6575f80fd5b5061021f610405366004614472565b600560209081525f938452604080852082529284528284209052825290205481565b348015610432575f80fd5b5061044661044136600461479b565b610c0d565b60408051928352602083019190915201610229565b348015610466575f80fd5b50610275617fff81565b34801561047b575f80fd5b5061027561048a36600461483d565b610da1565b61021f61049d366004614663565b610f98565b3480156104ad575f80fd5b506102c66104bc366004614730565b611041565b3480156104cc575f80fd5b5061021f6104db366004614472565b6110ff565b3480156104eb575f80fd5b505f546104fe906001600160a01b031681565b6040516001600160a01b039091168152602001610229565b348015610521575f80fd5b5061021f610530366004614663565b60016020525f908152604090205481565b34801561054c575f80fd5b5061056061055b366004614884565b611197565b60405161022991906148f2565b348015610578575f80fd5b5061021f610587366004614663565b6111c6565b348015610597575f80fd5b506102516105a6366004614935565b600360209081525f928352604080842090915290825290205460ff1681565b3480156105d0575f80fd5b506105606105df366004614884565b6111ee565b3480156105ef575f80fd5b506002546104fe906001600160a01b031681565b34801561060e575f80fd5b5061021f61061d3660046144b0565b5c90565b34801561062c575f80fd5b506102c661063b366004614663565b61121c565b34801561064b575f80fd5b5061021f61065a36600461496c565b6112ae565b34801561066a575f80fd5b506102c6610679366004614440565b6113e9565b348015610689575f80fd5b50610251610698366004614a19565b61142d565b5f6301ffc9a760e01b6001600160e01b0319831614806106cd5750630f632fb360e01b6001600160e01b03198316145b92915050565b335f9081526004602090815260408083208584529091528120805483919083906106fe908490614a70565b90915550506001600160a01b0384165f90815260046020908152604080832086845290915281208054849290610735908490614a83565b909155505060408051338082526020820185905285926001600160a01b038816925f80516020614f2183398151915291015b60405180910390a45060015b9392505050565b5f80516020614f418339815191525c6107a6576040516354e3ca0d60e01b815260040160405180910390fd5b6107bb836107b38361158c565b5f03336115a4565b6107cf6001600160a01b0384168383611618565b505050565b5f80516020614f418339815191525c610800576040516354e3ca0d60e01b815260040160405180910390fd5b61080d826107b38361158c565b6107cf8383836116b0565b5f5f80516020614f418339815191525c610845576040516354e3ca0d60e01b815260040160405180910390fd5b60a0862061085281611722565b608087015161086e906001600160a01b03168888888888611759565b5f8181526006602052604090206108869087876117e6565b91506108938783336118a1565b60808701516108af906001600160a01b031688888888886118c9565b5095945050505050565b5f546001600160a01b031633146109065760405162461bcd60e51b815260206004820152600c60248201526b15539055551213d49256915160a21b60448201526064015b60405180910390fd5b600280546001600160a01b0319166001600160a01b0383169081179091556040519081527fb4bd8ef53df690b9943d3318996006dbb82a25f54719d8c8035b516a2a5b8acc9060200160405180910390a150565b60605f610968836020614a96565b6001600160401b0381111561097f5761097f6144c7565b6040519080825280601f01601f1916602001820160405280156109a9576020820181803683370190505b5090505f5b838110156109cf5780850154602060018301028301526001810190506109ae565b509392505050565b335f8181526005602090815260408083206001600160a01b03881680855290835281842087855290925280832085905551919285927fb3fd5071835887567a0671151121894ddccc2842f1d10bedad13e0d17cace9a7906107679087815260200190565b6060610a45611909565b5f80516020614f418339815191525c15610a72576040516328486b6360e11b815260040160405180910390fd5b610a7a611954565b6040516348eeb9a360e11b815233906391dd734690610a9f9086908690600401614ad5565b5f604051808303815f875af1158015610aba573d5f803e3d5ffd5b505050506040513d5f823e601f3d908101601f19168201604052610ae19190810190614ae8565b90507f7d4b3164c6e45b97e7d87b7125a44c5828d005af88f9d751cfd78729c5d99a0b5c15610b2357604051635212cba160e01b815260040160405180910390fd5b6106cd611969565b604082015162800000161580610b57575081608001516001600160a01b0316336001600160a01b031614155b15610b75576040516330d2164160e01b815260040160405180910390fd5b610b838162ffffff1661197d565b60a082205f8181526006602052604090206107cf90836119a6565b335f8181526003602090815260408083206001600160a01b038716808552908352818420805460ff191687151590811790915591519182529293917fceb576d9f15e4e200fdb5096d64d5dfd667e16def20c1eefd14256d8e3faa267910160405180910390a350600192915050565b5f805f80516020614f418339815191525c610c3b576040516354e3ca0d60e01b815260040160405180910390fd5b60a08620610c4881611722565b6080870151610c63906001600160a01b0316888888886119e0565b5f610cd86040518060c00160405280336001600160a01b03168152602001895f015160020b8152602001896020015160020b8152602001610ca78a60400151611ac0565b600f0b81526060808c015160020b602080840191909152908b01516040928301525f86815260069091522090611adb565b93509050610ce68184611e34565b9350336001600160a01b0316827f541c041c2cce48e614b3de043c9280f06b6164c0a1741649e2de3c3d375f7974895f01518a602001518b60400151604051610d4a93929190600293840b81529190920b6020820152604081019190915260600190565b60405180910390a360808801515f90610d70906001600160a01b03168a8a888b8b611e67565b90955090508015610d8a57610d8a89828b608001516118a1565b610d958986336118a1565b50505094509492505050565b5f610daa611909565b6060850151617fff60029190910b1315610dd757604051635815aee160e11b815260040160405180910390fd5b600160020b856060015160020b1215610e0357604051630b7f3b4b60e11b815260040160405180910390fd5b845160208601516001600160a01b03908116911610610e355760405163eaa6c6eb60e01b815260040160405180910390fd5b610e59856040015186608001516001600160a01b0316611fa990919063ffffffff16565b610e87576080850151604051630732d7b560e51b81526001600160a01b0390911660048201526024016108fd565b5f610e9a866040015162ffffff16612062565b6080870151909150610eb8906001600160a01b031687878787612083565b60a086205f610ec6886120c2565b5f848152600660205260409020909250610ee3915088838661224f565b6080890151909450610f02906001600160a01b03168989878a8a6122b7565b87602001516001600160a01b0316885f01516001600160a01b03167f3fd553db44f207b1f41348cfc4d251860814af9eadc470e8e7895e4d120511f4848b604001518c606001518d60800151604051610f85949392919093845262ffffff92909216602084015260020b60408301526001600160a01b0316606082015260800190565b60405180910390a3505050949350505050565b5f5f80516020614f418339815191525c610fc5576040516354e3ca0d60e01b815260040160405180910390fd5b6001600160a01b038216610fda575034611029565b3415610ff9576040516319d245cf60e01b815260040160405180910390fd5b5f61100c836001600160a01b03166122f8565b90505f611018846111c6565b90506110248282614a70565b925050505b61103c826110368361158c565b336115a4565b919050565b6002546001600160a01b0316331461106c576040516348f5c3ed60e01b815260040160405180910390fd5b6103e9610fff821610623e900062ffffff8316101661109e57604051631752ff0760e31b815260040160405180910390fd5b60a082206110c0826110ba835f90815260066020526040902090565b9061235b565b60405162ffffff8316815281907fe9c42593e71f84403b84352cd168d693e2c9fcd1fdbcc3feb21d92b43e6696f99060200160405180910390a2505050565b6002545f906001600160a01b0316331461112c576040516348f5c3ed60e01b815260040160405180910390fd5b81156111385781611151565b6001600160a01b0383165f908152600160205260409020545b6001600160a01b0384165f9081526001602052604081208054929350839290919061117d908490614a70565b9091555061077390506001600160a01b0384168583611618565b606060205f52816020528160051b6040016040845b80355c8252602091820191018282106111ac575b5050805ff35b5f6111d9826001600160a01b031661238f565b905061103c6001600160a01b0383168261240b565b606060205f52816020528160051b6040016040845b803554825260209182019101828210156111c057611203565b5f546001600160a01b031633146112645760405162461bcd60e51b815260206004820152600c60248201526b15539055551213d49256915160a21b60448201526064016108fd565b5f80546001600160a01b0319166001600160a01b0383169081178255604051909133917f8be0079c531659141344cd1fd0a4f28419497f9722a3daafe3b4186f6b6457e09190a350565b5f5f80516020614f418339815191525c6112db576040516354e3ca0d60e01b815260040160405180910390fd5b83602001515f036112ff5760405163be8b850760e01b815260040160405180910390fd5b60a0852061130c81611722565b60808601515f908190819061132d906001600160a01b03168a8a8a8a61244c565b6040805160a0810182526060808f015160020b82528d5115156020830152818301869052918d01516001600160a01b03169181019190915262ffffff821660808201528b51929650929450925061139591869161138e578b60200151612565565b8b51612565565b60808a01519095505f92506113b991506001600160a01b03168989878a8a8861266e565b909450905080156113d3576113d388828a608001516118a1565b6113de8885336118a1565b505050949350505050565b5f80516020614f418339815191525c611415576040516354e3ca0d60e01b815260040160405180910390fd5b611422826110368361158c565b6107cf8383836127a2565b5f336001600160a01b0386161480159061146a57506001600160a01b0385165f90815260036020908152604080832033845290915290205460ff16155b156114da576001600160a01b0385165f90815260056020908152604080832033845282528083208684529091529020545f1981146114d8576114ac8382614a70565b6001600160a01b0387165f90815260056020908152604080832033845282528083208884529091529020555b505b6001600160a01b0385165f9081526004602090815260408083208684529091528120805484929061150c908490614a70565b90915550506001600160a01b0384165f90815260046020908152604080832086845290915281208054849290611543908490614a83565b9091555050604080513381526020810184905284916001600160a01b0380881692908916915f80516020614f21833981519152910160405180910390a45060015b949350505050565b5f6001607f1b82106115a0576115a0612860565b5090565b81600f0b5f036115b357505050565b5f8181526001600160a01b038416602052604081205c906115d8600f85900b83614b84565b9050805f036115ee576115e961286d565b6115fd565b815f036115fd576115fd61289a565b6116116001600160a01b03861684836128c7565b5050505050565b5f6001600160a01b038416611654575f805f8085875af190508061164f57604051633d2cec6f60e21b815260040160405180910390fd5b6116aa565b60405163a9059cbb60e01b5f52836004528260245260205f60445f80895af13d15601f3d1160015f511416171691505f6060528060405250806116aa57604051633c9fd93960e21b815260040160405180910390fd5b50505050565b6001600160a01b0383165f908152600460209081526040808320858452909152812080548392906116e2908490614a83565b9091555050604080513381526020810183905283916001600160a01b038616915f915f80516020614f2183398151915291015b60405180910390a4505050565b5f818152600660205260409020546001600160a01b03166117565760405163486aa30760e01b815260040160405180910390fd5b50565b85336001600160a01b038216146117dd5760208716156117dd576117db63b6a8b0fa60e01b33888888888860405160240161179996959493929190614bee565b60408051601f198184030181529190526020810180516001600160e01b03166001600160e01b0319909316929092179091526001600160a01b038916906128dd565b505b50505050505050565b60038301545f906001600160801b03168082036118165760405163a74f97ab60e01b815260040160405180910390fd5b6118446118228561158c565b5f0361182d8561158c565b5f0360809190911b6001600160801b039091161790565b915083156118705761186484600160801b836001600160801b0316612992565b60018601805490910190555b82156109cf5761188e83600160801b836001600160801b0316612992565b6002860180549091019055509392505050565b82516118b7906118b18460801d90565b836115a4565b6107cf83602001516118b184600f0b90565b85336001600160a01b038216146117dd5760108716156117dd576117db63e1b4af6960e01b33888888888860405160240161179996959493929190614bee565b306001600160a01b037f00000000000000000000000000000000000000000000000000000000000000001614611952576040516306c4a1c760e11b815260040160405180910390fd5b565b5f80516020614f418339815191526001815d50565b5f80516020614f418339815191525f815d50565b620f424062ffffff8216111561175657604051637e2df70960e11b815260040160405180910390fd5b81546001600160a01b03166119ce5760405163486aa30760e01b815260040160405180910390fd5b81546119da9082612a2e565b90915550565b84336001600160a01b03821614611ab8575f8460400151138015611a075750610800861615155b15611a7857611a7263259982e560e01b3387878787604051602401611a30959493929190614c2b565b60408051601f198184030181529190526020810180516001600160e01b03166001600160e01b0319909316929092179091526001600160a01b038816906128dd565b50611ab8565b5f846040015113158015611a8f5750610200861615155b15611ab8576117dd6321d0ee7060e01b3387878787604051602401611a30959493929190614c2b565b505050505050565b5f6001607f1b820160801c611ad3575090565b61103c612860565b6060810151602082015160408301515f9283929091611afa8282612a49565b604080516080810182525f80825260208201819052918101829052606081019190915283600f0b5f14611c3957611b338884865f612ade565b6001600160801b0316602083015215158152611b528883866001612ade565b6001600160801b03166060830152151560408201525f600f85900b12611bfe575f611b808860800151612b8f565b9050806001600160801b031682602001516001600160801b03161115611bbf5760405163b8e3c38560e01b8152600285900b60048201526024016108fd565b806001600160801b031682606001516001600160801b03161115611bfc5760405163b8e3c38560e01b8152600284900b60048201526024016108fd565b505b805115611c1a576080870151611c1a9060058a01908590612bbf565b806040015115611c39576080870151611c399060058a01908490612bbf565b5f80611c468a8686612c01565b8a5160a08c01516026908152600688815260038a90525f928352603a600c20918390529082528d016020526040812092945090925080611c88838a8787612cb5565b91509150611cb4611c988361158c565b611ca18361158c565b6001600160801b031660809190911b1790565b995050505050505f84600f0b1215611d1d57805115611cf057600283810b5f90815260048a016020526040812081815560018101829055909101555b806040015115611d1d57600282810b5f90815260048a016020526040812081815560018101829055909101555b5082600f0b5f14611e2a5786545f80611d398360a01c60020b90565b6001600160a01b038416915091508460020b8260020b1215611d8857611d81611d7b611d76611d6788612d77565b611d7088612d77565b8a613028565b611ac0565b60801b90565b9750611e26565b8360020b8260020b1215611e0157611dbf611da9611d7683611d7088612d77565b611ca1611d76611db889612d77565b858b613060565b60038b0154909850611dda906001600160801b03168761308c565b60038b0180546001600160801b0319166001600160801b0392909216919091179055611e26565b611e235f611ca1611d76611e1489612d77565b611e1d89612d77565b8b613060565b97505b5050505b5050509250929050565b5f608082811d9084901d01600f83810b9085900b01611e5e611e5583611ac0565b611ca183611ac0565b95945050505050565b5f806001600160a01b0388163303611e8357508390505f611f9e565b8491505f86604001511315611f2157610400881615611f1c57611f0d635a2a810060e01b338989898989604051602401611ec296959493929190614c96565b60408051601f198184030181529190526020810180516001600160e01b03166001600160e01b0319939093169290921790915260028a1615155b6001600160a01b038b1691906130a6565b9050611f1982826130ce565b91505b611f9e565b610100881615611f9e57611f8f638db2b65260e01b338989898989604051602401611f5196959493929190614c96565b60408051601f198184030181529190526020810180516001600160e01b03166001600160e01b0319939093169290921790915260018a161515611efc565b9050611f9b82826130ce565b91505b965096945050505050565b5f60808316158015611fbd57506008831615155b15611fc957505f6106cd565b60408316158015611fdc57506004831615155b15611fe857505f6106cd565b6104008316158015611ffc57506002831615155b1561200857505f6106cd565b610100831615801561201c57506001831615155b1561202857505f6106cd565b6001600160a01b0383161561205657613fff831615158061205157506280000082161515610773565b610773565b50628000001615919050565b5f6280000082161561207557505f919050565b6115a08262ffffff1661197d565b84336001600160a01b03821614611ab857612000861615611ab8576117dd633440d82060e01b3387878787604051602401611a30959493929190614cfc565b6002545f9081906001600160a01b03161561224a577f00000000000000000000000000000000000000000000000000000000000000005a101561211857604051630f724b8160e11b815260040160405180910390fd5b6002546040515f9182916001600160a01b03909116907f00000000000000000000000000000000000000000000000000000000000000009063553bfc3760e01b90612167908990602401614d37565b60408051601f198184030181529181526020820180516001600160e01b03166001600160e01b03199094169390931790925290516121a59190614d45565b5f604051808303815f8787f1925050503d805f81146121df576040519150601f19603f3d011682016040523d82523d5f602084013e6121e4565b606091505b50915091508115806121f7575060208151115b1561220857505f9485945092505050565b602081015162ffffff81168114801561223257506103e9610fff821610623e900062ffffff831610165b61223d575f80612241565b6001815b90955093505050505b915091565b83545f906001600160a01b03161561227a57604051637983c05160e01b815260040160405180910390fd5b612283846130ef565b90506122ac826122a6856122a06001600160a01b038916866133cc565b906133e7565b90612a2e565b909455509192915050565b85336001600160a01b038216146117dd576110008716156117dd576117db63a910f80f60e01b33888888888860405160240161179996959493929190614d60565b7f1e0745a7db1623981f0b2a5d4232364c00787266eb75ad546f190e6cebe9bd955f908152602082905260408120805c91829003612349576040516310ee97c960e31b815260040160405180910390fd5b5f198203612355575f91505b50919050565b81546001600160a01b03166123835760405163486aa30760e01b815260040160405180910390fd5b81546119da90826133e7565b5f6001600160a01b0382166123a5575047919050565b6040516370a0823160e01b81523060048201526001600160a01b038316906370a0823190602401602060405180830381865afa1580156123e7573d5f803e3d5ffd5b505050506040513d601f19601f820116820180604052508101906106cd9190614da6565b805f0361241657505f195b7f1e0745a7db1623981f0b2a5d4232364c00787266eb75ad546f190e6cebe9bd955f90815260208390526040902081815d505050565b60208301515f806001600160a01b038816330361246b575f915061255a565b608088161561255a575f6124d18963575e24b460e01b338b8b8b8b60405160240161249a959493929190614dbd565b60408051601f198184030181529190526020810180516001600160e01b03166001600160e01b0319909316929092179091526128dd565b60408901519091506280000016156124eb57606081015191505b600889161561255857604081015192505f6125068460801d90565b905080600f0b5f14612556575f8512612523600f83900b87614b84565b955080612532575f8612612536565b5f86135b1561255457604051637d05b8eb60e11b815260040160405180910390fd5b505b505b505b955095509592505050565b5f83815260066020526040812081908190819081906125849088613402565b93509350935093505f8311156125b2576001600160a01b0386165f9081526001602052604090208054840190555b877f40e9cecb9f5f1f1c5b9c97dec2917b7ee92e57ba5563708daca94dd84ad7112f336125df8760801d90565b6125e988600f0b90565b60408087015160a08801516060890151925161265a96959493908b906001600160a01b039788168152600f96870b60208201529490950b60408501529190941660608301526001600160801b0393909316608082015260029290920b60a083015262ffffff1660c082015260e00190565b60405180910390a250919695505050505050565b5f806001600160a01b038916330361268a57508490505f612796565b5f6126958460801d90565b90505f6126a285600f0b90565b905060408b161561272d57612720611d7663b47b2fb160e01b338d8d8d8d8d6040516024016126d696959493929190614e15565b60408051601f198184030181529190526020810180516001600160e01b03166001600160e01b0319939093169290921790915260048e1615156001600160a01b038f1691906130a6565b61272a9082614e74565b90505b5f81600f0b5f141580612743575082600f0b5f14155b1561278e57895160208b01515f139015151461276e576001600160801b038316608083901b1761277f565b6001600160801b038216608084901b175b905061278b89826130ce565b98505b889450925050505b97509795505050505050565b336001600160a01b03841681148015906127e157506001600160a01b038085165f9081526003602090815260408083209385168352929052205460ff16155b15612855576001600160a01b038085165f9081526005602090815260408083209385168352928152828220868352905220545f198114612853576128258382614a70565b6001600160a01b038087165f9081526005602090815260408083209387168352928152828220888352905220555b505b6116aa848484613ae3565b6393dafdf15f526004601cfd5b7f7d4b3164c6e45b97e7d87b7125a44c5828d005af88f9d751cfd78729c5d99a0b5f19815c0180825d5050565b7f7d4b3164c6e45b97e7d87b7125a44c5828d005af88f9d751cfd78729c5d99a0b6001815c0180825d5050565b5f82815260208490526040902081815d50505050565b60605f836001600160a01b0316836040516128f89190614d45565b5f604051808303815f865af19150503d805f8114612931576040519150601f19603f3d011682016040523d82523d5f602084013e612936565b606091505b5092509050806129495761294982613b4c565b60208301516001600160e01b031916612963836020015190565b6001600160e01b0319161461298b57604051631e048e1d60e01b815260040160405180910390fd5b5092915050565b5f838302815f19858709828110838203039150508084116129b1575f80fd5b805f036129c357508290049050610773565b5f848688095f868103871696879004966002600389028118808a02820302808a02820302808a02820302808a02820302808a02820302808a02909103029181900381900460010186841190950394909402919094039290920491909117919091029150509392505050565b60d01b62ffffff60d01b1662ffffff60d01b19919091161790565b8060020b8260020b12612a7d5760405163c4433ed560e01b8152600283810b600483015282900b60248201526044016108fd565b620d89e719600283900b1215612aac5760405163d5e2f7ab60e01b8152600283900b60048201526024016108fd565b620d89e8600282900b1315612ada5760405163035aeeff60e31b8152600282900b60048201526024016108fd565b5050565b600283900b5f908152600485016020526040812080548291906001600160801b0381169060801d612b0f828861308c565b6001600160801b03808216159084168015919091141596509094505f03612b5957885460a01c60020b60020b8860020b13612b59576001808a0154908401556002808a0154908401555b5f86612b6e57612b698883614e74565b612b78565b612b788883614ea1565b90508060801b851784555050505094509492505050565b5f81620d89e86002020160020b8260020b6001600160801b0380160281612bb857612bb8614ece565b0492915050565b80820715612bdc5763d4d8f3e65f5281602052806040526044601cfd5b80820591508160081d5f528260205260405f20600160ff84161b815418815550505050565b600282810b5f81815260048601602052604080822085850b83529082208754929485949293919260a09290921c900b90811215612c57578160010154836001015403945081600201548360020154039350612caa565b8560020b8160020b12612c83578260010154826001015403945082600201548260020154039350612caa565b81600101548360010154896001015403039450816002015483600201548960020154030393505b505050935093915050565b83545f9081906001600160801b0316600f86900b8203612cfd57806001600160801b03165f03612cf857604051632bbfae4960e21b815260040160405180910390fd5b612d23565b612d07818761308c565b87546001600160801b0319166001600160801b03919091161787555b612d4187600101548603826001600160801b0316600160801b612992565b9250612d6187600201548503826001600160801b0316600160801b612992565b6001880195909555505060029094015591929050565b5f60ff82901d80830118620d89e8811115612d995763ce8ef7fc5f526004601cfd5b7001fffcb933bd6fad37aa2d162d1a5940016001821602600160801b186002821615612dd5576ffff97272373d413259a46990580e213a0260801c5b6004821615612df4576ffff2e50f5f656932ef12357cf3c7fdcc0260801c5b6008821615612e13576fffe5caca7e10e4e61c3624eaa0941cd00260801c5b6010821615612e32576fffcb9843d60f6159c9db58835c9266440260801c5b6020821615612e51576fff973b41fa98c081472e6896dfb254c00260801c5b6040821615612e70576fff2ea16466c96a3843ec78b326b528610260801c5b6080821615612e8f576ffe5dee046a99a2a811c461f1969c30530260801c5b610100821615612eaf576ffcbe86c7900a88aedcffc83b479aa3a40260801c5b610200821615612ecf576ff987a7253ac413176f2b074cf7815e540260801c5b610400821615612eef576ff3392b0822b70005940c7a398e4b70f30260801c5b610800821615612f0f576fe7159475a2c29b7443b29c7fa6e889d90260801c5b611000821615612f2f576fd097f3bdfd2022b8845ad8f792aa58250260801c5b612000821615612f4f576fa9f746462d870fdf8a65dc1f90e061e50260801c5b614000821615612f6f576f70d869a156d2a1b890bb3df62baf32f70260801c5b618000821615612f8f576f31be135f97d08fd981231505542fcfa60260801c5b62010000821615612fb0576f09aa508b5b7a84e1c677de54f3e99bc90260801c5b62020000821615612fd0576e5d6af8dedb81196699c329225ee6040260801c5b62040000821615612fef576d2216e584f5fa1ea926041bedfe980260801c5b6208000082161561300c576b048a170391f7dc42444e8fa20260801c5b5f841315613018575f19045b63ffffffff0160201c9392505050565b5f8082600f0b1261304f576130486130438585856001613b75565b613c40565b5f03611584565b6115846130438585855f035f613b75565b5f8082600f0b1261307b576130486130438585856001613c4c565b6115846130438585855f035f613c4c565b818101608081901c156106cd576393dafdf15f526004601cfd5b5f806130b285856128dd565b9050826130c2575f915050610773565b60400151949350505050565b5f608082811d9084901d03600f83810b9085900b03611e5e611e5583611ac0565b5f73fffd8963efd1fc6a506488495d951d51639616826401000276a383031115613120576331efafe85f526004601cfd5b640100000000600160c01b03602083901b166001600160801b03811160071b81811c6001600160401b03811160061b90811c63ffffffff811160051b90811c61ffff811160041b90811c60ff8111600390811b91821c600f811160021b90811c918211600190811b92831c979088119617909417909217179091171717608081106131b357607f810383901c91506131bd565b80607f0383901b91505b908002607f81811c60ff83811c9190911c800280831c81831c1c800280841c81841c1c800280851c81851c1c800280861c81861c1c800280871c81871c1c800280881c81881c1c800280891c81891c1c8002808a1c818a1c1c8002808b1c818b1c1c8002808c1c818c1c1c8002808d1c818d1c1c8002808e1c9c81901c9c909c1c80029c8d901c9e9d607f198f0160401b60c09190911c678000000000000000161760c19b909b1c674000000000000000169a909a1760c29990991c672000000000000000169890981760c39790971c671000000000000000169690961760c49590951c670800000000000000169490941760c59390931c670400000000000000169290921760c69190911c670200000000000000161760c79190911c670100000000000000161760c89190911c6680000000000000161760c99190911c6640000000000000161760ca9190911c6620000000000000161760cb9190911c6610000000000000161760cc9190911c6608000000000000161760cd9190911c66040000000000001617693627a301d71055774c8581026f028f6481ab7f045a5af012a19d003aa9198101608090811d906fdb2df09e81959a81455e260799a0632f8301901d600281810b9083900b146133bd57886001600160a01b03166133a282612d77565b6001600160a01b031611156133b757816133bf565b806133bf565b815b9998505050505050505050565b60a01b62ffffff60a01b1662ffffff60a01b19919091161790565b60b81b62ffffff60b81b1662ffffff60b81b19919091161790565b6040805160c0810182525f80825260208201819052918101829052606081018290526080810182905260a08101829052819081908554602086015160038801546001600160801b03165f8261345f57610fff60c485901c16613469565b610fff60b885901c165b60408a81015187525f60208801526001600160a01b0386169087015260a085901c60020b606087015261ffff169050826134a75789600201546134ad565b89600101545b6080868101919091526001600160801b03831660a08701528901515f9062400000166134e25760d085901c62ffffff166134f4565b6134f48a6080015162ffffff16613c83565b905081156135215761351c62ffffff831682620f424082820281810491900615150191010390565b613523565b805b60408b01519097505f139050801581613543575062ffffff8716620f4240145b1561356157604051634b10312360e11b815260040160405180910390fd5b89604001515f0361357c575f80985098505050505050613ada565b83156136265760608a01516001600160a01b038681169116106135d5576001600160a01b0385165b60608b0151604051637c9c6e8f60e01b81526001600160a01b039283166004820152911660248201526044016108fd565b6401000276a36001600160a01b03168a606001516001600160a01b0316116136215760608a0151604051639e4d7cc760e01b81526001600160a01b0390911660048201526024016108fd565b6136a7565b60608a01516001600160a01b0386811691161161364c576001600160a01b0385166135a4565b73fffd8963efd1fc6a506488495d951d5263988d266001600160a01b03168a606001516001600160a01b0316106136a75760608a0151604051639e4d7cc760e01b81526001600160a01b0390911660048201526024016108fd565b6040805160e0810182525f80825260208201819052918101829052606081018290526080810182905260a0810182905260c08101919091525b8651158061370757508a606001516001600160a01b031687604001516001600160a01b0316145b6139e35760408701516001600160a01b0316815260608701518b516137319160058f019188613c92565b1515604083015260020b60208201819052620d89e7191261375757620d89e71960208201525b620d89e860020b816020015160020b1261377557620d89e860208201525b6137828160200151612d77565b6001600160a01b031660608281018290526040890151908d01516137b7928082118918908218021860a08a01518a518c613d6a565b60c085015260a084015260808301526001600160a01b031660408801528161381b576137e68160a00151613c40565b875103875260c081015160808201516138029161304391614a83565b87602001516138119190614ee2565b6020880152613856565b61382e8160c00151826080015101613c40565b875101875260a081015161384190613c40565b87602001516138509190614b84565b60208801525b8215613892575f620f4240848360c00151846080015101028161387b5761387b614ece565b60c084018051929091049182900390529990990198505b60a08701516001600160801b0316156138d1576138c58160c00151600160801b8960a001516001600160801b0316612992565b60808801805190910190525b80606001516001600160a01b031687604001516001600160a01b0316036139a857806040015115613993575f8086613912578d60010154896080015161391d565b88608001518e600201545b915091505f6139688f85602001518585600292830b5f90815260049094016020526040909320600181018054909203909155908101805490920390915554600160801b9004600f0b90565b90508715613973575f035b6139818a60a001518261308c565b6001600160801b031660a08b01525050505b602081015185900360020b60608801526136e0565b805f01516001600160a01b031687604001516001600160a01b0316146139de576139d587604001516130ef565b60020b60608801525b6136e0565b613a1b8760400151613a028960600151896133cc90919063ffffffff16565b6001600160a01b0319166001600160a01b039091161790565b8c5560a08701516001600160801b03858116911614613a5b5760a087015160038d0180546001600160801b0319166001600160801b039092169190911790555b84613a6f57608087015160028d0155613a7a565b608087015160018d01555b81151585151514613aae57613aa7613a958860200151611ac0565b611ca1895f01518e6040015103611ac0565b9950613ad3565b613ad0613ac3885f01518d6040015103611ac0565b611ca18960200151611ac0565b99505b5050505050505b92959194509250565b6001600160a01b0383165f90815260046020908152604080832085845290915281208054839290613b15908490614a70565b9091555050604080513381526020810183905283915f916001600160a01b038716915f80516020614f218339815191529101611715565b80515f03613b6d576040516336bc48c560e01b815260040160405180910390fd5b805181602001fd5b5f836001600160a01b0316856001600160a01b03161115613b94579293925b600160601b600160e01b03606084901b166001600160a01b0386860381169087165f03613bd35760405162bfc92160e01b815260040160405180910390fd5b83613c0957866001600160a01b0316613bf68383896001600160a01b0316612992565b81613c0357613c03614ece565b04613c35565b613c35613c208383896001600160a01b0316613f63565b886001600160a01b0316808204910615150190565b979650505050505050565b5f808212611ad3575090565b5f83850360ff81901d90810118600160601b84613c6a818484612992565b9350845f83858409111684019350505050949350505050565b62bfffff811661103c8161197d565b5f808385078113848605038315613cff57600881901d600181810b5f90815260208a905260409020545f1960ff851692831b800101908116801515955085613ce157888360ff16860302613cf4565b88613ceb82613f93565b840360ff168603025b965050505050613d60565b6001908101600881901d80830b5f90815260208a905260409020545f1960ff841694851b011990811680151595509293919285613d4657888360ff0360ff16860102613d59565b8883613d5183614031565b0360ff168601025b9650505050505b5094509492505050565b5f8080806001600160a01b03808916908a1610158187128015613dee575f613da2895f0389620f42400362ffffff16620f4240612992565b905082613dbb57613db68c8c8c6001613c4c565b613dc8565b613dc88b8d8c6001613b75565b9550858110613dd9578a9650613de8565b613de58c8b8386614117565b96505b50613e30565b81613e0457613dff8b8b8b5f613b75565b613e10565b613e108a8c8b5f613c4c565b9350838810613e2157899550613e30565b613e2d8b8a8a85614177565b95505b6001600160a01b038a8116908716148215613e9257808015613e4f5750815b613e6557613e60878d8c6001613b75565b613e67565b855b9550808015613e74575081155b613e8957613e84878d8c5f613c4c565b613e8b565b845b9450613edb565b808015613e9c5750815b613eb257613ead8c888c6001613c4c565b613eb4565b855b9550808015613ec1575081155b613ed657613ed18c888c5f613b75565b613ed8565b845b94505b81158015613ee857508885115b15613ef1578894505b818015613f1057508a6001600160a01b0316876001600160a01b031614155b15613f215785895f03039350613f54565b8762ffffff16620f424014613f4f57613f4a868962ffffff168a620f42400362ffffff16613f63565b613f51565b855b93505b50505095509550955095915050565b5f613f6f848484612992565b90508180613f7f57613f7f614ece565b838509156107735760010180610773575f80fd5b5f808211613f9f575f80fd5b600160801b8210613fb257608091821c91015b680100000000000000008210613fca57604091821c91015b6401000000008210613fde57602091821c91015b620100008210613ff057601091821c91015b610100821061400157600891821c91015b6010821061401157600491821c91015b6004821061402157600291821c91015b6002821061103c57600101919050565b5f80821161403d575f80fd5b5060ff6001600160801b0382161561405857607f1901614060565b608082901c91505b6001600160401b0382161561407857603f1901614080565b604082901c91505b63ffffffff82161561409557601f190161409d565b602082901c91505b61ffff8216156140b057600f19016140b8565b601082901c91505b60ff8216156140ca57600719016140d2565b600882901c91505b600f8216156140e457600319016140ec565b600482901c91505b60038216156140fe5760011901614106565b600282901c91505b600182161561103c575f1901919050565b5f6001600160a01b038516158061413557506001600160801b038416155b15614153576040516309e48c3760e31b815260040160405180910390fd5b8161416a5761416585858560016141cc565b611e5e565b611e5e85858560016142c3565b5f6001600160a01b038516158061419557506001600160801b038416155b156141b3576040516309e48c3760e31b815260040160405180910390fd5b816141c4576141658585855f6142c3565b611e5e8585855f5b5f811561423c575f6001600160a01b03841115614200576141fb84600160601b876001600160801b0316612992565b614217565b6142176001600160801b038616606086901b614f01565b905061423461422f826001600160a01b038916614a83565b6143c7565b915050611584565b5f6001600160a01b038411156142695761426484600160601b876001600160801b0316613f63565b614286565b614286606085901b6001600160801b038716808204910615150190565b905080866001600160a01b0316116142b157604051634323a55560e01b815260040160405180910390fd5b6001600160a01b038616039050611584565b5f825f036142d2575083611584565b600160601b600160e01b03606085901b168215614364576001600160a01b0386168481029085828161430657614306614ece565b0403614336578181018281106143345761432a83896001600160a01b031683613f63565b9350505050611584565b505b50614234818561434f6001600160a01b038a1683614f01565b6143599190614a83565b808204910615150190565b6001600160a01b0386168481029085828161438157614381614ece565b0414158061438f5750808211155b156143ad5760405163f5c787f160e01b815260040160405180910390fd5b80820361432a61422f846001600160a01b038b1684613f63565b5f600160a01b82106115a0576115a0612860565b6001600160a01b0381168114611756575f80fd5b5f8060408385031215614400575f80fd5b823561440b816143db565b946020939093013593505050565b5f60208284031215614429575f80fd5b81356001600160e01b031981168114610773575f80fd5b5f805f60608486031215614452575f80fd5b833561445d816143db565b95602085013595506040909401359392505050565b5f805f60608486031215614484575f80fd5b833561448f816143db565b9250602084013561449f816143db565b929592945050506040919091013590565b5f602082840312156144c0575f80fd5b5035919050565b634e487b7160e01b5f52604160045260245ffd5b604051608081016001600160401b03811182821017156144fd576144fd6144c7565b60405290565b803562ffffff8116811461103c575f80fd5b8035600281900b811461103c575f80fd5b5f60a08284031215614536575f80fd5b60405160a081018181106001600160401b0382111715614558576145586144c7565b6040529050808235614569816143db565b81526020830135614579816143db565b602082015261458a60408401614503565b604082015261459b60608401614515565b606082015260808301356145ae816143db565b6080919091015292915050565b5f8083601f8401126145cb575f80fd5b5081356001600160401b038111156145e1575f80fd5b6020830191508360208285010111156145f8575f80fd5b9250929050565b5f805f805f6101008688031215614614575f80fd5b61461e8787614526565b945060a0860135935060c0860135925060e08601356001600160401b03811115614646575f80fd5b614652888289016145bb565b969995985093965092949392505050565b5f60208284031215614673575f80fd5b8135610773816143db565b5f806040838503121561468f575f80fd5b50508035926020909101359150565b5f5b838110156146b85781810151838201526020016146a0565b50505f910152565b602081525f82518060208401526146de81604085016020870161469e565b601f01601f19169190910160400192915050565b5f8060208385031215614703575f80fd5b82356001600160401b03811115614718575f80fd5b614724858286016145bb565b90969095509350505050565b5f8060c08385031215614741575f80fd5b61474b8484614526565b915061475960a08401614503565b90509250929050565b8035801515811461103c575f80fd5b5f8060408385031215614782575f80fd5b823561478d816143db565b915061475960208401614762565b5f805f808486036101408112156147b0575f80fd5b6147ba8787614526565b94506080609f19820112156147cd575f80fd5b506147d66144db565b6147e260a08701614515565b81526147f060c08701614515565b602082015260e08601356040820152610100860135606082015292506101208501356001600160401b03811115614825575f80fd5b614831878288016145bb565b95989497509550505050565b5f805f8060e08587031215614850575f80fd5b61485a8686614526565b935060a085013561486a816143db565b925060c08501356001600160401b03811115614825575f80fd5b5f8060208385031215614895575f80fd5b82356001600160401b03808211156148ab575f80fd5b818501915085601f8301126148be575f80fd5b8135818111156148cc575f80fd5b8660208260051b85010111156148e0575f80fd5b60209290920196919550909350505050565b602080825282518282018190525f9190848201906040850190845b818110156149295783518352928401929184019160010161490d565b50909695505050505050565b5f8060408385031215614946575f80fd5b8235614951816143db565b91506020830135614961816143db565b809150509250929050565b5f805f80848603610120811215614981575f80fd5b61498b8787614526565b94506060609f198201121561499e575f80fd5b50604051606081016001600160401b0382821081831117156149c2576149c26144c7565b816040526149d260a08901614762565b835260c0880135602084015260e088013591506149ee826143db565b816040840152829550610100880135925080831115614a0b575f80fd5b5050614831878288016145bb565b5f805f8060808587031215614a2c575f80fd5b8435614a37816143db565b93506020850135614a47816143db565b93969395505050506040820135916060013590565b634e487b7160e01b5f52601160045260245ffd5b818103818111156106cd576106cd614a5c565b808201808211156106cd576106cd614a5c565b80820281158282048414176106cd576106cd614a5c565b81835281816020850137505f828201602090810191909152601f909101601f19169091010190565b602081525f611584602083018486614aad565b5f60208284031215614af8575f80fd5b81516001600160401b0380821115614b0e575f80fd5b818401915084601f830112614b21575f80fd5b815181811115614b3357614b336144c7565b604051601f8201601f19908116603f01168101908382118183101715614b5b57614b5b6144c7565b81604052828152876020848701011115614b73575f80fd5b613c3583602083016020880161469e565b8082018281125f831280158216821582161715614ba357614ba3614a5c565b505092915050565b80516001600160a01b03908116835260208083015182169084015260408083015162ffffff169084015260608083015160020b9084015260809182015116910152565b6001600160a01b03871681525f610120614c0b6020840189614bab565b8660c08401528560e0840152806101008401526133bf8184018587614aad565b6001600160a01b03861681525f610160614c486020840188614bab565b8551600290810b60c08501526020870151900b60e08401526040860151610100840152606086015161012084015280610140840152614c8a8184018587614aad565b98975050505050505050565b6001600160a01b03871681525f610180614cb36020840189614bab565b8651600290810b60c08501526020880151900b60e08401526040870151610100840152606087015161012084015285610140840152806101608401526133bf8184018587614aad565b6001600160a01b0386811682525f9061010090614d1c6020850189614bab565b861660c084015260e08301819052614c8a8184018587614aad565b60a081016106cd8284614bab565b5f8251614d5681846020870161469e565b9190910192915050565b6001600160a01b0387811682525f9061012090614d80602085018a614bab565b80881660c0850152508560020b60e0840152806101008401526133bf8184018587614aad565b5f60208284031215614db6575f80fd5b5051919050565b6001600160a01b03861681525f610140614dda6020840188614bab565b8551151560c0840152602086015160e084015260408601516001600160a01b031661010084015280610120840152614c8a8184018587614aad565b6001600160a01b03871681525f610160614e326020840189614bab565b8651151560c0840152602087015160e084015260408701516001600160a01b031661010084015285610120840152806101408401526133bf8184018587614aad565b600f81810b9083900b0160016001607f1b03811360016001607f1b0319821217156106cd576106cd614a5c565b600f82810b9082900b0360016001607f1b0319811260016001607f1b03821317156106cd576106cd614a5c565b634e487b7160e01b5f52601260045260245ffd5b8181035f83128015838313168383128216171561298b5761298b614a5c565b5f82614f1b57634e487b7160e01b5f52601260045260245ffd5b50049056fe1b3d7edb2e9c0b0e7c525b20aaaef0f5940d2ed71663c7d39266ecafac728859c090fc4683624cfc3884e9d8de5eca132f2d0ec062aff75d43c0465d5ceeab23a2646970667358221220009064acd5169a61e06178f088642ad43a3cc6cbc337a736a61d59e42d52445264736f6c63430008180033","linkReferences":{}},"methodIdentifiers":{"MAX_TICK_SPACING()":"60460f06","MIN_TICK_SPACING()":"07eff0dd","allowance(address,address,uint256)":"598af9e7","approve(address,uint256,uint256)":"426a8493","balanceOf(address,uint256)":"00fdd58e","burn(address,uint256,uint256)":"f5298aca","collectProtocolFees(address,address,uint256)":"8161b874","donate((address,address,uint24,int24,address),uint256,uint256,bytes)":"234266d7","extsload(bytes32)":"1e2eaeaf","extsload(bytes32,uint256)":"35fd631a","extsload(bytes32[])":"dbd035ff","exttload(bytes32)":"f135baaa","exttload(bytes32[])":"9bf6645f","initialize((address,address,uint24,int24,address),uint160,bytes)":"695c5bf5","isOperator(address,address)":"b6363cf2","mint(address,uint256,uint256)":"156e29f6","modifyLiquidity((address,address,uint24,int24,address),(int24,int24,int256,bytes32),bytes)":"5a6bcfda","owner()":"8da5cb5b","protocolFeeController()":"f02de3b2","protocolFeesAccrued(address)":"97e8cd4e","setOperator(address,bool)":"558a7297","setProtocolFee((address,address,uint24,int24,address),uint24)":"7e87ce7d","setProtocolFeeController(address)":"2d771389","settle(address)":"6a256b29","supportsInterface(bytes4)":"01ffc9a7","swap((address,address,uint24,int24,address),(bool,int256,uint160),bytes)":"f3cd914c","sync(address)":"a5841194","take(address,address,uint256)":"0b0d9c09","transfer(address,uint256,uint256)":"095bcdb6","transferFrom(address,address,uint256,uint256)":"fe99049a","transferOwnership(address)":"f2fde38b","unlock(bytes)":"48c89491","updateDynamicLPFee((address,address,uint24,int24,address),uint24)":"52759651"},"id":25}