{"abi":[{"type":"function","name":"DYNAMIC_FEE_FLAG","inputs":[],"outputs":[{"name":"","type":"uint24","internalType":"uint24"}],"stateMutability":"view"},{"type":"function","name":"MAX_SWAP_FEE","inputs":[],"outputs":[{"name":"","type":"uint24","internalType":"uint24"}],"stateMutability":"view"},{"type":"function","name":"STATIC_FEE_MASK","inputs":[],"outputs":[{"name":"","type":"uint24","internalType":"uint24"}],"stateMutability":"view"},{"type":"error","name":"FeeTooLarge","inputs":[]}],"bytecode":{"object":"0x60b3610034600b8282823980515f1a60731461002857634e487b7160e01b5f525f60045260245ffd5b305f52607381538281f3fe73000000000000000000000000000000000000000030146080604052600436106046575f3560e01c8063ab3d854414604a578063c7a97b4e14606b578063f26ef49d146074575b5f80fd5b6053620f424081565b60405162ffffff909116815260200160405180910390f35b6053627fffff81565b6053628000008156fea2646970667358221220852ae345eb86a3a54a96bee223341d47f67009dd69a84a6e8d3426abb0ff908b64736f6c63430008180033","linkReferences":{}},"methodIdentifiers":{"DYNAMIC_FEE_FLAG()":"f26ef49d","MAX_SWAP_FEE()":"ab3d8544","STATIC_FEE_MASK()":"c7a97b4e"},"id":55}