{
  "address": "0xef1B4B164Fd3b7933bfaDb042373560e715Ec5D6",
  "abi": [
    {
      "inputs": [
        {
          "internalType": "address",
          "name": "brevisProof",
          "type": "address"
        }
      ],
      "stateMutability": "nonpayable",
      "type": "constructor"
    },
    {
      "inputs": [
        {
          "internalType": "address",
          "name": "owner",
          "type": "address"
        }
      ],
      "name": "OwnableInvalidOwner",
      "type": "error"
    },
    {
      "inputs": [
        {
          "internalType": "address",
          "name": "account",
          "type": "address"
        }
      ],
      "name": "OwnableUnauthorizedAccount",
      "type": "error"
    },
    {
      "anonymous": false,
      "inputs": [
        {
          "indexed": false,
          "internalType": "address",
          "name": "account",
          "type": "address"
        },
        {
          "indexed": false,
          "internalType": "uint64",
          "name": "blockNum",
          "type": "uint64"
        }
      ],
      "name": "AccountAgeAttested",
      "type": "event"
    },
    {
      "anonymous": false,
      "inputs": [
        {
          "indexed": true,
          "internalType": "address",
          "name": "previousOwner",
          "type": "address"
        },
        {
          "indexed": true,
          "internalType": "address",
          "name": "newOwner",
          "type": "address"
        }
      ],
      "name": "OwnershipTransferred",
      "type": "event"
    },
    {
      "inputs": [
        {
          "internalType": "bytes32",
          "name": "_requestId",
          "type": "bytes32"
        },
        {
          "internalType": "bytes",
          "name": "_appCircuitOutput",
          "type": "bytes"
        }
      ],
      "name": "brevisCallback",
      "outputs": [],
      "stateMutability": "nonpayable",
      "type": "function"
    },
    {
      "inputs": [],
      "name": "brevisProof",
      "outputs": [
        {
          "internalType": "contract IBrevisProof",
          "name": "",
          "type": "address"
        }
      ],
      "stateMutability": "view",
      "type": "function"
    },
    {
      "inputs": [],
      "name": "owner",
      "outputs": [
        {
          "internalType": "address",
          "name": "",
          "type": "address"
        }
      ],
      "stateMutability": "view",
      "type": "function"
    },
    {
      "inputs": [],
      "name": "renounceOwnership",
      "outputs": [],
      "stateMutability": "nonpayable",
      "type": "function"
    },
    {
      "inputs": [
        {
          "internalType": "bytes32",
          "name": "_vkHash",
          "type": "bytes32"
        }
      ],
      "name": "setVkHash",
      "outputs": [],
      "stateMutability": "nonpayable",
      "type": "function"
    },
    {
      "inputs": [
        {
          "internalType": "address",
          "name": "newOwner",
          "type": "address"
        }
      ],
      "name": "transferOwnership",
      "outputs": [],
      "stateMutability": "nonpayable",
      "type": "function"
    },
    {
      "inputs": [
        {
          "internalType": "bytes32",
          "name": "_requestId",
          "type": "bytes32"
        },
        {
          "internalType": "uint64",
          "name": "_chainId",
          "type": "uint64"
        },
        {
          "components": [
            {
              "internalType": "bytes32",
              "name": "smtRoot",
              "type": "bytes32"
            },
            {
              "components": [
                {
                  "internalType": "uint64",
                  "name": "blkNum",
                  "type": "uint64"
                },
                {
                  "internalType": "uint64",
                  "name": "receiptIndex",
                  "type": "uint64"
                },
                {
                  "components": [
                    {
                      "components": [
                        {
                          "internalType": "uint8",
                          "name": "valueFromTopic",
                          "type": "uint8"
                        },
                        {
                          "internalType": "uint64",
                          "name": "valueIndex",
                          "type": "uint64"
                        },
                        {
                          "internalType": "address",
                          "name": "contractAddress",
                          "type": "address"
                        },
                        {
                          "internalType": "bytes32",
                          "name": "logTopic0",
                          "type": "bytes32"
                        }
                      ],
                      "internalType": "struct Brevis.LogExtraInfo",
                      "name": "logExtraInfo",
                      "type": "tuple"
                    },
                    {
                      "internalType": "uint64",
                      "name": "logIndex",
                      "type": "uint64"
                    },
                    {
                      "internalType": "bytes32",
                      "name": "value",
                      "type": "bytes32"
                    }
                  ],
                  "internalType": "struct Brevis.LogInfo[5]",
                  "name": "logs",
                  "type": "tuple[5]"
                }
              ],
              "internalType": "struct Brevis.ReceiptInfo[]",
              "name": "receipts",
              "type": "tuple[]"
            },
            {
              "components": [
                {
                  "internalType": "bytes32",
                  "name": "blockHash",
                  "type": "bytes32"
                },
                {
                  "internalType": "address",
                  "name": "account",
                  "type": "address"
                },
                {
                  "internalType": "bytes32",
                  "name": "slot",
                  "type": "bytes32"
                },
                {
                  "internalType": "bytes32",
                  "name": "slotValue",
                  "type": "bytes32"
                },
                {
                  "internalType": "uint64",
                  "name": "blockNumber",
                  "type": "uint64"
                }
              ],
              "internalType": "struct Brevis.StorageInfo[]",
              "name": "stores",
              "type": "tuple[]"
            },
            {
              "components": [
                {
                  "internalType": "bytes32",
                  "name": "leafHash",
                  "type": "bytes32"
                },
                {
                  "internalType": "bytes32",
                  "name": "blockHash",
                  "type": "bytes32"
                },
                {
                  "internalType": "uint64",
                  "name": "blockNumber",
                  "type": "uint64"
                },
                {
                  "internalType": "uint64",
                  "name": "blockTime",
                  "type": "uint64"
                },
                {
                  "internalType": "bytes",
                  "name": "leafRlpPrefix",
                  "type": "bytes"
                }
              ],
              "internalType": "struct Brevis.TransactionInfo[]",
              "name": "txs",
              "type": "tuple[]"
            }
          ],
          "internalType": "struct Brevis.ExtractInfos",
          "name": "_extractInfos",
          "type": "tuple"
        }
      ],
      "name": "validateRequest",
      "outputs": [
        {
          "internalType": "bool",
          "name": "",
          "type": "bool"
        }
      ],
      "stateMutability": "view",
      "type": "function"
    },
    {
      "inputs": [],
      "name": "vkHash",
      "outputs": [
        {
          "internalType": "bytes32",
          "name": "",
          "type": "bytes32"
        }
      ],
      "stateMutability": "view",
      "type": "function"
    }
  ],
  "transactionHash": "0xd7c006a6cdb5f8950ce0cc201242061b320d422159902423c6ac3ed071f668ec",
  "args": [
    "0x4446e0f8417C1db113899929A8F3cEe8e0DcBCDb"
  ],
  "numDeployments": 3,
  "solcInputHash": "9371bee3ee64238fbb66c5a09b35e1ca",
  "bytecode": "0x60a0346100dd57601f610da038819003918201601f19168301916001600160401b038311848410176100e2578084926020946040528339810103126100dd57516001600160a01b0390818116908190036100dd5760805233156100c4576000543360018060a01b0319821617600055604051913391167f8be0079c531659141344cd1fd0a4f28419497f9722a3daafe3b4186f6b6457e0600080a3610ca790816100f98239608051818181610131015281816103560152818161045101526109420152f35b604051631e4fbdf760e01b815260006004820152602490fd5b600080fd5b634e487b7160e01b600052604160045260246000fdfe608080604052600436101561001357600080fd5b60003560e01c9081634fe840f514610b2c57508063715018a614610ac65780637859f6d914610aa557806379d6b6a2146108d35780637c08aa741461017c5780638da5cb5b14610155578063c7f5aaa0146101115763f2fde38b1461007757600080fd5b3461010c57602036600319011261010c576004356001600160a01b0380821680920361010c576100a5610c45565b81156100f3576000548273ffffffffffffffffffffffffffffffffffffffff19821617600055167f8be0079c531659141344cd1fd0a4f28419497f9722a3daafe3b4186f6b6457e0600080a3005b604051631e4fbdf760e01b815260006004820152602490fd5b600080fd5b3461010c57600036600319011261010c5760206040516001600160a01b037f0000000000000000000000000000000000000000000000000000000000000000168152f35b3461010c57600036600319011261010c5760206001600160a01b0360005416604051908152f35b3461010c5760031960603682011261010c576024359067ffffffffffffffff8216820361010c5767ffffffffffffffff6044351161010c576080906044353603011261010c576040516101ce81610b5c565b6044356004013581526024604435013567ffffffffffffffff811161010c57604435013660238201121561010c5760048101359061020b82610bd2565b916102196040519384610bb0565b808352602083019136602483600a1b8301011161010c5760248101925b602483600a1b83010184106107be5750505050602082015260448035013567ffffffffffffffff811161010c57604435013660238201121561010c5760048101359061028182610bd2565b9161028f6040519384610bb0565b808352602083019136602460a084028301011161010c579160248301925b602460a08402820101841061075a575050505060408201526064604435013567ffffffffffffffff811161010c57366023826044350101121561010c57600481604435010135906102fd82610bd2565b9161030b6040519384610bb0565b80835260208301913660248360051b836044350101011161010c576024816044350101925b60248360051b836044350101018410610685575050505060608201526001600160a01b037f0000000000000000000000000000000000000000000000000000000000000000163b1561010c57604051631f022a9d60e21b8152600480359082015267ffffffffffffffff9092166024830152606060448301528051606483015260208082015160806084850152805160e4850181905284936101048501939092019060005b8181106105c7575050506040810151916063198482030160a48501526020808451928381520193019060005b81811061056e5750505060600151906063198382030160c484015281519081815260208101916020808260051b8401019401926000925b8284106104c35786600081808903816001600160a01b037f0000000000000000000000000000000000000000000000000000000000000000165afa80156104b757610489575b602060405160018152f35b67ffffffffffffffff81116104a1576040528061047e565b634e487b7160e01b600052604160045260246000fd5b6040513d6000823e3d90fd5b919395509193601f1982820301835260808651805183526020810151602084015267ffffffffffffffff604082015116604084015267ffffffffffffffff606082015116606084015201519060a060808201528151918260a083015260005b8381106105585750506020600192819260c0916000838284010152601f8019910116010197019301940191929093869594610438565b80602080928401015160c0828601015201610522565b9194509192602060a060019267ffffffffffffffff60808951805184526001600160a01b038682015116868501526040810151604085015260608101516060850152015116608082015201950191019185949392610401565b91945091926040855167ffffffffffffffff815116835267ffffffffffffffff6020820151166020840152015160408201906000915b6005831061061f575050506020610400600192019501910191859493926103d5565b602060c0600192604085516060815160ff815116855267ffffffffffffffff8782015116878601526001600160a01b038482015116848601520151606084015267ffffffffffffffff85820151166080840152015160a0820152019201920191906105fd565b833567ffffffffffffffff811161010c5760a0604435840182013603602319011261010c57604051916106b783610b94565b6044803585018301602481013585529081013560208501526106db90606401610b47565b60408401526106f260848386604435010101610b47565b606084015260a48285604435010101359067ffffffffffffffff821161010c5736604383858860443501010101121561010c576024936020938493610748913691604480358b0190920101808901359101610bfe565b60808201528152019401939050610330565b60a08436031261010c5760a080602060249460405161077881610b94565b88358152610787838a01610bea565b8382015260408901356040820152606089013560608201526107ab60808a01610b47565b60808201528152019501949250506102ad565b6104008436031261010c576040516107d581610b78565b6107de85610b47565b81526107ec60208601610b47565b602082015236605f8601121561010c5760405161080881610b94565b803661040088011161010c5760408701905b6104008801821061083e575050604082015281526104009390930192602001610236565b60c08236031261010c576040519061085582610b78565b60808336031261010c576040519061086c82610b5c565b60ff84351684350361010c5760c0926020928535815261088d848701610b47565b8482015261089d60408701610bea565b60408201526060860135606082015281526108ba60808601610b47565b8382015260a0850135604082015281520191019061081a565b3461010c57604036600319011261010c576024803567ffffffffffffffff80821161010c573660238301121561010c57816004013590811161010c57828201923681838501011161010c57604051632cc27dc960e11b8152600435600482015260408183816001600160a01b037f0000000000000000000000000000000000000000000000000000000000000000165afa9081156104b757600090600092610a6b575b50610982368588610bfe565b6020815191012003610a2757600154036109e357508060141161010c57601c1161010c577f58f1d2ead829d16ffd37a8ca2f4a66f45a68b2e9f33272aa1f4d9621bdd7453c9160386040928351923560601c8352013560c01c6020820152a1005b606490600a6040519162461bcd60e51b8352602060048401528201527f696e76616c696420766b000000000000000000000000000000000000000000006044820152fd5b60405162461bcd60e51b8152602060048201819052818401527f6661696c656420746f206f70656e206f757470757420636f6d6d69746d656e746044820152606490fd5b9150506040813d604011610a9d575b81610a8760409383610bb0565b8101031261010c57602081519101519086610976565b3d9150610a7a565b3461010c57602036600319011261010c57610abe610c45565b600435600155005b3461010c57600036600319011261010c57610adf610c45565b60006001600160a01b03815473ffffffffffffffffffffffffffffffffffffffff1981168355167f8be0079c531659141344cd1fd0a4f28419497f9722a3daafe3b4186f6b6457e08280a3005b3461010c57600036600319011261010c576020906001548152f35b359067ffffffffffffffff8216820361010c57565b6080810190811067ffffffffffffffff8211176104a157604052565b6060810190811067ffffffffffffffff8211176104a157604052565b60a0810190811067ffffffffffffffff8211176104a157604052565b90601f8019910116810190811067ffffffffffffffff8211176104a157604052565b67ffffffffffffffff81116104a15760051b60200190565b35906001600160a01b038216820361010c57565b92919267ffffffffffffffff82116104a15760405191610c28601f8201601f191660200184610bb0565b82948184528183011161010c578281602093846000960137010152565b6001600160a01b03600054163303610c5957565b60405163118cdaa760e01b8152336004820152602490fdfea2646970667358221220fcd836868479cfdd696947d08e3ff8edf485404fe2cbecd70014f9194be8530964736f6c63430008140033",
  "devdoc": {
    "errors": {
      "OwnableInvalidOwner(address)": [
        {
          "details": "The owner is not a valid owner account. (eg. `address(0)`)"
        }
      ],
      "OwnableUnauthorizedAccount(address)": [
        {
          "details": "The caller account is not authorized to perform an operation."
        }
      ]
    },
    "kind": "dev",
    "methods": {
      "owner()": {
        "details": "Returns the address of the current owner."
      },
      "renounceOwnership()": {
        "details": "Leaves the contract without owner. It will not be possible to call `onlyOwner` functions. Can only be called by the current owner. NOTE: Renouncing ownership will leave the contract without an owner, thereby disabling any functionality that is only available to the owner."
      },
      "transferOwnership(address)": {
        "details": "Transfers ownership of the contract to a new account (`newOwner`). Can only be called by the current owner."
      }
    },
    "version": 1
  },
  "userdoc": {
    "kind": "user",
    "methods": {},
    "version": 1
  },
  "storageLayout": {
    "storage": [
      {
        "astId": 8,
        "contract": "contracts/AccountAge.sol:AccountAge",
        "label": "_owner",
        "offset": 0,
        "slot": "0",
        "type": "t_address"
      },
      {
        "astId": 194,
        "contract": "contracts/AccountAge.sol:AccountAge",
        "label": "vkHash",
        "offset": 0,
        "slot": "1",
        "type": "t_bytes32"
      }
    ],
    "types": {
      "t_address": {
        "encoding": "inplace",
        "label": "address",
        "numberOfBytes": "20"
      },
      "t_bytes32": {
        "encoding": "inplace",
        "label": "bytes32",
        "numberOfBytes": "32"
      }
    }
  }
}