{"abi":[{"type":"function","name":"IS_UNLOCKED_SLOT","inputs":[],"outputs":[{"name":"","type":"bytes32","internalType":"bytes32"}],"stateMutability":"view"},{"type":"function","name":"NONZERO_DELTA_COUNT_SLOT","inputs":[],"outputs":[{"name":"","type":"bytes32","internalType":"bytes32"}],"stateMutability":"view"},{"type":"function","name":"RESERVES_OF_SLOT","inputs":[],"outputs":[{"name":"","type":"bytes32","internalType":"bytes32"}],"stateMutability":"view"}],"bytecode":{"object":"0x610103610035600b8282823980515f1a60731461002957634e487b7160e01b5f525f60045260245ffd5b305f52607381538281f3fe73000000000000000000000000000000000000000030146080604052600436106045575f3560e01c8062e40a5e1460495780633aa45d631460815780634481f7ad1460a7575b5f80fd5b606f7f1e0745a7db1623981f0b2a5d4232364c00787266eb75ad546f190e6cebe9bd9581565b60405190815260200160405180910390f35b606f7fc090fc4683624cfc3884e9d8de5eca132f2d0ec062aff75d43c0465d5ceeab2381565b606f7f7d4b3164c6e45b97e7d87b7125a44c5828d005af88f9d751cfd78729c5d99a0b8156fea2646970667358221220d85aa19d85fb28acc0b6f4837019b7fb4cd59c6aff22ca2cd4ddd17446b0027464736f6c63430008180033","linkReferences":{}},"methodIdentifiers":{"IS_UNLOCKED_SLOT()":"3aa45d63","NONZERO_DELTA_COUNT_SLOT()":"4481f7ad","RESERVES_OF_SLOT()":"00e40a5e"},"id":59}