{"abi":[{"type":"function","name":"SQRT_PRICE_121_100","inputs":[],"outputs":[{"name":"","type":"uint160","internalType":"uint160"}],"stateMutability":"view"},{"type":"function","name":"SQRT_PRICE_1_1","inputs":[],"outputs":[{"name":"","type":"uint160","internalType":"uint160"}],"stateMutability":"view"},{"type":"function","name":"SQRT_PRICE_1_2","inputs":[],"outputs":[{"name":"","type":"uint160","internalType":"uint160"}],"stateMutability":"view"},{"type":"function","name":"SQRT_PRICE_1_4","inputs":[],"outputs":[{"name":"","type":"uint160","internalType":"uint160"}],"stateMutability":"view"},{"type":"function","name":"SQRT_PRICE_2_1","inputs":[],"outputs":[{"name":"","type":"uint160","internalType":"uint160"}],"stateMutability":"view"},{"type":"function","name":"SQRT_PRICE_4_1","inputs":[],"outputs":[{"name":"","type":"uint160","internalType":"uint160"}],"stateMutability":"view"}],"bytecode":{"object":"0x610110610035600b8282823980515f1a60731461002957634e487b7160e01b5f525f60045260245ffd5b305f52607381538281f3fe73000000000000000000000000000000000000000030146080604052600436106064575f3560e01c80638a81a2de14606857806398ec04cc14608e578063bd5e41841460a1578063e282efb71460b3578063ed3181601460c6578063fcc6433b1460d0575b5f80fd5b6072600160611b81565b6040516001600160a01b03909116815260200160405180910390f35b60726c016a09e667f3bcc908b2fb136681565b60726bb504f333f9de6484597d89b381565b60726c0119999999999999999999999981565b60726001605f1b81565b6072600160601b8156fea2646970667358221220465c800af8c6a1d1fc1d7a24f204aac1c9092af0c6e800d2888d94e0f9c162a164736f6c63430008180033","linkReferences":{}},"methodIdentifiers":{"SQRT_PRICE_121_100()":"e282efb7","SQRT_PRICE_1_1()":"fcc6433b","SQRT_PRICE_1_2()":"bd5e4184","SQRT_PRICE_1_4()":"ed318160","SQRT_PRICE_2_1()":"98ec04cc","SQRT_PRICE_4_1()":"8a81a2de"},"id":77}