{"abi":[{"type":"constructor","inputs":[{"name":"_manager","type":"address","internalType":"contract IPoolManager"}],"stateMutability":"nonpayable"},{"type":"function","name":"manager","inputs":[],"outputs":[{"name":"","type":"address","internalType":"contract IPoolManager"}],"stateMutability":"view"},{"type":"function","name":"swap","inputs":[{"name":"key","type":"tuple","internalType":"struct PoolKey","components":[{"name":"currency0","type":"address","internalType":"Currency"},{"name":"currency1","type":"address","internalType":"Currency"},{"name":"fee","type":"uint24","internalType":"uint24"},{"name":"tickSpacing","type":"int24","internalType":"int24"},{"name":"hooks","type":"address","internalType":"contract IHooks"}]},{"name":"params","type":"tuple","internalType":"struct IPoolManager.SwapParams","components":[{"name":"zeroForOne","type":"bool","internalType":"bool"},{"name":"amountSpecified","type":"int256","internalType":"int256"},{"name":"sqrtPriceLimitX96","type":"uint160","internalType":"uint160"}]},{"name":"testSettings","type":"tuple","internalType":"struct PoolSwapTest.TestSettings","components":[{"name":"takeClaims","type":"bool","internalType":"bool"},{"name":"settleUsingBurn","type":"bool","internalType":"bool"}]},{"name":"hookData","type":"bytes","internalType":"bytes"}],"outputs":[{"name":"delta","type":"int256","internalType":"BalanceDelta"}],"stateMutability":"payable"},{"type":"function","name":"unlockCallback","inputs":[{"name":"rawData","type":"bytes","internalType":"bytes"}],"outputs":[{"name":"","type":"bytes","internalType":"bytes"}],"stateMutability":"nonpayable"},{"type":"error","name":"ERC20TransferFailed","inputs":[]},{"type":"error","name":"NativeTransferFailed","inputs":[]},{"type":"error","name":"NoSwapOccurred","inputs":[]}],"bytecode":{"object":"0x60a060405234801561000f575f80fd5b506040516117be3803806117be83398101604081905261002e9161003f565b6001600160a01b031660805261006c565b5f6020828403121561004f575f80fd5b81516001600160a01b0381168114610065575f80fd5b9392505050565b6080516116fd6100c15f395f8181606e0152818160d7015281816101ee0152818161030001528181610888015281816108e10152818161095e015281816109b201528181610ac30152610af601526116fd5ff3fe608060405260043610610033575f3560e01c80632229d0b414610037578063481c6a751461005d57806391dd7346146100a8575b5f80fd5b61004a610045366004611254565b6100d4565b6040519081526020015b60405180910390f35b348015610068575f80fd5b506100907f000000000000000000000000000000000000000000000000000000000000000081565b6040516001600160a01b039091168152602001610054565b3480156100b3575f80fd5b506100c76100c23660046112c5565b6101e1565b604051610054919061137e565b5f7f00000000000000000000000000000000000000000000000000000000000000006001600160a01b03166348c894916040518060a00160405280336001600160a01b031681526020018681526020018881526020018781526020018581525060405160200161014491906113da565b6040516020818303038152906040526040518263ffffffff1660e01b815260040161016f919061137e565b5f604051808303815f875af115801561018a573d5f803e3d5ffd5b505050506040513d5f823e601f3d908101601f191682016040526101b1919081019061146b565b8060200190518101906101c491906114d4565b90504780156101d8576101d85f3383610a04565b50949350505050565b6060336001600160a01b037f00000000000000000000000000000000000000000000000000000000000000001614610217575f80fd5b5f610224838501856114eb565b90505f61023c82604001515f0151835f015130610a9c565b925050505f610257836040015160200151845f015130610a9c565b92505050815f146102af5760405162461bcd60e51b815260206004820152601e60248201527f64656c74614265666f726530206973206e6f7420657175616c20746f2030000060448201526064015b60405180910390fd5b80156102fd5760405162461bcd60e51b815260206004820152601e60248201527f64656c74614265666f726531206973206e6f7420657175616c20746f2030000060448201526064016102a6565b5f7f00000000000000000000000000000000000000000000000000000000000000006001600160a01b031663f3cd914c8560400151866060015187608001516040518463ffffffff1660e01b815260040161035a9392919061159f565b6020604051808303815f875af1158015610376573d5f803e3d5ffd5b505050506040513d601f19601f8201168201806040525081019061039a91906114d4565b90505f6103b285604001515f0151865f015130610a9c565b925050505f6103cd866040015160200151875f015130610a9c565b9250505085606001515f01511561062f575f86606001516020015112156105125785606001516020015182121561047c5760405162461bcd60e51b815260206004820152604760248201527f64656c7461416674657230206973206e6f742067726561746572207468616e2060448201527f6f7220657175616c20746f20646174612e706172616d732e616d6f756e7453706064820152661958da599a595960ca1b608482015260a4016102a6565b816104878460801d90565b600f0b146104a75760405162461bcd60e51b81526004016102a6906115f0565b5f81121561050d5760405162461bcd60e51b815260206004820152602d60248201527f64656c7461416674657231206973206e6f742067726561746572207468616e2060448201526c06f7220657175616c20746f203609c1b60648201526084016102a6565b610878565b5f8213156105785760405162461bcd60e51b815260206004820152602d60248201527f64656c7461416674657230206973206e6f74206c657373207468616e206f722060448201526c657175616c20746f207a65726f60981b60648201526084016102a6565b8061058384600f0b90565b600f0b146105a35760405162461bcd60e51b81526004016102a69061163b565b85606001516020015181131561050d5760405162461bcd60e51b8152602060048201526044602482018190527f64656c7461416674657231206973206e6f74206c657373207468616e206f7220908201527f657175616c20746f20646174612e706172616d732e616d6f756e745370656369606482015263199a595960e21b608482015260a4016102a6565b5f866060015160200151121561075e578560600151602001518112156106cd5760405162461bcd60e51b815260206004820152604760248201527f64656c7461416674657231206973206e6f742067726561746572207468616e2060448201527f6f7220657175616c20746f20646174612e706172616d732e616d6f756e7453706064820152661958da599a595960ca1b608482015260a4016102a6565b806106d884600f0b90565b600f0b146106f85760405162461bcd60e51b81526004016102a69061163b565b5f82121561050d5760405162461bcd60e51b815260206004820152602d60248201527f64656c7461416674657230206973206e6f742067726561746572207468616e2060448201526c06f7220657175616c20746f203609c1b60648201526084016102a6565b5f8113156107c15760405162461bcd60e51b815260206004820152602a60248201527f64656c7461416674657231206973206e6f74206c657373207468616e206f72206044820152690657175616c20746f20360b41b60648201526084016102a6565b816107cc8460801d90565b600f0b146107ec5760405162461bcd60e51b81526004016102a6906115f0565b8560600151602001518213156108785760405162461bcd60e51b8152602060048201526044602482018190527f64656c7461416674657230206973206e6f74206c657373207468616e206f7220908201527f657175616c20746f20646174612e706172616d732e616d6f756e745370656369606482015263199a595960e21b608482015260a4016102a6565b5f8212156108d15785516108d1907f0000000000000000000000000000000000000000000000000000000000000000906108b185611686565b6020808b0151015160408b0151516001600160a01b031693929190610b28565b5f811215610936578551610936907f00000000000000000000000000000000000000000000000000000000000000009061090a84611686565b8960200151602001518a60400151602001516001600160a01b0316610b2890949392919063ffffffff16565b5f821315610986578551602087015151604088015151610986926001600160a01b03909116917f000000000000000000000000000000000000000000000000000000000000000091908690610e19565b5f8113156109da578551602080880151516040890151909101516109da926001600160a01b03909116917f000000000000000000000000000000000000000000000000000000000000000091908590610e19565b60408051602081018590520160405160208183030381529060405296505050505050505b92915050565b5f6001600160a01b038416610a40575f805f8085875af1905080610a3b57604051633d2cec6f60e21b815260040160405180910390fd5b610a96565b60405163a9059cbb60e01b5f52836004528260245260205f60445f80895af13d15601f3d1160015f511416171691505f606052806040525080610a9657604051633c9fd93960e21b815260040160405180910390fd5b50505050565b5f8080610ab26001600160a01b03871686610eeb565b9250610ae76001600160a01b0387167f0000000000000000000000000000000000000000000000000000000000000000610eeb565b9150610b1d6001600160a01b037f0000000000000000000000000000000000000000000000000000000000000000168588610f7a565b905093509350939050565b8015610bbd57836001600160a01b031663f5298aca84610b57886001600160a01b03166001600160a01b031690565b6040516001600160e01b031960e085901b1681526001600160a01b0390921660048301526024820152604481018590526064015b5f604051808303815f87803b158015610ba2575f80fd5b505af1158015610bb4573d5f803e3d5ffd5b50505050610e12565b6001600160a01b038516610c3d57604051636a256b2960e01b81526001600160a01b038681166004830152851690636a256b2990849060240160206040518083038185885af1158015610c12573d5f803e3d5ffd5b50505050506040513d601f19601f82011682018060405250810190610c3791906114d4565b50610e12565b604051632961046560e21b81526001600160a01b03868116600483015285169063a5841194906024016020604051808303815f875af1158015610c82573d5f803e3d5ffd5b505050506040513d601f19601f82011682018060405250810190610ca691906114d4565b506001600160a01b0383163014610d35576040516323b872dd60e01b81526001600160a01b0384811660048301528581166024830152604482018490528616906323b872dd906064016020604051808303815f875af1158015610d0b573d5f803e3d5ffd5b505050506040513d601f19601f82011682018060405250810190610d2f91906116ac565b50610da7565b60405163a9059cbb60e01b81526001600160a01b0385811660048301526024820184905286169063a9059cbb906044016020604051808303815f875af1158015610d81573d5f803e3d5ffd5b505050506040513d601f19601f82011682018060405250810190610da591906116ac565b505b604051636a256b2960e01b81526001600160a01b038681166004830152851690636a256b29906024016020604051808303815f875af1158015610dec573d5f803e3d5ffd5b505050506040513d601f19601f82011682018060405250810190610e1091906114d4565b505b5050505050565b80610e5b57604051630b0d9c0960e01b81526001600160a01b038681166004830152848116602483015260448201849052851690630b0d9c0990606401610b8b565b836001600160a01b031663156e29f684610e84886001600160a01b03166001600160a01b031690565b6040516001600160e01b031960e085901b1681526001600160a01b0390921660048301526024820152604481018590526064015f604051808303815f87803b158015610ece575f80fd5b505af1158015610ee0573d5f803e3d5ffd5b505050505050505050565b5f6001600160a01b038316610f0b57506001600160a01b038116316109fe565b6040516370a0823160e01b81526001600160a01b0383811660048301528416906370a0823190602401602060405180830381865afa158015610f4f573d5f803e3d5ffd5b505050506040513d601f19601f82011682018060405250810190610f7391906114d4565b90506109fe565b5f82815260208290526040808220905163789add5560e11b8152600481018290526001600160a01b0386169063f135baaa90602401602060405180830381865afa158015610fca573d5f803e3d5ffd5b505050506040513d601f19601f82011682018060405250810190610fee91906114d4565b95945050505050565b634e487b7160e01b5f52604160045260245ffd5b60405160a0810167ffffffffffffffff8111828210171561102e5761102e610ff7565b60405290565b604051601f8201601f1916810167ffffffffffffffff8111828210171561105d5761105d610ff7565b604052919050565b6001600160a01b0381168114611079575f80fd5b50565b5f60a0828403121561108c575f80fd5b61109461100b565b905081356110a181611065565b815260208201356110b181611065565b6020820152604082013562ffffff811681146110cb575f80fd5b60408201526060820135600281900b81146110e4575f80fd5b606082015260808201356110f781611065565b608082015292915050565b8015158114611079575f80fd5b5f6060828403121561111f575f80fd5b6040516060810181811067ffffffffffffffff8211171561114257611142610ff7565b604052905080823561115381611102565b815260208381013590820152604083013561116d81611065565b6040919091015292915050565b5f6040828403121561118a575f80fd5b6040516040810181811067ffffffffffffffff821117156111ad576111ad610ff7565b60405290508082356111be81611102565b815260208301356111ce81611102565b6020919091015292915050565b5f67ffffffffffffffff8211156111f4576111f4610ff7565b50601f01601f191660200190565b5f82601f830112611211575f80fd5b813561122461121f826111db565b611034565b818152846020838601011115611238575f80fd5b816020850160208301375f918101602001919091529392505050565b5f805f806101608587031215611268575f80fd5b611272868661107c565b93506112818660a0870161110f565b925061129186610100870161117a565b915061014085013567ffffffffffffffff8111156112ad575f80fd5b6112b987828801611202565b91505092959194509250565b5f80602083850312156112d6575f80fd5b823567ffffffffffffffff808211156112ed575f80fd5b818501915085601f830112611300575f80fd5b81358181111561130e575f80fd5b86602082850101111561131f575f80fd5b60209290920196919550909350505050565b5f5b8381101561134b578181015183820152602001611333565b50505f910152565b5f815180845261136a816020860160208601611331565b601f01601f19169290920160200192915050565b602081525f6113906020830184611353565b9392505050565b80516001600160a01b03908116835260208083015182169084015260408083015162ffffff169084015260608083015160020b9084015260809182015116910152565b602080825282516001600160a01b0316828201528281015180511515604080850191909152910151151560608301528201515f9061141b6080840182611397565b506060830151805115156101208401526020810151610140840152604001516001600160a01b03166101608301526080830151610180808401526114636101a0840182611353565b949350505050565b5f6020828403121561147b575f80fd5b815167ffffffffffffffff811115611491575f80fd5b8201601f810184136114a1575f80fd5b80516114af61121f826111db565b8181528560208385010111156114c3575f80fd5b610fee826020830160208601611331565b5f602082840312156114e4575f80fd5b5051919050565b5f602082840312156114fb575f80fd5b813567ffffffffffffffff80821115611512575f80fd5b908301906101808286031215611526575f80fd5b61152e61100b565b823561153981611065565b8152611548866020850161117a565b602082015261155a866060850161107c565b604082015261156d86610100850161110f565b606082015261016083013582811115611584575f80fd5b61159087828601611202565b60808301525095945050505050565b5f6101206115ad8387611397565b8451151560a0840152602085015160c084015260408501516001600160a01b031660e0840152806101008401526115e681840185611353565b9695505050505050565b6020808252602b908201527f64656c74612e616d6f756e74302829206973206e6f7420657175616c20746f2060408201526a064656c74614166746572360ac1b606082015260800190565b6020808252602b908201527f64656c74612e616d6f756e74312829206973206e6f7420657175616c20746f2060408201526a64656c746141667465723160a81b606082015260800190565b5f600160ff1b82016116a657634e487b7160e01b5f52601160045260245ffd5b505f0390565b5f602082840312156116bc575f80fd5b81516113908161110256fea26469706673582212200b29ef891992f98c7639b08e2b68d9139d4cd2dd006246ccec7d8bcff852a64f64736f6c63430008180033","linkReferences":{}},"methodIdentifiers":{"manager()":"481c6a75","swap((address,address,uint24,int24,address),(bool,int256,uint160),(bool,bool),bytes)":"2229d0b4","unlockCallback(bytes)":"91dd7346"},"id":66}