{"abi":[{"type":"constructor","inputs":[{"name":"_poolManager","type":"address","internalType":"contract IPoolManager"}],"stateMutability":"nonpayable"},{"type":"function","name":"afterAddLiquidity","inputs":[{"name":"","type":"address","internalType":"address"},{"name":"","type":"tuple","internalType":"struct PoolKey","components":[{"name":"currency0","type":"address","internalType":"Currency"},{"name":"currency1","type":"address","internalType":"Currency"},{"name":"fee","type":"uint24","internalType":"uint24"},{"name":"tickSpacing","type":"int24","internalType":"int24"},{"name":"hooks","type":"address","internalType":"contract IHooks"}]},{"name":"","type":"tuple","internalType":"struct IPoolManager.ModifyLiquidityParams","components":[{"name":"tickLower","type":"int24","internalType":"int24"},{"name":"tickUpper","type":"int24","internalType":"int24"},{"name":"liquidityDelta","type":"int256","internalType":"int256"},{"name":"salt","type":"bytes32","internalType":"bytes32"}]},{"name":"","type":"int256","internalType":"BalanceDelta"},{"name":"","type":"bytes","internalType":"bytes"}],"outputs":[{"name":"","type":"bytes4","internalType":"bytes4"},{"name":"","type":"int256","internalType":"BalanceDelta"}],"stateMutability":"nonpayable"},{"type":"function","name":"afterDonate","inputs":[{"name":"","type":"address","internalType":"address"},{"name":"","type":"tuple","internalType":"struct PoolKey","components":[{"name":"currency0","type":"address","internalType":"Currency"},{"name":"currency1","type":"address","internalType":"Currency"},{"name":"fee","type":"uint24","internalType":"uint24"},{"name":"tickSpacing","type":"int24","internalType":"int24"},{"name":"hooks","type":"address","internalType":"contract IHooks"}]},{"name":"","type":"uint256","internalType":"uint256"},{"name":"","type":"uint256","internalType":"uint256"},{"name":"","type":"bytes","internalType":"bytes"}],"outputs":[{"name":"","type":"bytes4","internalType":"bytes4"}],"stateMutability":"nonpayable"},{"type":"function","name":"afterInitialize","inputs":[{"name":"","type":"address","internalType":"address"},{"name":"","type":"tuple","internalType":"struct PoolKey","components":[{"name":"currency0","type":"address","internalType":"Currency"},{"name":"currency1","type":"address","internalType":"Currency"},{"name":"fee","type":"uint24","internalType":"uint24"},{"name":"tickSpacing","type":"int24","internalType":"int24"},{"name":"hooks","type":"address","internalType":"contract IHooks"}]},{"name":"","type":"uint160","internalType":"uint160"},{"name":"","type":"int24","internalType":"int24"},{"name":"","type":"bytes","internalType":"bytes"}],"outputs":[{"name":"","type":"bytes4","internalType":"bytes4"}],"stateMutability":"nonpayable"},{"type":"function","name":"afterRemoveLiquidity","inputs":[{"name":"","type":"address","internalType":"address"},{"name":"","type":"tuple","internalType":"struct PoolKey","components":[{"name":"currency0","type":"address","internalType":"Currency"},{"name":"currency1","type":"address","internalType":"Currency"},{"name":"fee","type":"uint24","internalType":"uint24"},{"name":"tickSpacing","type":"int24","internalType":"int24"},{"name":"hooks","type":"address","internalType":"contract IHooks"}]},{"name":"","type":"tuple","internalType":"struct IPoolManager.ModifyLiquidityParams","components":[{"name":"tickLower","type":"int24","internalType":"int24"},{"name":"tickUpper","type":"int24","internalType":"int24"},{"name":"liquidityDelta","type":"int256","internalType":"int256"},{"name":"salt","type":"bytes32","internalType":"bytes32"}]},{"name":"","type":"int256","internalType":"BalanceDelta"},{"name":"","type":"bytes","internalType":"bytes"}],"outputs":[{"name":"","type":"bytes4","internalType":"bytes4"},{"name":"","type":"int256","internalType":"BalanceDelta"}],"stateMutability":"nonpayable"},{"type":"function","name":"afterSwap","inputs":[{"name":"","type":"address","internalType":"address"},{"name":"key","type":"tuple","internalType":"struct PoolKey","components":[{"name":"currency0","type":"address","internalType":"Currency"},{"name":"currency1","type":"address","internalType":"Currency"},{"name":"fee","type":"uint24","internalType":"uint24"},{"name":"tickSpacing","type":"int24","internalType":"int24"},{"name":"hooks","type":"address","internalType":"contract IHooks"}]},{"name":"","type":"tuple","internalType":"struct IPoolManager.SwapParams","components":[{"name":"zeroForOne","type":"bool","internalType":"bool"},{"name":"amountSpecified","type":"int256","internalType":"int256"},{"name":"sqrtPriceLimitX96","type":"uint160","internalType":"uint160"}]},{"name":"","type":"int256","internalType":"BalanceDelta"},{"name":"","type":"bytes","internalType":"bytes"}],"outputs":[{"name":"","type":"bytes4","internalType":"bytes4"},{"name":"","type":"int128","internalType":"int128"}],"stateMutability":"nonpayable"},{"type":"function","name":"afterSwapCount","inputs":[{"name":"","type":"bytes32","internalType":"PoolId"}],"outputs":[{"name":"count","type":"uint256","internalType":"uint256"}],"stateMutability":"view"},{"type":"function","name":"beforeAddLiquidity","inputs":[{"name":"","type":"address","internalType":"address"},{"name":"key","type":"tuple","internalType":"struct PoolKey","components":[{"name":"currency0","type":"address","internalType":"Currency"},{"name":"currency1","type":"address","internalType":"Currency"},{"name":"fee","type":"uint24","internalType":"uint24"},{"name":"tickSpacing","type":"int24","internalType":"int24"},{"name":"hooks","type":"address","internalType":"contract IHooks"}]},{"name":"","type":"tuple","internalType":"struct IPoolManager.ModifyLiquidityParams","components":[{"name":"tickLower","type":"int24","internalType":"int24"},{"name":"tickUpper","type":"int24","internalType":"int24"},{"name":"liquidityDelta","type":"int256","internalType":"int256"},{"name":"salt","type":"bytes32","internalType":"bytes32"}]},{"name":"","type":"bytes","internalType":"bytes"}],"outputs":[{"name":"","type":"bytes4","internalType":"bytes4"}],"stateMutability":"nonpayable"},{"type":"function","name":"beforeAddLiquidityCount","inputs":[{"name":"","type":"bytes32","internalType":"PoolId"}],"outputs":[{"name":"count","type":"uint256","internalType":"uint256"}],"stateMutability":"view"},{"type":"function","name":"beforeDonate","inputs":[{"name":"","type":"address","internalType":"address"},{"name":"","type":"tuple","internalType":"struct PoolKey","components":[{"name":"currency0","type":"address","internalType":"Currency"},{"name":"currency1","type":"address","internalType":"Currency"},{"name":"fee","type":"uint24","internalType":"uint24"},{"name":"tickSpacing","type":"int24","internalType":"int24"},{"name":"hooks","type":"address","internalType":"contract IHooks"}]},{"name":"","type":"uint256","internalType":"uint256"},{"name":"","type":"uint256","internalType":"uint256"},{"name":"","type":"bytes","internalType":"bytes"}],"outputs":[{"name":"","type":"bytes4","internalType":"bytes4"}],"stateMutability":"nonpayable"},{"type":"function","name":"beforeInitialize","inputs":[{"name":"","type":"address","internalType":"address"},{"name":"","type":"tuple","internalType":"struct PoolKey","components":[{"name":"currency0","type":"address","internalType":"Currency"},{"name":"currency1","type":"address","internalType":"Currency"},{"name":"fee","type":"uint24","internalType":"uint24"},{"name":"tickSpacing","type":"int24","internalType":"int24"},{"name":"hooks","type":"address","internalType":"contract IHooks"}]},{"name":"","type":"uint160","internalType":"uint160"},{"name":"","type":"bytes","internalType":"bytes"}],"outputs":[{"name":"","type":"bytes4","internalType":"bytes4"}],"stateMutability":"nonpayable"},{"type":"function","name":"beforeRemoveLiquidity","inputs":[{"name":"","type":"address","internalType":"address"},{"name":"key","type":"tuple","internalType":"struct PoolKey","components":[{"name":"currency0","type":"address","internalType":"Currency"},{"name":"currency1","type":"address","internalType":"Currency"},{"name":"fee","type":"uint24","internalType":"uint24"},{"name":"tickSpacing","type":"int24","internalType":"int24"},{"name":"hooks","type":"address","internalType":"contract IHooks"}]},{"name":"","type":"tuple","internalType":"struct IPoolManager.ModifyLiquidityParams","components":[{"name":"tickLower","type":"int24","internalType":"int24"},{"name":"tickUpper","type":"int24","internalType":"int24"},{"name":"liquidityDelta","type":"int256","internalType":"int256"},{"name":"salt","type":"bytes32","internalType":"bytes32"}]},{"name":"","type":"bytes","internalType":"bytes"}],"outputs":[{"name":"","type":"bytes4","internalType":"bytes4"}],"stateMutability":"nonpayable"},{"type":"function","name":"beforeRemoveLiquidityCount","inputs":[{"name":"","type":"bytes32","internalType":"PoolId"}],"outputs":[{"name":"count","type":"uint256","internalType":"uint256"}],"stateMutability":"view"},{"type":"function","name":"beforeSwap","inputs":[{"name":"","type":"address","internalType":"address"},{"name":"key","type":"tuple","internalType":"struct PoolKey","components":[{"name":"currency0","type":"address","internalType":"Currency"},{"name":"currency1","type":"address","internalType":"Currency"},{"name":"fee","type":"uint24","internalType":"uint24"},{"name":"tickSpacing","type":"int24","internalType":"int24"},{"name":"hooks","type":"address","internalType":"contract IHooks"}]},{"name":"","type":"tuple","internalType":"struct IPoolManager.SwapParams","components":[{"name":"zeroForOne","type":"bool","internalType":"bool"},{"name":"amountSpecified","type":"int256","internalType":"int256"},{"name":"sqrtPriceLimitX96","type":"uint160","internalType":"uint160"}]},{"name":"","type":"bytes","internalType":"bytes"}],"outputs":[{"name":"","type":"bytes4","internalType":"bytes4"},{"name":"","type":"int256","internalType":"BeforeSwapDelta"},{"name":"","type":"uint24","internalType":"uint24"}],"stateMutability":"nonpayable"},{"type":"function","name":"beforeSwapCount","inputs":[{"name":"","type":"bytes32","internalType":"PoolId"}],"outputs":[{"name":"count","type":"uint256","internalType":"uint256"}],"stateMutability":"view"},{"type":"function","name":"getHookPermissions","inputs":[],"outputs":[{"name":"","type":"tuple","internalType":"struct Hooks.Permissions","components":[{"name":"beforeInitialize","type":"bool","internalType":"bool"},{"name":"afterInitialize","type":"bool","internalType":"bool"},{"name":"beforeAddLiquidity","type":"bool","internalType":"bool"},{"name":"afterAddLiquidity","type":"bool","internalType":"bool"},{"name":"beforeRemoveLiquidity","type":"bool","internalType":"bool"},{"name":"afterRemoveLiquidity","type":"bool","internalType":"bool"},{"name":"beforeSwap","type":"bool","internalType":"bool"},{"name":"afterSwap","type":"bool","internalType":"bool"},{"name":"beforeDonate","type":"bool","internalType":"bool"},{"name":"afterDonate","type":"bool","internalType":"bool"},{"name":"beforeSwapReturnDelta","type":"bool","internalType":"bool"},{"name":"afterSwapReturnDelta","type":"bool","internalType":"bool"},{"name":"afterAddLiquidityReturnDelta","type":"bool","internalType":"bool"},{"name":"afterRemoveLiquidityReturnDelta","type":"bool","internalType":"bool"}]}],"stateMutability":"pure"},{"type":"function","name":"poolManager","inputs":[],"outputs":[{"name":"","type":"address","internalType":"contract IPoolManager"}],"stateMutability":"view"},{"type":"function","name":"unlockCallback","inputs":[{"name":"data","type":"bytes","internalType":"bytes"}],"outputs":[{"name":"","type":"bytes","internalType":"bytes"}],"stateMutability":"nonpayable"},{"type":"error","name":"HookAddressNotValid","inputs":[{"name":"hooks","type":"address","internalType":"address"}]},{"type":"error","name":"HookNotImplemented","inputs":[]},{"type":"error","name":"InvalidPool","inputs":[]},{"type":"error","name":"LockFailure","inputs":[]},{"type":"error","name":"NotPoolManager","inputs":[]},{"type":"error","name":"NotSelf","inputs":[]}],"bytecode":{"object":"0x60a060405234801562000010575f80fd5b5060405162000f9838038062000f988339810160408190526200003391620002c2565b6001600160a01b038116608052806200004c3062000054565b5050620002f1565b6200014a8162000144604080516101c0810182525f80825260208201819052918101829052606081018290526080810182905260a0810182905260c0810182905260e08101829052610100810182905261012081018290526101408101829052610160810182905261018081018290526101a081019190915250604080516101c0810182525f808252602082018190526001928201839052606082018190526080820183905260a0820181905260c0820183905260e0820192909252610100810182905261012081018290526101408101829052610160810182905261018081018290526101a081019190915290565b6200014d565b50565b8051151561200083161515141580620001725750602081015115156110008316151514155b806200018a5750604081015115156108008316151514155b80620001a25750606081015115156104008316151514155b80620001ba5750608081015115156102008316151514155b80620001d2575060a081015115156101008316151514155b80620001e9575060c0810151151560808316151514155b8062000200575060e0810151151560408316151514155b80620002185750610100810151151560208316151514155b80620002305750610120810151151560108316151514155b80620002485750610140810151151560088316151514155b80620002605750610160810151151560048316151514155b80620002785750610180810151151560028316151514155b806200029057506101a0810151151560018316151514155b15620002be57604051630732d7b560e51b81526001600160a01b038316600482015260240160405180910390fd5b5050565b5f60208284031215620002d3575f80fd5b81516001600160a01b0381168114620002ea575f80fd5b9392505050565b608051610c87620003115f395f81816103ca01526105320152610c875ff3fe608060405234801561000f575f80fd5b5060043610610106575f3560e01c8063a910f80f1161009e578063c69399571161006e578063c693995714610368578063dacdbe7714610387578063db6a9451146103a6578063dc4c90d3146103c5578063e1b4af6914610263575f80fd5b8063a910f80f1461021f578063b47b2fb11461022d578063b6a8b0fa14610263578063c4e833ce14610271575f80fd5b80635a2a8100116100d95780635a2a81001461019f5780635c338d32146101d25780638db2b6521461019f57806391dd7346146101ff575f80fd5b806321d0ee701461010a578063259982e51461013b5780633440d8201461014e578063575e24b414610161575b5f80fd5b61011d6101183660046106ee565b610404565b6040516001600160e01b031990911681526020015b60405180910390f35b61011d6101493660046106ee565b610455565b61011d61015c366004610765565b61049f565b61017461016f3660046107cf565b6104b9565b604080516001600160e01b03199094168452602084019290925262ffffff1690820152606001610132565b6101b26101ad366004610829565b61050a565b604080516001600160e01b03199093168352602083019190915201610132565b6101f16101e03660046108aa565b5f6020819052908152604090205481565b604051908152602001610132565b61021261020d3660046108c1565b610525565b6040516101329190610900565b61011d61015c36600461095d565b61024061023b3660046109c7565b61060d565b604080516001600160e01b03199093168352600f9190910b602083015201610132565b61011d61015c366004610a2a565b61035b604080516101c0810182525f80825260208201819052918101829052606081018290526080810182905260a0810182905260c0810182905260e08101829052610100810182905261012081018290526101408101829052610160810182905261018081018290526101a081019190915250604080516101c0810182525f808252602082018190526001928201839052606082018190526080820183905260a0820181905260c0820183905260e0820192909252610100810182905261012081018290526101408101829052610160810182905261018081018290526101a081019190915290565b6040516101329190610a84565b6101f16103763660046108aa565b60026020525f908152604090205481565b6101f16103953660046108aa565b60016020525f908152604090205481565b6101f16103b43660046108aa565b60036020525f908152604090205481565b6103ec7f000000000000000000000000000000000000000000000000000000000000000081565b6040516001600160a01b039091168152602001610132565b5f60038161042161041a36899003890189610b82565b60a0902090565b81526020019081526020015f205f81548092919061043e90610c1e565b9091555063021d0ee760e41b979650505050505050565b5f60028161046b61041a36899003890189610b82565b81526020019081526020015f205f81548092919061048890610c1e565b9091555063259982e560e01b979650505050505050565b5f604051630a85dc2960e01b815260040160405180910390fd5b5f808080806104d061041a368b90038b018b610b82565b81526020019081526020015f205f8154809291906104ed90610c1e565b909155506315d7892d60e21b995f99508998509650505050505050565b5f80604051630a85dc2960e01b815260040160405180910390fd5b6060336001600160a01b037f000000000000000000000000000000000000000000000000000000000000000016146105705760405163570c108560e11b815260040160405180910390fd5b5f80306001600160a01b0316858560405161058c929190610c42565b5f604051808303815f865af19150503d805f81146105c5576040519150601f19603f3d011682016040523d82523d5f602084013e6105ca565b606091505b509150915081156105de5791506106079050565b80515f036105ff576040516314815f4760e31b815260040160405180910390fd5b805160208201fd5b92915050565b5f8060018161062461041a368b90038b018b610b82565b81526020019081526020015f205f81548092919061064190610c1e565b9091555063b47b2fb160e01b995f9950975050505050505050565b6001600160a01b0381168114610670575f80fd5b50565b803561067e8161065c565b919050565b5f60a08284031215610693575f80fd5b50919050565b5f60808284031215610693575f80fd5b5f8083601f8401126106b9575f80fd5b50813567ffffffffffffffff8111156106d0575f80fd5b6020830191508360208285010111156106e7575f80fd5b9250929050565b5f805f805f6101608688031215610703575f80fd5b853561070e8161065c565b945061071d8760208801610683565b935061072c8760c08801610699565b925061014086013567ffffffffffffffff811115610748575f80fd5b610754888289016106a9565b969995985093965092949392505050565b5f805f805f610100868803121561077a575f80fd5b85356107858161065c565b94506107948760208801610683565b935060c08601356107a48161065c565b925060e086013567ffffffffffffffff811115610748575f80fd5b5f60608284031215610693575f80fd5b5f805f805f61014086880312156107e4575f80fd5b85356107ef8161065c565b94506107fe8760208801610683565b935061080d8760c088016107bf565b925061012086013567ffffffffffffffff811115610748575f80fd5b5f805f805f80610180878903121561083f575f80fd5b863561084a8161065c565b95506108598860208901610683565b94506108688860c08901610699565b9350610140870135925061016087013567ffffffffffffffff81111561088c575f80fd5b61089889828a016106a9565b979a9699509497509295939492505050565b5f602082840312156108ba575f80fd5b5035919050565b5f80602083850312156108d2575f80fd5b823567ffffffffffffffff8111156108e8575f80fd5b6108f4858286016106a9565b90969095509350505050565b5f602080835283518060208501525f5b8181101561092c57858101830151858201604001528201610910565b505f604082860101526040601f19601f8301168501019250505092915050565b8035600281900b811461067e575f80fd5b5f805f805f806101208789031215610973575f80fd5b863561097e8161065c565b955061098d8860208901610683565b945060c087013561099d8161065c565b93506109ab60e0880161094c565b925061010087013567ffffffffffffffff81111561088c575f80fd5b5f805f805f8061016087890312156109dd575f80fd5b86356109e88161065c565b95506109f78860208901610683565b9450610a068860c089016107bf565b9350610120870135925061014087013567ffffffffffffffff81111561088c575f80fd5b5f805f805f806101208789031215610a40575f80fd5b8635610a4b8161065c565b9550610a5a8860208901610683565b945060c0870135935060e0870135925061010087013567ffffffffffffffff81111561088c575f80fd5b8151151581526101c081016020830151610aa2602084018215159052565b506040830151610ab6604084018215159052565b506060830151610aca606084018215159052565b506080830151610ade608084018215159052565b5060a0830151610af260a084018215159052565b5060c0830151610b0660c084018215159052565b5060e0830151610b1a60e084018215159052565b5061010083810151151590830152610120808401511515908301526101408084015115159083015261016080840151151590830152610180808401511515908301526101a0928301511515929091019190915290565b803562ffffff8116811461067e575f80fd5b5f60a08284031215610b92575f80fd5b60405160a0810181811067ffffffffffffffff82111715610bc157634e487b7160e01b5f52604160045260245ffd5b6040528235610bcf8161065c565b81526020830135610bdf8161065c565b6020820152610bf060408401610b70565b6040820152610c016060840161094c565b6060820152610c1260808401610673565b60808201529392505050565b5f60018201610c3b57634e487b7160e01b5f52601160045260245ffd5b5060010190565b818382375f910190815291905056fea264697066735822122088c92ea071b936ab979d46513a073f6ebbb6872e435733032620a53b3630ef6264736f6c63430008180033","linkReferences":{}},"methodIdentifiers":{"afterAddLiquidity(address,(address,address,uint24,int24,address),(int24,int24,int256,bytes32),int256,bytes)":"5a2a8100","afterDonate(address,(address,address,uint24,int24,address),uint256,uint256,bytes)":"e1b4af69","afterInitialize(address,(address,address,uint24,int24,address),uint160,int24,bytes)":"a910f80f","afterRemoveLiquidity(address,(address,address,uint24,int24,address),(int24,int24,int256,bytes32),int256,bytes)":"8db2b652","afterSwap(address,(address,address,uint24,int24,address),(bool,int256,uint160),int256,bytes)":"b47b2fb1","afterSwapCount(bytes32)":"dacdbe77","beforeAddLiquidity(address,(address,address,uint24,int24,address),(int24,int24,int256,bytes32),bytes)":"259982e5","beforeAddLiquidityCount(bytes32)":"c6939957","beforeDonate(address,(address,address,uint24,int24,address),uint256,uint256,bytes)":"b6a8b0fa","beforeInitialize(address,(address,address,uint24,int24,address),uint160,bytes)":"3440d820","beforeRemoveLiquidity(address,(address,address,uint24,int24,address),(int24,int24,int256,bytes32),bytes)":"21d0ee70","beforeRemoveLiquidityCount(bytes32)":"db6a9451","beforeSwap(address,(address,address,uint24,int24,address),(bool,int256,uint160),bytes)":"575e24b4","beforeSwapCount(bytes32)":"5c338d32","getHookPermissions()":"c4e833ce","poolManager()":"dc4c90d3","unlockCallback(bytes)":"91dd7346"},"id":99}