{"abi":[{"type":"constructor","inputs":[{"name":"_manager","type":"address","internalType":"contract IPoolManager"}],"stateMutability":"nonpayable"},{"type":"function","name":"manager","inputs":[],"outputs":[{"name":"","type":"address","internalType":"contract IPoolManager"}],"stateMutability":"view"},{"type":"function","name":"swap","inputs":[{"name":"key","type":"tuple","internalType":"struct PoolKey","components":[{"name":"currency0","type":"address","internalType":"Currency"},{"name":"currency1","type":"address","internalType":"Currency"},{"name":"fee","type":"uint24","internalType":"uint24"},{"name":"tickSpacing","type":"int24","internalType":"int24"},{"name":"hooks","type":"address","internalType":"contract IHooks"}]},{"name":"params","type":"tuple","internalType":"struct IPoolManager.SwapParams","components":[{"name":"zeroForOne","type":"bool","internalType":"bool"},{"name":"amountSpecified","type":"int256","internalType":"int256"},{"name":"sqrtPriceLimitX96","type":"uint160","internalType":"uint160"}]}],"outputs":[],"stateMutability":"payable"},{"type":"function","name":"unlockCallback","inputs":[{"name":"rawData","type":"bytes","internalType":"bytes"}],"outputs":[{"name":"","type":"bytes","internalType":"bytes"}],"stateMutability":"nonpayable"},{"type":"error","name":"NoSwapOccurred","inputs":[]}],"bytecode":{"object":"0x60a060405234801561000f575f80fd5b50604051610d82380380610d8283398101604081905261002e9161003f565b6001600160a01b031660805261006c565b5f6020828403121561004f575f80fd5b81516001600160a01b0381168114610065575f80fd5b9392505050565b608051610ccf6100b35f395f8181605d0152818160ca015281816101aa015281816101e5015281816102d1015281816103270152818161037b01526103d30152610ccf5ff3fe608060405260043610610033575f3560e01c80631e2817de14610037578063481c6a751461004c57806391dd73461461009c575b5f80fd5b61004a610045366004610945565b6100c8565b005b348015610057575f80fd5b5061007f7f000000000000000000000000000000000000000000000000000000000000000081565b6040516001600160a01b0390911681526020015b60405180910390f35b3480156100a7575f80fd5b506100bb6100b6366004610979565b61019d565b6040516100939190610a32565b7f00000000000000000000000000000000000000000000000000000000000000006001600160a01b03166348c894916040518060600160405280336001600160a01b031681526020018581526020018481525060405160200161012b9190610a8e565b6040516020818303038152906040526040518263ffffffff1660e01b81526004016101569190610a32565b5f604051808303815f875af1158015610171573d5f803e3d5ffd5b505050506040513d5f823e601f3d908101601f191682016040526101989190810190610ae4565b505050565b6060336001600160a01b037f000000000000000000000000000000000000000000000000000000000000000016146101d3575f80fd5b5f6101e083850185610b8c565b90505f7f00000000000000000000000000000000000000000000000000000000000000006001600160a01b031663f3cd914c836020015184604001515f67ffffffffffffffff811115610235576102356107e6565b6040519080825280601f01601f19166020018201604052801561025f576020820181803683370190505b506040518463ffffffff1660e01b815260040161027e93929190610bdd565b6020604051808303815f875af115801561029a573d5f803e3d5ffd5b505050506040513d601f19601f820116820180604052508101906102be9190610c2e565b60408301515190915015610376576103227f0000000000000000000000000000000000000000000000000000000000000000835f01516102fe8460801d90565b61030790610c45565b6020860151516001600160a01b0316929190600f0b5f610423565b6103717f0000000000000000000000000000000000000000000000000000000000000000835f015161035484600f0b90565b60208087015101516001600160a01b0316929190600f0b5f610714565b61041b565b6103ce7f0000000000000000000000000000000000000000000000000000000000000000835f01516103a884600f0b90565b6103b190610c45565b60208087015101516001600160a01b0316929190600f0b5f610423565b61041b7f0000000000000000000000000000000000000000000000000000000000000000835f01516104008460801d90565b6020860151516001600160a01b0316929190600f0b5f610714565b505092915050565b80156104b857836001600160a01b031663f5298aca84610452886001600160a01b03166001600160a01b031690565b6040516001600160e01b031960e085901b1681526001600160a01b0390921660048301526024820152604481018590526064015b5f604051808303815f87803b15801561049d575f80fd5b505af11580156104af573d5f803e3d5ffd5b5050505061070d565b6001600160a01b03851661053857604051636a256b2960e01b81526001600160a01b038681166004830152851690636a256b2990849060240160206040518083038185885af115801561050d573d5f803e3d5ffd5b50505050506040513d601f19601f820116820180604052508101906105329190610c2e565b5061070d565b604051632961046560e21b81526001600160a01b03868116600483015285169063a5841194906024016020604051808303815f875af115801561057d573d5f803e3d5ffd5b505050506040513d601f19601f820116820180604052508101906105a19190610c2e565b506001600160a01b0383163014610630576040516323b872dd60e01b81526001600160a01b0384811660048301528581166024830152604482018490528616906323b872dd906064016020604051808303815f875af1158015610606573d5f803e3d5ffd5b505050506040513d601f19601f8201168201806040525081019061062a9190610c7e565b506106a2565b60405163a9059cbb60e01b81526001600160a01b0385811660048301526024820184905286169063a9059cbb906044016020604051808303815f875af115801561067c573d5f803e3d5ffd5b505050506040513d601f19601f820116820180604052508101906106a09190610c7e565b505b604051636a256b2960e01b81526001600160a01b038681166004830152851690636a256b29906024016020604051808303815f875af11580156106e7573d5f803e3d5ffd5b505050506040513d601f19601f8201168201806040525081019061070b9190610c2e565b505b5050505050565b8061075657604051630b0d9c0960e01b81526001600160a01b038681166004830152848116602483015260448201849052851690630b0d9c0990606401610486565b836001600160a01b031663156e29f68461077f886001600160a01b03166001600160a01b031690565b6040516001600160e01b031960e085901b1681526001600160a01b0390921660048301526024820152604481018590526064015f604051808303815f87803b1580156107c9575f80fd5b505af11580156107db573d5f803e3d5ffd5b505050505050505050565b634e487b7160e01b5f52604160045260245ffd5b6040516060810167ffffffffffffffff8111828210171561081d5761081d6107e6565b60405290565b6001600160a01b0381168114610837575f80fd5b50565b803561084581610823565b919050565b5f60a0828403121561085a575f80fd5b60405160a0810181811067ffffffffffffffff8211171561087d5761087d6107e6565b604052905080823561088e81610823565b8152602083013561089e81610823565b6020820152604083013562ffffff811681146108b8575f80fd5b60408201526060830135600281900b81146108d1575f80fd5b60608201526108e26080840161083a565b60808201525092915050565b8015158114610837575f80fd5b5f6060828403121561090b575f80fd5b6109136107fa565b90508135610920816108ee565b815260208281013590820152604082013561093a81610823565b604082015292915050565b5f806101008385031215610957575f80fd5b610961848461084a565b91506109708460a085016108fb565b90509250929050565b5f806020838503121561098a575f80fd5b823567ffffffffffffffff808211156109a1575f80fd5b818501915085601f8301126109b4575f80fd5b8135818111156109c2575f80fd5b8660208285010111156109d3575f80fd5b60209290920196919550909350505050565b5f5b838110156109ff5781810151838201526020016109e7565b50505f910152565b5f8151808452610a1e8160208601602086016109e5565b601f01601f19169290920160200192915050565b602081525f610a446020830184610a07565b9392505050565b80516001600160a01b03908116835260208083015182169084015260408083015162ffffff169084015260608083015160020b9084015260809182015116910152565b81516001600160a01b03168152602080830151610120830191610ab390840182610a4b565b506040928301518051151560c0840152602081015160e0840152909201516001600160a01b03166101009091015290565b5f60208284031215610af4575f80fd5b815167ffffffffffffffff80821115610b0b575f80fd5b818401915084601f830112610b1e575f80fd5b815181811115610b3057610b306107e6565b604051601f8201601f19908116603f01168101908382118183101715610b5857610b586107e6565b81604052828152876020848701011115610b70575f80fd5b610b818360208301602088016109e5565b979650505050505050565b5f6101208284031215610b9d575f80fd5b610ba56107fa565b8235610bb081610823565b8152610bbf846020850161084a565b6020820152610bd18460c085016108fb565b60408201529392505050565b5f610120610beb8387610a4b565b8451151560a0840152602085015160c084015260408501516001600160a01b031660e084015280610100840152610c2481840185610a07565b9695505050505050565b5f60208284031215610c3e575f80fd5b5051919050565b5f81600f0b6f7fffffffffffffffffffffffffffffff198103610c7657634e487b7160e01b5f52601160045260245ffd5b5f0392915050565b5f60208284031215610c8e575f80fd5b8151610a44816108ee56fea26469706673582212208908334718eb10db4e8110a12660d8e41a1dc2c4f87d317783f207167b3f4ea264736f6c63430008180033","linkReferences":{}},"methodIdentifiers":{"manager()":"481c6a75","swap((address,address,uint24,int24,address),(bool,int256,uint160))":"1e2817de","unlockCallback(bytes)":"91dd7346"},"id":71}