{"abi":[{"type":"function","name":"protocolFeeForPool","inputs":[{"name":"","type":"tuple","internalType":"struct PoolKey","components":[{"name":"currency0","type":"address","internalType":"Currency"},{"name":"currency1","type":"address","internalType":"Currency"},{"name":"fee","type":"uint24","internalType":"uint24"},{"name":"tickSpacing","type":"int24","internalType":"int24"},{"name":"hooks","type":"address","internalType":"contract IHooks"}]}],"outputs":[{"name":"","type":"uint24","internalType":"uint24"}],"stateMutability":"view"}],"bytecode":{"object":"0x608060405234801561000f575f80fd5b5061018a8061001d5f395ff3fe608060405234801561000f575f80fd5b5060043610610029575f3560e01c8063553bfc371461002d575b5f80fd5b61004061003b3660046100b8565b610058565b60405162ffffff909116815260200160405180910390f35b5f80309050604051818152816020820152602081f35b6001600160a01b0381168114610082575f80fd5b50565b80356100908161006e565b919050565b803562ffffff81168114610090575f80fd5b8035600281900b8114610090575f80fd5b5f60a082840312156100c8575f80fd5b60405160a0810181811067ffffffffffffffff821117156100f757634e487b7160e01b5f52604160045260245ffd5b60405282356101058161006e565b815260208301356101158161006e565b602082015261012660408401610095565b6040820152610137606084016100a7565b606082015261014860808401610085565b6080820152939250505056fea2646970667358221220b9e6fbc8cf0275d4b37a02cd8e2a3dfc09f25e65e7f64bf494354a0e4982905864736f6c63430008180033","linkReferences":{}},"methodIdentifiers":{"protocolFeeForPool((address,address,uint24,int24,address))":"553bfc37"},"id":69}