{"abi":[{"type":"function","name":"protocolFeeForPool","inputs":[{"name":"","type":"tuple","internalType":"struct PoolKey","components":[{"name":"currency0","type":"address","internalType":"Currency"},{"name":"currency1","type":"address","internalType":"Currency"},{"name":"fee","type":"uint24","internalType":"uint24"},{"name":"tickSpacing","type":"int24","internalType":"int24"},{"name":"hooks","type":"address","internalType":"contract IHooks"}]}],"outputs":[{"name":"","type":"uint24","internalType":"uint24"}],"stateMutability":"pure"}],"bytecode":{"object":"0x608060405234801561000f575f80fd5b506101858061001d5f395ff3fe608060405234801561000f575f80fd5b5060043610610029575f3560e01c8063553bfc371461002d575b5f80fd5b61004061003b3660046100b3565b610058565b60405162ffffff909116815260200160405180910390f35b5f60405164ffffaaa0018152602081f35b6001600160a01b038116811461007d575f80fd5b50565b803561008b81610069565b919050565b803562ffffff8116811461008b575f80fd5b8035600281900b811461008b575f80fd5b5f60a082840312156100c3575f80fd5b60405160a0810181811067ffffffffffffffff821117156100f257634e487b7160e01b5f52604160045260245ffd5b604052823561010081610069565b8152602083013561011081610069565b602082015261012160408401610090565b6040820152610132606084016100a2565b606082015261014360808401610080565b6080820152939250505056fea26469706673582212203de079b892f1a8e7c18c2c0d89f2c9df775d6d28fe2148ba639f92fbb9f801a064736f6c63430008180033","linkReferences":{}},"methodIdentifiers":{"protocolFeeForPool((address,address,uint24,int24,address))":"553bfc37"},"id":70}