{"abi":[{"type":"constructor","inputs":[{"name":"_manager","type":"address","internalType":"contract IPoolManager"}],"stateMutability":"nonpayable"},{"type":"function","name":"manager","inputs":[],"outputs":[{"name":"","type":"address","internalType":"contract IPoolManager"}],"stateMutability":"view"},{"type":"function","name":"settle","inputs":[{"name":"key","type":"tuple","internalType":"struct PoolKey","components":[{"name":"currency0","type":"address","internalType":"Currency"},{"name":"currency1","type":"address","internalType":"Currency"},{"name":"fee","type":"uint24","internalType":"uint24"},{"name":"tickSpacing","type":"int24","internalType":"int24"},{"name":"hooks","type":"address","internalType":"contract IHooks"}]}],"outputs":[],"stateMutability":"payable"},{"type":"function","name":"unlockCallback","inputs":[{"name":"rawData","type":"bytes","internalType":"bytes"}],"outputs":[{"name":"","type":"bytes","internalType":"bytes"}],"stateMutability":"nonpayable"}],"bytecode":{"object":"0x60a060405234801561000f575f80fd5b5060405161067338038061067383398101604081905261002e9161003f565b6001600160a01b031660805261006c565b5f6020828403121561004f575f80fd5b81516001600160a01b0381168114610065575f80fd5b9392505050565b6080516105db6100985f395f8181604801528181610133015281816101db015261023901526105db5ff3fe608060405260043610610033575f3560e01c8063481c6a75146100375780636c68a77b1461008757806391dd73461461009c575b5f80fd5b348015610042575f80fd5b5061006a7f000000000000000000000000000000000000000000000000000000000000000081565b6040516001600160a01b0390911681526020015b60405180910390f35b61009a6100953660046103a9565b6100c8565b005b3480156100a7575f80fd5b506100bb6100b63660046103ca565b6101ce565b60405161007e9190610458565b6040805180820182523380825260209182018481528351808401929092525180516001600160a01b03908116838601529281015183166060808401919091529381015162ffffff166080808401919091529381015160020b60a08301529290920151811660c08301527f000000000000000000000000000000000000000000000000000000000000000016906348c894919060e0016040516020818303038152906040526040518263ffffffff1660e01b81526004016101889190610458565b5f604051808303815f875af11580156101a3573d5f803e3d5ffd5b505050506040513d5f823e601f3d908101601f191682016040526101ca919081019061048a565b5050565b6060336001600160a01b037f00000000000000000000000000000000000000000000000000000000000000001614610204575f80fd5b5f61021183850185610532565b602081015151604051636a256b2960e01b81526001600160a01b0391821660048201529192507f00000000000000000000000000000000000000000000000000000000000000001690636a256b2990479060240160206040518083038185885af1158015610281573d5f803e3d5ffd5b50505050506040513d601f19601f820116820180604052508101906102a6919061058e565b50604080515f60208201520160405160208183030381529060405291505092915050565b634e487b7160e01b5f52604160045260245ffd5b6001600160a01b03811681146102f2575f80fd5b50565b8035610300816102de565b919050565b5f60a08284031215610315575f80fd5b60405160a0810181811067ffffffffffffffff82111715610338576103386102ca565b6040529050808235610349816102de565b81526020830135610359816102de565b6020820152604083013562ffffff81168114610373575f80fd5b60408201526060830135600281900b811461038c575f80fd5b606082015261039d608084016102f5565b60808201525092915050565b5f60a082840312156103b9575f80fd5b6103c38383610305565b9392505050565b5f80602083850312156103db575f80fd5b823567ffffffffffffffff808211156103f2575f80fd5b818501915085601f830112610405575f80fd5b813581811115610413575f80fd5b866020828501011115610424575f80fd5b60209290920196919550909350505050565b5f5b83811015610450578181015183820152602001610438565b50505f910152565b602081525f8251806020840152610476816040850160208701610436565b601f01601f19169190910160400192915050565b5f6020828403121561049a575f80fd5b815167ffffffffffffffff808211156104b1575f80fd5b818401915084601f8301126104c4575f80fd5b8151818111156104d6576104d66102ca565b604051601f8201601f19908116603f011681019083821181831017156104fe576104fe6102ca565b81604052828152876020848701011115610516575f80fd5b610527836020830160208801610436565b979650505050505050565b5f60c08284031215610542575f80fd5b6040516040810181811067ffffffffffffffff82111715610565576105656102ca565b6040528235610573816102de565b81526105828460208501610305565b60208201529392505050565b5f6020828403121561059e575f80fd5b505191905056fea2646970667358221220c191c35bf39b81dcae421921fe0b913796e65e3a43386ab2749e755e79d680f664736f6c63430008180033","linkReferences":{}},"methodIdentifiers":{"manager()":"481c6a75","settle((address,address,uint24,int24,address))":"6c68a77b","unlockCallback(bytes)":"91dd7346"},"id":66}