{"abi":[{"type":"constructor","inputs":[{"name":"_manager","type":"address","internalType":"contract IPoolManager"}],"stateMutability":"nonpayable"},{"type":"function","name":"manager","inputs":[],"outputs":[{"name":"","type":"address","internalType":"contract IPoolManager"}],"stateMutability":"view"},{"type":"function","name":"modifyLiquidity","inputs":[{"name":"key","type":"tuple","internalType":"struct PoolKey","components":[{"name":"currency0","type":"address","internalType":"Currency"},{"name":"currency1","type":"address","internalType":"Currency"},{"name":"fee","type":"uint24","internalType":"uint24"},{"name":"tickSpacing","type":"int24","internalType":"int24"},{"name":"hooks","type":"address","internalType":"contract IHooks"}]},{"name":"params","type":"tuple","internalType":"struct IPoolManager.ModifyLiquidityParams","components":[{"name":"tickLower","type":"int24","internalType":"int24"},{"name":"tickUpper","type":"int24","internalType":"int24"},{"name":"liquidityDelta","type":"int256","internalType":"int256"},{"name":"salt","type":"bytes32","internalType":"bytes32"}]},{"name":"hookData","type":"bytes","internalType":"bytes"},{"name":"settleUsingBurn","type":"bool","internalType":"bool"},{"name":"takeClaims","type":"bool","internalType":"bool"}],"outputs":[{"name":"delta","type":"int256","internalType":"BalanceDelta"}],"stateMutability":"payable"},{"type":"function","name":"modifyLiquidity","inputs":[{"name":"key","type":"tuple","internalType":"struct PoolKey","components":[{"name":"currency0","type":"address","internalType":"Currency"},{"name":"currency1","type":"address","internalType":"Currency"},{"name":"fee","type":"uint24","internalType":"uint24"},{"name":"tickSpacing","type":"int24","internalType":"int24"},{"name":"hooks","type":"address","internalType":"contract IHooks"}]},{"name":"params","type":"tuple","internalType":"struct IPoolManager.ModifyLiquidityParams","components":[{"name":"tickLower","type":"int24","internalType":"int24"},{"name":"tickUpper","type":"int24","internalType":"int24"},{"name":"liquidityDelta","type":"int256","internalType":"int256"},{"name":"salt","type":"bytes32","internalType":"bytes32"}]},{"name":"hookData","type":"bytes","internalType":"bytes"}],"outputs":[{"name":"delta","type":"int256","internalType":"BalanceDelta"}],"stateMutability":"payable"},{"type":"function","name":"unlockCallback","inputs":[{"name":"rawData","type":"bytes","internalType":"bytes"}],"outputs":[{"name":"","type":"bytes","internalType":"bytes"}],"stateMutability":"nonpayable"},{"type":"error","name":"ERC20TransferFailed","inputs":[]},{"type":"error","name":"NativeTransferFailed","inputs":[]}],"bytecode":{"object":"0x60a060405234801561000f575f80fd5b506040516110b63803806110b683398101604081905261002e9161003f565b6001600160a01b031660805261006c565b5f6020828403121561004f575f80fd5b81516001600160a01b0381168114610065575f80fd5b9392505050565b6080516110036100b35f395f818160790152818160f50152818161022d01528181610268015281816103340152818161038a015281816103f9015261044a01526110035ff3fe60806040526004361061003e575f3560e01c80630a5b11e414610042578063481c6a75146100685780635a6bcfda146100b357806391dd7346146100c6575b5f80fd5b610055610050366004610b2f565b6100f2565b6040519081526020015b60405180910390f35b348015610073575f80fd5b5061009b7f000000000000000000000000000000000000000000000000000000000000000081565b6040516001600160a01b03909116815260200161005f565b6100556100c1366004610bb6565b61020a565b3480156100d1575f80fd5b506100e56100e0366004610c14565b610220565b60405161005f9190610ccd565b5f7f00000000000000000000000000000000000000000000000000000000000000006001600160a01b03166348c894916040518060c00160405280336001600160a01b03168152602001898152602001888152602001878152602001861515815260200185151581525060405160200161016c9190610d29565b6040516020818303038152906040526040518263ffffffff1660e01b81526004016101979190610ccd565b5f604051808303815f875af11580156101b2573d5f803e3d5ffd5b505050506040513d5f823e601f3d908101601f191682016040526101d99190810190610dc4565b8060200190518101906101ec9190610e36565b9050478015610200576102005f3383610499565b5095945050505050565b5f6102188484845f806100f2565b949350505050565b6060336001600160a01b037f00000000000000000000000000000000000000000000000000000000000000001614610256575f80fd5b5f61026383850185610e4d565b90505f7f00000000000000000000000000000000000000000000000000000000000000006001600160a01b0316635a6bcfda8360200151846040015185606001516040518463ffffffff1660e01b81526004016102c293929190610f12565b60408051808303815f875af11580156102dd573d5f803e3d5ffd5b505050506040513d601f19601f820116820180604052508101906103019190610f6a565b5090505f61030f8260801d90565b600f0b90505f61031f83600f0b90565b600f0b90505f82121561037a57835161037a907f00000000000000000000000000000000000000000000000000000000000000009061035d85610f8c565b60808801516020890151516001600160a01b031693929190610531565b5f8112156103d25783516103d2907f0000000000000000000000000000000000000000000000000000000000000000906103b384610f8c565b60808801516020808a015101516001600160a01b031693929190610531565b5f82131561042157835160a0850151602086015151610421926001600160a01b03909116917f000000000000000000000000000000000000000000000000000000000000000091908690610822565b5f81131561047257835160a08501516020808701510151610472926001600160a01b03909116917f000000000000000000000000000000000000000000000000000000000000000091908590610822565b60408051602081018590520160405160208183030381529060405294505050505092915050565b5f6001600160a01b0384166104d5575f805f8085875af19050806104d057604051633d2cec6f60e21b815260040160405180910390fd5b61052b565b60405163a9059cbb60e01b5f52836004528260245260205f60445f80895af13d15601f3d1160015f511416171691505f60605280604052508061052b57604051633c9fd93960e21b815260040160405180910390fd5b50505050565b80156105c657836001600160a01b031663f5298aca84610560886001600160a01b03166001600160a01b031690565b6040516001600160e01b031960e085901b1681526001600160a01b0390921660048301526024820152604481018590526064015b5f604051808303815f87803b1580156105ab575f80fd5b505af11580156105bd573d5f803e3d5ffd5b5050505061081b565b6001600160a01b03851661064657604051636a256b2960e01b81526001600160a01b038681166004830152851690636a256b2990849060240160206040518083038185885af115801561061b573d5f803e3d5ffd5b50505050506040513d601f19601f820116820180604052508101906106409190610e36565b5061081b565b604051632961046560e21b81526001600160a01b03868116600483015285169063a5841194906024016020604051808303815f875af115801561068b573d5f803e3d5ffd5b505050506040513d601f19601f820116820180604052508101906106af9190610e36565b506001600160a01b038316301461073e576040516323b872dd60e01b81526001600160a01b0384811660048301528581166024830152604482018490528616906323b872dd906064016020604051808303815f875af1158015610714573d5f803e3d5ffd5b505050506040513d601f19601f820116820180604052508101906107389190610fb2565b506107b0565b60405163a9059cbb60e01b81526001600160a01b0385811660048301526024820184905286169063a9059cbb906044016020604051808303815f875af115801561078a573d5f803e3d5ffd5b505050506040513d601f19601f820116820180604052508101906107ae9190610fb2565b505b604051636a256b2960e01b81526001600160a01b038681166004830152851690636a256b29906024016020604051808303815f875af11580156107f5573d5f803e3d5ffd5b505050506040513d601f19601f820116820180604052508101906108199190610e36565b505b5050505050565b8061086457604051630b0d9c0960e01b81526001600160a01b038681166004830152848116602483015260448201849052851690630b0d9c0990606401610594565b836001600160a01b031663156e29f68461088d886001600160a01b03166001600160a01b031690565b6040516001600160e01b031960e085901b1681526001600160a01b0390921660048301526024820152604481018590526064015f604051808303815f87803b1580156108d7575f80fd5b505af11580156108e9573d5f803e3d5ffd5b505050505050505050565b634e487b7160e01b5f52604160045260245ffd5b60405160c0810167ffffffffffffffff8111828210171561092b5761092b6108f4565b60405290565b604051601f8201601f1916810167ffffffffffffffff8111828210171561095a5761095a6108f4565b604052919050565b6001600160a01b0381168114610976575f80fd5b50565b8035600281900b811461098a575f80fd5b919050565b5f60a0828403121561099f575f80fd5b60405160a0810181811067ffffffffffffffff821117156109c2576109c26108f4565b60405290508082356109d381610962565b815260208301356109e381610962565b6020820152604083013562ffffff811681146109fd575f80fd5b6040820152610a0e60608401610979565b60608201526080830135610a2181610962565b6080919091015292915050565b5f60808284031215610a3e575f80fd5b6040516080810181811067ffffffffffffffff82111715610a6157610a616108f4565b604052905080610a7083610979565b8152610a7e60208401610979565b602082015260408301356040820152606083013560608201525092915050565b5f67ffffffffffffffff821115610ab757610ab76108f4565b50601f01601f191660200190565b5f82601f830112610ad4575f80fd5b8135610ae7610ae282610a9e565b610931565b818152846020838601011115610afb575f80fd5b816020850160208301375f918101602001919091529392505050565b8015158114610976575f80fd5b803561098a81610b17565b5f805f805f6101808688031215610b44575f80fd5b610b4e878761098f565b9450610b5d8760a08801610a2e565b935061012086013567ffffffffffffffff811115610b79575f80fd5b610b8588828901610ac5565b935050610140860135610b9781610b17565b9150610160860135610ba881610b17565b809150509295509295909350565b5f805f6101408486031215610bc9575f80fd5b610bd3858561098f565b9250610be28560a08601610a2e565b915061012084013567ffffffffffffffff811115610bfe575f80fd5b610c0a86828701610ac5565b9150509250925092565b5f8060208385031215610c25575f80fd5b823567ffffffffffffffff80821115610c3c575f80fd5b818501915085601f830112610c4f575f80fd5b813581811115610c5d575f80fd5b866020828501011115610c6e575f80fd5b60209290920196919550909350505050565b5f5b83811015610c9a578181015183820152602001610c82565b50505f910152565b5f8151808452610cb9816020860160208601610c80565b601f01601f19169290920160200192915050565b602081525f610cdf6020830184610ca2565b9392505050565b80516001600160a01b03908116835260208083015182169084015260408083015162ffffff169084015260608083015160020b9084015260809182015116910152565b602080825282516001600160a01b0316828201528201515f90610d4f6040840182610ce6565b506040838101518051600290810b60e08601526020820151900b6101008501529081015161012084015260608101516101408401525060608301516101a080610160850152610da26101c0850183610ca2565b6080860151151561018086015260a09095015115159301929092525090919050565b5f60208284031215610dd4575f80fd5b815167ffffffffffffffff811115610dea575f80fd5b8201601f81018413610dfa575f80fd5b8051610e08610ae282610a9e565b818152856020838501011115610e1c575f80fd5b610e2d826020830160208601610c80565b95945050505050565b5f60208284031215610e46575f80fd5b5051919050565b5f60208284031215610e5d575f80fd5b813567ffffffffffffffff80821115610e74575f80fd5b908301906101a08286031215610e88575f80fd5b610e90610908565b8235610e9b81610962565b8152610eaa866020850161098f565b6020820152610ebc8660c08501610a2e565b604082015261014083013582811115610ed3575f80fd5b610edf87828601610ac5565b606083015250610ef26101608401610b24565b6080820152610f046101808401610b24565b60a082015295945050505050565b5f610140610f208387610ce6565b8451600290810b60a08501526020860151900b60c0840152604085015160e0840152606085015161010084015280610120840152610f6081840185610ca2565b9695505050505050565b5f8060408385031215610f7b575f80fd5b505080516020909101519092909150565b5f600160ff1b8201610fac57634e487b7160e01b5f52601160045260245ffd5b505f0390565b5f60208284031215610fc2575f80fd5b8151610cdf81610b1756fea2646970667358221220c4b1d2c406f96e2bbdb54fde0ba929f3fa71ea7c2216ff9f5937e56d432d9ed864736f6c63430008180033","linkReferences":{}},"methodIdentifiers":{"manager()":"481c6a75","modifyLiquidity((address,address,uint24,int24,address),(int24,int24,int256,bytes32),bytes)":"5a6bcfda","modifyLiquidity((address,address,uint24,int24,address),(int24,int24,int256,bytes32),bytes,bool,bool)":"0a5b11e4","unlockCallback(bytes)":"91dd7346"},"id":64}