{"abi":[{"type":"constructor","inputs":[{"name":"_poolManager","type":"address","internalType":"contract IPoolManager"}],"stateMutability":"nonpayable"},{"type":"function","name":"BASE_FEE","inputs":[],"outputs":[{"name":"","type":"uint24","internalType":"uint24"}],"stateMutability":"view"},{"type":"function","name":"PRICE","inputs":[],"outputs":[{"name":"","type":"uint256","internalType":"uint256"}],"stateMutability":"view"},{"type":"function","name":"afterAddLiquidity","inputs":[{"name":"","type":"address","internalType":"address"},{"name":"","type":"tuple","internalType":"struct PoolKey","components":[{"name":"currency0","type":"address","internalType":"Currency"},{"name":"currency1","type":"address","internalType":"Currency"},{"name":"fee","type":"uint24","internalType":"uint24"},{"name":"tickSpacing","type":"int24","internalType":"int24"},{"name":"hooks","type":"address","internalType":"contract IHooks"}]},{"name":"","type":"tuple","internalType":"struct IPoolManager.ModifyLiquidityParams","components":[{"name":"tickLower","type":"int24","internalType":"int24"},{"name":"tickUpper","type":"int24","internalType":"int24"},{"name":"liquidityDelta","type":"int256","internalType":"int256"},{"name":"salt","type":"bytes32","internalType":"bytes32"}]},{"name":"","type":"int256","internalType":"BalanceDelta"},{"name":"","type":"bytes","internalType":"bytes"}],"outputs":[{"name":"","type":"bytes4","internalType":"bytes4"},{"name":"","type":"int256","internalType":"BalanceDelta"}],"stateMutability":"nonpayable"},{"type":"function","name":"afterDonate","inputs":[{"name":"","type":"address","internalType":"address"},{"name":"","type":"tuple","internalType":"struct PoolKey","components":[{"name":"currency0","type":"address","internalType":"Currency"},{"name":"currency1","type":"address","internalType":"Currency"},{"name":"fee","type":"uint24","internalType":"uint24"},{"name":"tickSpacing","type":"int24","internalType":"int24"},{"name":"hooks","type":"address","internalType":"contract IHooks"}]},{"name":"","type":"uint256","internalType":"uint256"},{"name":"","type":"uint256","internalType":"uint256"},{"name":"","type":"bytes","internalType":"bytes"}],"outputs":[{"name":"","type":"bytes4","internalType":"bytes4"}],"stateMutability":"nonpayable"},{"type":"function","name":"afterInitialize","inputs":[{"name":"","type":"address","internalType":"address"},{"name":"","type":"tuple","internalType":"struct PoolKey","components":[{"name":"currency0","type":"address","internalType":"Currency"},{"name":"currency1","type":"address","internalType":"Currency"},{"name":"fee","type":"uint24","internalType":"uint24"},{"name":"tickSpacing","type":"int24","internalType":"int24"},{"name":"hooks","type":"address","internalType":"contract IHooks"}]},{"name":"","type":"uint160","internalType":"uint160"},{"name":"","type":"int24","internalType":"int24"},{"name":"","type":"bytes","internalType":"bytes"}],"outputs":[{"name":"","type":"bytes4","internalType":"bytes4"}],"stateMutability":"nonpayable"},{"type":"function","name":"afterRemoveLiquidity","inputs":[{"name":"","type":"address","internalType":"address"},{"name":"","type":"tuple","internalType":"struct PoolKey","components":[{"name":"currency0","type":"address","internalType":"Currency"},{"name":"currency1","type":"address","internalType":"Currency"},{"name":"fee","type":"uint24","internalType":"uint24"},{"name":"tickSpacing","type":"int24","internalType":"int24"},{"name":"hooks","type":"address","internalType":"contract IHooks"}]},{"name":"","type":"tuple","internalType":"struct IPoolManager.ModifyLiquidityParams","components":[{"name":"tickLower","type":"int24","internalType":"int24"},{"name":"tickUpper","type":"int24","internalType":"int24"},{"name":"liquidityDelta","type":"int256","internalType":"int256"},{"name":"salt","type":"bytes32","internalType":"bytes32"}]},{"name":"","type":"int256","internalType":"BalanceDelta"},{"name":"","type":"bytes","internalType":"bytes"}],"outputs":[{"name":"","type":"bytes4","internalType":"bytes4"},{"name":"","type":"int256","internalType":"BalanceDelta"}],"stateMutability":"nonpayable"},{"type":"function","name":"afterSwap","inputs":[{"name":"","type":"address","internalType":"address"},{"name":"","type":"tuple","internalType":"struct PoolKey","components":[{"name":"currency0","type":"address","internalType":"Currency"},{"name":"currency1","type":"address","internalType":"Currency"},{"name":"fee","type":"uint24","internalType":"uint24"},{"name":"tickSpacing","type":"int24","internalType":"int24"},{"name":"hooks","type":"address","internalType":"contract IHooks"}]},{"name":"","type":"tuple","internalType":"struct IPoolManager.SwapParams","components":[{"name":"zeroForOne","type":"bool","internalType":"bool"},{"name":"amountSpecified","type":"int256","internalType":"int256"},{"name":"sqrtPriceLimitX96","type":"uint160","internalType":"uint160"}]},{"name":"","type":"int256","internalType":"BalanceDelta"},{"name":"","type":"bytes","internalType":"bytes"}],"outputs":[{"name":"","type":"bytes4","internalType":"bytes4"},{"name":"","type":"int128","internalType":"int128"}],"stateMutability":"nonpayable"},{"type":"function","name":"beforeAddLiquidity","inputs":[{"name":"","type":"address","internalType":"address"},{"name":"","type":"tuple","internalType":"struct PoolKey","components":[{"name":"currency0","type":"address","internalType":"Currency"},{"name":"currency1","type":"address","internalType":"Currency"},{"name":"fee","type":"uint24","internalType":"uint24"},{"name":"tickSpacing","type":"int24","internalType":"int24"},{"name":"hooks","type":"address","internalType":"contract IHooks"}]},{"name":"","type":"tuple","internalType":"struct IPoolManager.ModifyLiquidityParams","components":[{"name":"tickLower","type":"int24","internalType":"int24"},{"name":"tickUpper","type":"int24","internalType":"int24"},{"name":"liquidityDelta","type":"int256","internalType":"int256"},{"name":"salt","type":"bytes32","internalType":"bytes32"}]},{"name":"","type":"bytes","internalType":"bytes"}],"outputs":[{"name":"","type":"bytes4","internalType":"bytes4"}],"stateMutability":"nonpayable"},{"type":"function","name":"beforeDonate","inputs":[{"name":"","type":"address","internalType":"address"},{"name":"","type":"tuple","internalType":"struct PoolKey","components":[{"name":"currency0","type":"address","internalType":"Currency"},{"name":"currency1","type":"address","internalType":"Currency"},{"name":"fee","type":"uint24","internalType":"uint24"},{"name":"tickSpacing","type":"int24","internalType":"int24"},{"name":"hooks","type":"address","internalType":"contract IHooks"}]},{"name":"","type":"uint256","internalType":"uint256"},{"name":"","type":"uint256","internalType":"uint256"},{"name":"","type":"bytes","internalType":"bytes"}],"outputs":[{"name":"","type":"bytes4","internalType":"bytes4"}],"stateMutability":"nonpayable"},{"type":"function","name":"beforeInitialize","inputs":[{"name":"","type":"address","internalType":"address"},{"name":"key","type":"tuple","internalType":"struct PoolKey","components":[{"name":"currency0","type":"address","internalType":"Currency"},{"name":"currency1","type":"address","internalType":"Currency"},{"name":"fee","type":"uint24","internalType":"uint24"},{"name":"tickSpacing","type":"int24","internalType":"int24"},{"name":"hooks","type":"address","internalType":"contract IHooks"}]},{"name":"","type":"uint160","internalType":"uint160"},{"name":"","type":"bytes","internalType":"bytes"}],"outputs":[{"name":"","type":"bytes4","internalType":"bytes4"}],"stateMutability":"pure"},{"type":"function","name":"beforeRemoveLiquidity","inputs":[{"name":"","type":"address","internalType":"address"},{"name":"","type":"tuple","internalType":"struct PoolKey","components":[{"name":"currency0","type":"address","internalType":"Currency"},{"name":"currency1","type":"address","internalType":"Currency"},{"name":"fee","type":"uint24","internalType":"uint24"},{"name":"tickSpacing","type":"int24","internalType":"int24"},{"name":"hooks","type":"address","internalType":"contract IHooks"}]},{"name":"","type":"tuple","internalType":"struct IPoolManager.ModifyLiquidityParams","components":[{"name":"tickLower","type":"int24","internalType":"int24"},{"name":"tickUpper","type":"int24","internalType":"int24"},{"name":"liquidityDelta","type":"int256","internalType":"int256"},{"name":"salt","type":"bytes32","internalType":"bytes32"}]},{"name":"","type":"bytes","internalType":"bytes"}],"outputs":[{"name":"","type":"bytes4","internalType":"bytes4"}],"stateMutability":"nonpayable"},{"type":"function","name":"beforeSwap","inputs":[{"name":"","type":"address","internalType":"address"},{"name":"key","type":"tuple","internalType":"struct PoolKey","components":[{"name":"currency0","type":"address","internalType":"Currency"},{"name":"currency1","type":"address","internalType":"Currency"},{"name":"fee","type":"uint24","internalType":"uint24"},{"name":"tickSpacing","type":"int24","internalType":"int24"},{"name":"hooks","type":"address","internalType":"contract IHooks"}]},{"name":"swapParams","type":"tuple","internalType":"struct IPoolManager.SwapParams","components":[{"name":"zeroForOne","type":"bool","internalType":"bool"},{"name":"amountSpecified","type":"int256","internalType":"int256"},{"name":"sqrtPriceLimitX96","type":"uint160","internalType":"uint160"}]},{"name":"","type":"bytes","internalType":"bytes"}],"outputs":[{"name":"","type":"bytes4","internalType":"bytes4"},{"name":"","type":"int256","internalType":"BeforeSwapDelta"},{"name":"","type":"uint24","internalType":"uint24"}],"stateMutability":"nonpayable"},{"type":"function","name":"getFee","inputs":[{"name":"amnt","type":"int256","internalType":"int256"}],"outputs":[{"name":"","type":"uint24","internalType":"uint24"}],"stateMutability":"view"},{"type":"function","name":"getHookPermissions","inputs":[],"outputs":[{"name":"","type":"tuple","internalType":"struct Hooks.Permissions","components":[{"name":"beforeInitialize","type":"bool","internalType":"bool"},{"name":"afterInitialize","type":"bool","internalType":"bool"},{"name":"beforeAddLiquidity","type":"bool","internalType":"bool"},{"name":"afterAddLiquidity","type":"bool","internalType":"bool"},{"name":"beforeRemoveLiquidity","type":"bool","internalType":"bool"},{"name":"afterRemoveLiquidity","type":"bool","internalType":"bool"},{"name":"beforeSwap","type":"bool","internalType":"bool"},{"name":"afterSwap","type":"bool","internalType":"bool"},{"name":"beforeDonate","type":"bool","internalType":"bool"},{"name":"afterDonate","type":"bool","internalType":"bool"},{"name":"beforeSwapReturnDelta","type":"bool","internalType":"bool"},{"name":"afterSwapReturnDelta","type":"bool","internalType":"bool"},{"name":"afterAddLiquidityReturnDelta","type":"bool","internalType":"bool"},{"name":"afterRemoveLiquidityReturnDelta","type":"bool","internalType":"bool"}]}],"stateMutability":"pure"},{"type":"function","name":"getVol","inputs":[],"outputs":[{"name":"","type":"uint256","internalType":"uint256"}],"stateMutability":"view"},{"type":"function","name":"poolManager","inputs":[],"outputs":[{"name":"","type":"address","internalType":"contract IPoolManager"}],"stateMutability":"view"},{"type":"function","name":"unlockCallback","inputs":[{"name":"data","type":"bytes","internalType":"bytes"}],"outputs":[{"name":"","type":"bytes","internalType":"bytes"}],"stateMutability":"nonpayable"},{"type":"function","name":"volUpdate","inputs":[{"name":"brevisVol","type":"uint256","internalType":"uint256"}],"outputs":[{"name":"","type":"uint256","internalType":"uint256"}],"stateMutability":"nonpayable"},{"type":"error","name":"HookAddressNotValid","inputs":[{"name":"hooks","type":"address","internalType":"address"}]},{"type":"error","name":"HookNotImplemented","inputs":[]},{"type":"error","name":"InvalidPool","inputs":[]},{"type":"error","name":"LockFailure","inputs":[]},{"type":"error","name":"MustUseDynamicFee","inputs":[]},{"type":"error","name":"NotPoolManager","inputs":[]},{"type":"error","name":"NotSelf","inputs":[]}],"bytecode":{"object":"0x60a06040526702c68af0bb1400005f553480156200001b575f80fd5b5060405162001045380380620010458339810160408190526200003e91620002ca565b6001600160a01b0381166080528062000057306200005f565b5050620002f9565b62000152816200014c604080516101c0810182525f80825260208201819052918101829052606081018290526080810182905260a0810182905260c0810182905260e08101829052610100810182905261012081018290526101408101829052610160810182905261018081018290526101a081019190915250604080516101c08101825260018082525f60208301819052928201839052606082018390526080820183905260a0820183905260c082015260e08101829052610100810182905261012081018290526101408101829052610160810182905261018081018290526101a081019190915290565b62000155565b50565b80511515612000831615151415806200017a5750602081015115156110008316151514155b80620001925750604081015115156108008316151514155b80620001aa5750606081015115156104008316151514155b80620001c25750608081015115156102008316151514155b80620001da575060a081015115156101008316151514155b80620001f1575060c0810151151560808316151514155b8062000208575060e0810151151560408316151514155b80620002205750610100810151151560208316151514155b80620002385750610120810151151560108316151514155b80620002505750610140810151151560088316151514155b80620002685750610160810151151560048316151514155b80620002805750610180810151151560028316151514155b806200029857506101a0810151151560018316151514155b15620002c657604051630732d7b560e51b81526001600160a01b038316600482015260240160405180910390fd5b5050565b5f60208284031215620002db575f80fd5b81516001600160a01b0381168114620002f2575f80fd5b9392505050565b608051610d25620003205f395f81816103960152818161046901526104f90152610d255ff3fe608060405234801561000f575f80fd5b5060043610610111575f3560e01c80638db2b6521161009e578063b66fd6b11161006e578063b66fd6b11461027a578063b6a8b0fa1461028f578063c4e833ce1461029d578063dc4c90d314610391578063e1b4af691461028f575f80fd5b80638db2b652146101d857806391dd73461461021b578063a910f80f1461023b578063b47b2fb114610249575f80fd5b80633440d820116100e45780633440d8201461017e5780633d18651e14610191578063575e24b41461019a5780635a2a8100146101d85780638d859f3e1461020b575f80fd5b80630e91a5771461011557806321d0ee7014610141578063259982e5146101415780632b7ac9cc1461016d575b5f80fd5b610128610123366004610657565b6103d0565b60405162ffffff90911681526020015b60405180910390f35b61015461014f3660046106f0565b6103f4565b6040516001600160e01b03199091168152602001610138565b5f545b604051908152602001610138565b61015461018c366004610767565b61040e565b610128610bb881565b6101ad6101a83660046107d1565b61045b565b604080516001600160e01b03199094168452602084019290925262ffffff1690820152606001610138565b6101eb6101e636600461082b565b6104d1565b604080516001600160e01b03199093168352602083019190915201610138565b61017068cdff97fabcb460000081565b61022e6102293660046108ac565b6104ec565b60405161013891906108eb565b61015461014f366004610937565b6102576101e63660046109a9565b604080516001600160e01b03199093168352600f9190910b602083015201610138565b610170610288366004610657565b5f90815590565b61015461014f366004610a0c565b610384604080516101c0810182525f80825260208201819052918101829052606081018290526080810182905260a0810182905260c0810182905260e08101829052610100810182905261012081018290526101408101829052610160810182905261018081018290526101a081019190915250604080516101c08101825260018082525f60208301819052928201839052606082018390526080820183905260a0820183905260c082015260e08101829052610100810182905261012081018290526101408101829052610160810182905261018081018290526101a081019190915290565b6040516101389190610a66565b6103b87f000000000000000000000000000000000000000000000000000000000000000081565b6040516001600160a01b039091168152602001610138565b5f6103ee6103dd836105ce565b5f5468cdff97fabcb46000006105e3565b92915050565b5f604051630a85dc2960e01b815260040160405180910390fd5b5f61042c6104226060870160408801610b52565b6280000016151590565b610449576040516315b3d69f60e31b815260040160405180910390fd5b506301a206c160e51b95945050505050565b5f8080336001600160a01b037f000000000000000000000000000000000000000000000000000000000000000016146104a75760405163570c108560e11b815260040160405180910390fd5b5f6104b86103dd88602001356105ce565b6315d7892d60e21b9a5f9a509098509650505050505050565b5f80604051630a85dc2960e01b815260040160405180910390fd5b6060336001600160a01b037f000000000000000000000000000000000000000000000000000000000000000016146105375760405163570c108560e11b815260040160405180910390fd5b5f80306001600160a01b03168585604051610553929190610b7b565b5f604051808303815f865af19150503d805f811461058c576040519150601f19603f3d011682016040523d82523d5f602084013e610591565b606091505b509150915081156105a55791506103ee9050565b80515f036105c6576040516314815f4760e31b815260040160405180910390fd5b805160208201fd5b5f8082126105da575090565b6103ee82610b9e565b5f806105f0609686610bb8565b9050603c5f6105ff8287610bb8565b905060025f61060e8284610cb7565b6106188684610cc5565b6106229190610cc5565b61062e90610bb8610cdc565b90506402540be4006106408883610bb8565b61064a9190610bb8565b9998505050505050505050565b5f60208284031215610667575f80fd5b5035919050565b6001600160a01b0381168114610682575f80fd5b50565b5f60a08284031215610695575f80fd5b50919050565b5f60808284031215610695575f80fd5b5f8083601f8401126106bb575f80fd5b50813567ffffffffffffffff8111156106d2575f80fd5b6020830191508360208285010111156106e9575f80fd5b9250929050565b5f805f805f6101608688031215610705575f80fd5b85356107108161066e565b945061071f8760208801610685565b935061072e8760c0880161069b565b925061014086013567ffffffffffffffff81111561074a575f80fd5b610756888289016106ab565b969995985093965092949392505050565b5f805f805f610100868803121561077c575f80fd5b85356107878161066e565b94506107968760208801610685565b935060c08601356107a68161066e565b925060e086013567ffffffffffffffff81111561074a575f80fd5b5f60608284031215610695575f80fd5b5f805f805f61014086880312156107e6575f80fd5b85356107f18161066e565b94506108008760208801610685565b935061080f8760c088016107c1565b925061012086013567ffffffffffffffff81111561074a575f80fd5b5f805f805f806101808789031215610841575f80fd5b863561084c8161066e565b955061085b8860208901610685565b945061086a8860c0890161069b565b9350610140870135925061016087013567ffffffffffffffff81111561088e575f80fd5b61089a89828a016106ab565b979a9699509497509295939492505050565b5f80602083850312156108bd575f80fd5b823567ffffffffffffffff8111156108d3575f80fd5b6108df858286016106ab565b90969095509350505050565b5f602080835283518060208501525f5b81811015610917578581018301518582016040015282016108fb565b505f604082860101526040601f19601f8301168501019250505092915050565b5f805f805f80610120878903121561094d575f80fd5b86356109588161066e565b95506109678860208901610685565b945060c08701356109778161066e565b935060e0870135600281900b811461098d575f80fd5b925061010087013567ffffffffffffffff81111561088e575f80fd5b5f805f805f8061016087890312156109bf575f80fd5b86356109ca8161066e565b95506109d98860208901610685565b94506109e88860c089016107c1565b9350610120870135925061014087013567ffffffffffffffff81111561088e575f80fd5b5f805f805f806101208789031215610a22575f80fd5b8635610a2d8161066e565b9550610a3c8860208901610685565b945060c0870135935060e0870135925061010087013567ffffffffffffffff81111561088e575f80fd5b8151151581526101c081016020830151610a84602084018215159052565b506040830151610a98604084018215159052565b506060830151610aac606084018215159052565b506080830151610ac0608084018215159052565b5060a0830151610ad460a084018215159052565b5060c0830151610ae860c084018215159052565b5060e0830151610afc60e084018215159052565b5061010083810151151590830152610120808401511515908301526101408084015115159083015261016080840151151590830152610180808401511515908301526101a0928301511515929091019190915290565b5f60208284031215610b62575f80fd5b813562ffffff81168114610b74575f80fd5b9392505050565b818382375f9101908152919050565b634e487b7160e01b5f52601160045260245ffd5b5f600160ff1b8201610bb257610bb2610b8a565b505f0390565b5f82610bd257634e487b7160e01b5f52601260045260245ffd5b500490565b600181815b80851115610c1157815f1904821115610bf757610bf7610b8a565b80851615610c0457918102915b93841c9390800290610bdc565b509250929050565b5f82610c27575060016103ee565b81610c3357505f6103ee565b8160018114610c495760028114610c5357610c6f565b60019150506103ee565b60ff841115610c6457610c64610b8a565b50506001821b6103ee565b5060208310610133831016604e8410600b8410161715610c92575081810a6103ee565b610c9c8383610bd7565b805f1904821115610caf57610caf610b8a565b029392505050565b5f610b7460ff841683610c19565b80820281158282048414176103ee576103ee610b8a565b808201808211156103ee576103ee610b8a56fea26469706673582212201041a7640d716860a379beecc006a982bf3ce8d2b8cb52289e87fcdcd28bc7e964736f6c63430008180033","linkReferences":{}},"methodIdentifiers":{"BASE_FEE()":"3d18651e","PRICE()":"8d859f3e","afterAddLiquidity(address,(address,address,uint24,int24,address),(int24,int24,int256,bytes32),int256,bytes)":"5a2a8100","afterDonate(address,(address,address,uint24,int24,address),uint256,uint256,bytes)":"e1b4af69","afterInitialize(address,(address,address,uint24,int24,address),uint160,int24,bytes)":"a910f80f","afterRemoveLiquidity(address,(address,address,uint24,int24,address),(int24,int24,int256,bytes32),int256,bytes)":"8db2b652","afterSwap(address,(address,address,uint24,int24,address),(bool,int256,uint160),int256,bytes)":"b47b2fb1","beforeAddLiquidity(address,(address,address,uint24,int24,address),(int24,int24,int256,bytes32),bytes)":"259982e5","beforeDonate(address,(address,address,uint24,int24,address),uint256,uint256,bytes)":"b6a8b0fa","beforeInitialize(address,(address,address,uint24,int24,address),uint160,bytes)":"3440d820","beforeRemoveLiquidity(address,(address,address,uint24,int24,address),(int24,int24,int256,bytes32),bytes)":"21d0ee70","beforeSwap(address,(address,address,uint24,int24,address),(bool,int256,uint160),bytes)":"575e24b4","getFee(int256)":"0e91a577","getHookPermissions()":"c4e833ce","getVol()":"2b7ac9cc","poolManager()":"dc4c90d3","unlockCallback(bytes)":"91dd7346","volUpdate(uint256)":"b66fd6b1"},"id":82}