{"abi":[{"type":"function","name":"ZERO_BALANCE","inputs":[],"outputs":[{"name":"","type":"uint256","internalType":"uint256"}],"stateMutability":"view"},{"type":"error","name":"ReservesMustBeSynced","inputs":[]}],"bytecode":{"object":"0x6085610033600b8282823980515f1a607314602757634e487b7160e01b5f525f60045260245ffd5b305f52607381538281f3fe73000000000000000000000000000000000000000030146080604052600436106032575f3560e01c80633063399a146036575b5f80fd5b603d5f1981565b60405190815260200160405180910390f3fea2646970667358221220134a0c32f95ba9cdf16633aea1c5ede4523be6a6470e7add50b8c1e2ab0c417a64736f6c63430008180033","linkReferences":{}},"methodIdentifiers":{"ZERO_BALANCE()":"3063399a"},"id":51}