{"abi":[{"type":"function","name":"DYNAMIC_FEE_FLAG","inputs":[],"outputs":[{"name":"","type":"uint24","internalType":"uint24"}],"stateMutability":"view"},{"type":"function","name":"FEE_MASK","inputs":[],"outputs":[{"name":"","type":"uint24","internalType":"uint24"}],"stateMutability":"view"},{"type":"function","name":"MAX_LP_FEE","inputs":[],"outputs":[{"name":"","type":"uint24","internalType":"uint24"}],"stateMutability":"view"},{"type":"function","name":"OVERRIDE_FEE_FLAG","inputs":[],"outputs":[{"name":"","type":"uint24","internalType":"uint24"}],"stateMutability":"view"},{"type":"function","name":"OVERRIDE_MASK","inputs":[],"outputs":[{"name":"","type":"uint24","internalType":"uint24"}],"stateMutability":"view"},{"type":"error","name":"FeeTooLarge","inputs":[]}],"bytecode":{"object":"0x60d9610034600b8282823980515f1a60731461002857634e487b7160e01b5f525f60045260245ffd5b305f52607381538281f3fe7300000000000000000000000000000000000000003014608060405260043610605a575f3560e01c80633b01d64d14605e5780633fc48eba14607f57806369a50da9146088578063a437399a146091578063f26ef49d14609a575b5f80fd5b60676240000081565b60405162ffffff909116815260200160405180910390f35b6067620f424081565b606762bfffff81565b6067627fffff81565b6067628000008156fea26469706673582212201f5f2275953826b2a6c37b0551de5048f9386ea157e765d02a513a3e8a504f1e64736f6c63430008180033","linkReferences":{}},"methodIdentifiers":{"DYNAMIC_FEE_FLAG()":"f26ef49d","FEE_MASK()":"a437399a","MAX_LP_FEE()":"3fc48eba","OVERRIDE_FEE_FLAG()":"3b01d64d","OVERRIDE_MASK()":"69a50da9"},"id":43}